:020000040800F2
:1000000078040020C5010008ED04000895030008ED
:10001000E90400080D020008C906000800000000FD
:100020000000000000000000000000001B050008A8
:100030003D030008000000001905000861050008E4
:10004000DF010008DF010008DF010008DF01000810
:10005000DF010008DF01000841030008DF0100089C
:10006000DF010008DF010008DF010008DF010008F0
:10007000DF010008DF010008DF010008DF010008E0
:1000800011020008DF010008DF010008DF0100089D
:10009000DF010008DF010008DF010008DF010008C0
:1000A000DF010008DF010008DF010008DF010008B0
:1000B000DF010008DF01000831060008DF01000849
:1000C000DF010008DF010008DF010008DF01000890
:1000D000DF010008DF010008DF010008DF01000880
:1000E000DF010008DF010008DF010008DF01000870
:1000F000DF010008DF010008DF010008DF01000860
:10010000DF010008DF010008DF010008DF0100084F
:10011000DF010008DF0100088D060008DF0100088C
:10012000DF010008DF010008DF010008DF0100082F
:10013000DF010008DF010008DF010008DF0100081F
:10014000DF010008DF010008DF010008DF0100080F
:10015000DF010008DF010008DF010008DF010008FF
:10016000DF010008DF010008DF010008DF010008EF
:10017000DF010008DF010008DF01000800000000C7
:10018000DF010008DF010008DF010008DF010008CF
:10019000DF010008DF010008DF01000800000000A7
:1001A000DF010008DF010008DF010008DFF810D0E0
:1001B00000F01AF800480047ED110008AFF3008086
:1001C000780400200648804706480047FEE7FEE71F
:1001D000FEE7FEE7FEE7FEE7FEE7FEE7FEE7FEE7F7
:1001E00069050008AD010008064C074D06E0E0680F
:1001F00040F0010394E8070098471034AC42F6D36E
:10020000FFF7D8FF3C1E00085C1E000800BFFEE799
:1002100010B580211E4800F026FF1E480078401CC3
:10022000C0B21C49087004281BDA4FF6FF701A4947
:10023000C8604FF4164018498C31086017480068B0
:10024000144909784FF4164202FB01001249C1F823
:1002500094000846D0F8880040F00100C1F88800FA
:1002600014E0202205210C4800F081FB00BF0C485F
:10027000006800F080000028F9D10421044800F053
:10028000F0FE0020034908700649087010BD000008
:10029000000C02400D000020006002400800002019
:1002A000083C00400C0000200146042900DD042128
:1002B00000200BE001EBC10202EB0112054B03EB46
:1002C0008202125C044B1A54421CD0B26428F1DB47
:1002D00070470000481C0008140000204CF2503108
:1002E000884200DD0846B0F57A7F09DD0021104A1A
:1002F0001160104991FBF0F1491E121D116015E0CB
:100300000A2809DD09210A4A11600B4991FBF0F125
:10031000491E121D116009E03121054A116049F69C
:10032000404191FBF0F1491E121D11607047000021
:100330002814004080841E00400D03007047000018
:1003400010B5012000F042FE01280FD1012108481C
:1003500000F08BFE012803D106A000F0B7F902E0FF
:1003600008A000F0B3F9012000F02AFE10BD000043
:10037000000002406B6579207072657373210D0A6D
:10038000000000006B65792072656C656173652102
:100390000D0A000000BFFEE72DE9F04107460C46BC
:1003A00015461E462A2000F04FF8384600F042F865
:1003B000284600F03FF82B2000F046F8204600F0D9
:1003C00039F8304600F036F82C2000F03DF8BDE852
:1003D000F081000010B50446124804600120124963
:1003E0000870EF2340F23F1200210846FFF7D4FFC8
:1003F00004210E4800F033FE4FF6FF700C49C86030
:100400004FF416400A498C310860064800680849D4
:10041000C1F894000846D0F8880040F00100C1F807
:10042000880010BD080000200C000020000C0240D5
:100430000060024010B50446201200F015F8E0B24A
:1004400000F012F810BD000010B504464021054828
:1004500000F005FE204600F007F84021014800F0BA
:1004600000FE10BD000C024010B5044604210548F2
:1004700000F0F5FD204600F051F80421014800F09D
:10048000F0FD10BD000C02401FB5012200211E200E
:1004900000F0CEFE41F2020000F0C8FF4FF0807085
:1004A00000F0FAFF0F4801F019F9C720ADF800007D
:1004B0000020ADF80200ADF804004CF24F3002907D
:1004C0000020ADF806008DF80C006946054801F0E3
:1004D000CDF90121034801F015FA024801F0C0F9F5
:1004E0001FBD00000008004000BFFEE7704700008D
:1004F00010B5002807DA0A07140E054A00F00F03AA
:100500001B1FD45403E00A07130E024A135410BDF4
:1005100018ED00E000E400E07047704710B50446B5
:1005200000BF02210D4800F0CFFF0028F9D021467E
:100530000A4800F0C7FF00BF0121084800F0C4FFCF
:100540000028F9D000BF8021044800F0BDFF012839
:10055000F9D0024800F0B2FFC0B210BD003C00402C
:1005600010B500F0D5F910BD08B52D48006840F46D
:1005700070002B4908602B48006840F001002949B1
:10058000086028480830006840F08000254908319C
:1005900008600020009002E00098401C00904CF29F
:1005A000503100988842F7D31E480830006840F068
:1005B00090001C49083108600020009002E000987B
:1005C000401C00904CF2503100988842F7D31548F7
:1005D0000830006820F00300124908310860114813
:1005E0000068114908400F4908600846006820F477
:1005F0008020086000200B490831086000BF0948CE
:100600000830006800200028F9D108480549091D74
:100610000860002003490C31086001F031F808BD82
:1006200088ED00E000380240FFFFF6FE10300024A5
:1006300010B508210F4800F016FD01210E4801F009
:1006400065F90E480078A0B100200C4908700C48EC
:10065000007818B10B48FFF7BDFE02E00A48FFF72B
:10066000B9FE0748007808B9012000E000200449DD
:10067000087010BD00100240000800400F0000206C
:100680000E000020000000C0005802C010B501217B
:10069000064801F03EF9012806D10121034801F086
:1006A00035F903A000F012F810BD00000010004062
:1006B0004253505F54494D45525F49525148414E53
:1006C000444C4552210D0A0000BFFEE7014A024991
:1006D00000F013B8F10F00081000002002E008C875
:1006E000121F08C1002AFAD170477047002001E0AC
:1006F00001C1121F002AFBD170472DE9F0411646B7
:100700000F460446002503E03946B047641C6D1CC3
:1007100020780028F8D12846BDE8F08100B589B0DE
:100720004FF4406000F082FE2023002203212B487A
:1007300000F0A3FC41F21D0000F078FE00F058F834
:100740001021012000F0A6F8012000F091F800210E
:10075000012000F0B9F8012000F078F8012000F045
:1007600063F8012000F04EF840F6154000F05EFE00
:10077000072206211A4800F0E7F81A4800901A48A4
:1007800002904020069064200790012001900020F4
:10079000039004904FF440300890002005906A4682
:1007A00006210F4800F002F906210D4800F0BCF8C0
:1007B00041F2050000F03AFE012209210B4801F048
:1007C000BCF8FF21094800F087FF2021074801F00D
:1007D000ACF8064801F044F809B000BD0000024042
:1007E000006002401C74004014000020001400400F
:1007F00010B540F61D0000F03DFE40F61D0000F073
:1008000027FE10BD30B90749096841F48051054AF7
:10081000116005E00349096841F08051014A116007
:10082000704700000074004030B90749096841F082
:100830000101054A116005E00349096841F480316E
:10084000014A1160704700000074004030B9074948
:10085000096821F00201054A116005E003490968B1
:1008600021F40031014A116070470000007400401B
:1008700030B90749096841F00401054A116005E0F3
:100880000349096841F48021014A11607047000062
:100890000074004050B90B4A126822F03802094B2C
:1008A0001A601A4612680A431A600AE0054A12687A
:1008B00022F46012034B1A601A46126842EA01429F
:1008C0001A6070470074004050B90B4A126822F059
:1008D000C002094B1A601A4612680A431A600AE0FD
:1008E000054A126822F44002034B1A601A46126845
:1008F00042EA01421A6070470074004003490860F0
:1009000000BF024909680029FBD1704700000020A0
:100910000448006820B103480068401E014908608F
:10092000704700000000002010B501EB4102D30029
:1009300000F11002D25842F0010301EB4102D40051
:1009400000F11002135110BD30B5134601EB410404
:10095000E50000F11004625922F0606242EA43624D
:1009600001EB4104E50000F11004625130BD10B507
:1009700004290CDA01EB41035C00C1F3400304EBF2
:10098000830302FA03F38468234383600DE00B1FA3
:10099000D9B201EB41035C00C1F3400304EB8303D4
:1009A00002FA03F3C4682343C36010BD70B501EBC2
:1009B0004104E50000F12404645924F0040501EB2E
:1009C0004104E60000F12404A55101EB4104E600D6
:1009D00000F118041568A55101EB4104E60000F18F
:1009E0001C049568A55101EB4104E60000F11404D4
:1009F000D569A55101EB4104E50000F110046359EC
:100A00003F4C2340146944EA8404156A2C439569D9
:100A10002C43234301EB4104E50000F11004635132
:100A2000546874B901EB4104E50000F11004645905
:100A300044F4007501EB4104E60000F11004A551F7
:100A40001FE05468012C0ED101EB4104E50000F1D8
:100A50001004645924F4007501EB4104E60000F130
:100A60001004A5510DE001EB4104E50000F1100474
:100A7000645944F4004501EB4104E60000F1100420
:100A8000A551D46874B901EB4104E50000F11004EC
:100A9000645944F4806501EB4104E60000F1100460
:100AA000A5510DE001EB4104E50000F1100464598B
:100AB00024F4806501EB4104E60000F11004A55127
:100AC000546974B901EB4104E50000F11004645964
:100AD00044F4807501EB4104E60000F11004A551D7
:100AE0000DE001EB4104E50000F11004645924F429
:100AF000807501EB4104E60000F11004A55170BDC2
:100B00003F87FCFF02460023012A03D0022A01D0BE
:100B1000032A04D15001A0F1C040436C01E0054814
:100B2000036803EA0100884201D0002070470120D9
:100B3000FCE70000580100A0D0E9022111434268FF
:100B40001143026841EA4221014A116070470000E6
:100B5000500100A070B50568042D3AD1D0E90865B0
:100B60003543C66935438669354346693543066969
:100B700045EA4625C6683543866845EA063546682F
:100B80003543384E3560856AAD696D1E866A766973
:100B9000761E45EA0616856A2D696D1E46EA05260B
:100BA000856AED686D1E46EA0536856A2D896D1EDB
:100BB00046EA0546856AAD886D1E46EA0556856A91
:100BC0002D786D1E46EA05654FF02046C6F848515F
:100BD00047E0244D2D6825F4F841D0E902653543FE
:100BE000466835432943D0E908653543C66935432E
:100BF0008669354346693543066945EA06044FF080
:100C00002045C5F84011C5F84441D5F84851164E65
:100C100005EA0602856AED686D1E2E03856AAD88B9
:100C20006D1E46EA0556856A2D896D1E46EA054504
:100C30002A43856AAD696D1E866A7669761E45EA25
:100C40000616856A2D696D1E46EA0526856A2D7889
:100C50006D1E46EA05634FF02045C5F84821C5F8EA
:100C60004C3170BD400100A0FF0F00FF074A126821
:100C700043F6FE7322EA03011A4602EA40020A43DF
:100C80004FF02043C3F8542170470000540100A0E6
:100C9000F0B597B0064600274FF6FF744FF460603A
:100CA00000F0C4FB40F6014000F0C0FB40F60240FB
:100CB00000F0BCFB40F6034000F0B8FB40F60440F7
:100CC00000F0B4FB40F6054000F0B0FB40F60640F3
:100CD00000F0ACFB40F6074000F0A8FB0D220C2111
:100CE0007F4800F08DF90D23012202217C4800F09D
:100CF000C4F90D2302220021794800F0E5F94CF2F5
:100D000003720C21774800F07BF94CF20373012247
:100D10000221744800F0B1F94CF203730222002161
:100D2000704800F0D1F94FF683720C216E4800F044
:100D300067F94FF68373012202216B4800F09DF999
:100D40004FF6837302220021674800F0BDF94FF689
:100D50003F020C21654800F053F94FF63F03012292
:100D60000221624800F089F94FF63F030222002178
:100D70005E4800F0A9F948F237120C215C4800F0F7
:100D80003FF948F2371301220221594800F075F962
:100D900048F2371302220021554800F095F9042E3D
:100DA00001D1102500E0082502200B9008200A90B0
:100DB0000520099007200890022007900320069044
:100DC00005900C9601201590082014901020139087
:100DD0004020129080001190002010904FF400608D
:100DE0000F9001200E9040030D9005A816900CA8BE
:100DF000FFF7B0FE012004900395002002900190BF
:100E000000E0641E20213046FFF77CFE08B1002C74
:100E1000F7D114B9002017B0F0BD01A8FFF78CFE80
:100E20000A20FFF76BFD022004900395002002903A
:100E300001904FF6FF7400E0641E20213046FFF75A
:100E400061FE08B1002CF7D10CB90020E3E701A83E
:100E5000FFF772FE032004900395E020029000202B
:100E600001904FF6FF7400E0641E20213046FFF72A
:100E700049FE08B1002CF7D10CB90020CBE701A83E
:100E8000FFF75AFE4FF408770420049003950020E2
:100E9000029001974FF6FF7400E0641E2021304657
:100EA000FFF730FE08B1002CF7D10CB90020B2E7F3
:100EB00001A8FFF741FE40F2F920FFF7D7FE4FF6F9
:100EC000FF7400E0641E20213046FFF71BFE08B1CE
:100ED000002CF7D10CB900209DE701209BE7000012
:100EE00000080240000C02400010024000140240C2
:100EF0000018024010B52D4B1B6883432B4C236018
:100F0000231D1B688343241D2360231D1B6883430B
:100F1000241D2360231D1B688343241D236011B1FE
:100F200001290ED105E0214B1B6803431F4C2360B0
:100F300008E01E4B1B1D1B6803431C4C241D236033
:100F400000E000BF00BF32B1012A11D0022A1CD03C
:100F5000032A27D127E0154B08331B680343134CA2
:100F600008342360231D1B688343241D23601BE07A
:100F70000E4B08331B6883430C4C08342360231D3D
:100F80001B680343241D23600EE0084B08331B68D5
:100F90000343064C08342360231D1B680343241DB0
:100FA000236001E000BF00BF00BF10BD003C014056
:100FB000024909680143014A11607047003C014041
:100FC0000149086070470000143C01400146074891
:100FD000006800EA010205481438006800EA0103CD
:100FE00012B10BB1012070470020FCE7143C014016
:100FF00070B504460D46E0B200F0FEFD204670BD1F
:10100000F0B503461C6A5D6A00200DE001268640AB
:1010100016403EB187000F26BE40B443860001FA59
:1010200006F63443461CB0B20828EFD3082011E07E
:101030000126864016405EB1A0F10806B7000F26D3
:10104000BE40B543A0F10806B60001FA06F63543E6
:10105000461CB0B21028EBD31C625D62F0BD816209
:10106000704781617047C16270470246106908404D
:1010700008B1012070470020FCE7F0B504460D469A
:1010800016462168E268002019E0012787401F40CA
:101090009FB14FEA400C032707FA0CF7B94347000A
:1010A00005FA07F739434FEA400C032707FA0CF714
:1010B000BA43470006FA07F73A43471CB8B210286C
:1010C000E3D32160E260F0BDF0B50C461546012C7B
:1010D00003D146681E43466002E046689E43466070
:1010E000826800210DE001268E401E403EB14F0077
:1010F0000326BE40B2434E0005FA06F632434E1CAC
:10110000B1B21029EFD38260F0BD000010B54FF4EA
:10111000406000F08BF941F20E1000F087F90123D6
:10112000022200210B48FFF7A8FF032211460620E8
:1011300000F07EF80021084600F0CEF902220021DE
:101140000120FFF7D7FE0120FFF732FF0120FFF754
:1011500037FF10BD0000024010B540F6034000F01C
:1011600065F940F6044000F061F940F6064000F0F1
:101170005DF94FF4406000F059F920230122114637
:101180001648FFF77AFF2023022200211348FFF7B9
:101190009BFF8023012211461148FFF76EFF802339
:1011A000022200210E48FFF78FFF0823012211467B
:1011B0000C48FFF762FF0823022200210948FFF7CD
:1011C00083FF0823012211460748FFF756FF082333
:1011D000022200210448FFF777FF10BD0000024003
:1011E000000C024000100240001802404FF4A060C2
:1011F00000F080F800F048FAFFF7AEFFFFF786FF37
:101200004FF4165000F09AFC0420FFF741FDFFF761
:101210003BF9FFF783FA0420FFF746F84CF2503011
:10122000FFF75CF802E0C820FFF768FBFBE700006F
:101230002DE9F04103460D46164600240027A0463E
:101240002A48006800F4E060B0F5E06F03D100BF09
:101250004FF0040830E02548006800F4E060B0F585
:10126000C06F03D101274FF0030825E01F48006835
:1012700000F4E060B0F5A06F02D10227B8461BE091
:101280001A48006800F4E060B0F5806F03D10327CE
:101290004FF0010810E01548006800F4E060B0F578
:1012A000407F03D104274FF0000805E04FF4A06011
:1012B00000F020F80227B846C7F1040005FA00F450
:1012C000C8F104010F20C8403040044324010848FD
:1012D000C45403F01F01012088405911890001F115
:1012E000E021C1F80001BDE8F08100000CED00E054
:1012F00000E400E002490143024A11607047000027
:101300000000FA050CED00E02DE9F04F8CB0064628
:1013100000200A903EA090E8004CC068CDE905BED0
:10132000CDF810A007900FF2EC0ADAE9000ACDE937
:10133000020A0FF2E00ADAE9000ACDE9000A3848A9
:101340000068C0F381000B900B9820B1012804D0F5
:10135000022828D103E0334927E0334925E030480B
:10136000001F006800F03F072D48001F0068C0F311
:10137000881C2B48001F0068C0F30140401C4FEA46
:1013800040092748001F006800F48008B8F5800F66
:1013900001D1254B00E0234BB3FBF7F000FB0CF031
:1013A000B0FBF9F101E01F4900BF00BF1C48006815
:1013B000C0F3031404A8055D21FA05F2184800687B
:1013C000C0F3822402A8055D22FA05F009901448B2
:1013D0000068C0F342341DF8045022FA05F008906A
:1013E00036B1012E06D0022E06D0032E0AD106E019
:1013F0000A9108E00A9206E009980A9003E008982A
:101400000A9000E000BF00BF0A980CB0BDE8F08F62
:1014100000000000000000000102030406070809A4
:10142000083802400024F40040787D01074A02EBAE
:101430009011D1F8001800F01F0301229A401143C7
:10144000024B03EB9012C2F80018704700300240C4
:10145000074A02EB9011D1F8001800F01F03012297
:101460009A409143024B03EB9012C2F80018704768
:1014700000300240074A02EB9011D1F8001800F04A
:101480001F0301229A401143024B03EB9012C2F852
:1014900000187047003002406FF08071884205D11B
:1014A000054909680140044A116004E002490968DD
:1014B0000143014A116070478C3802400146C868F8
:1014C00080B27047C160704702469068084008B11A
:1014D000012070470020FCE770B504460B46CD178D
:1014E00001EB9575AD10A1EB8505AE000F25B5405C
:1014F000E843CD1701EB9575AD10A1EB8505AD0067
:1015000004FA05F2CD1701EB9575AD1035B1012D3B
:101510000ED0022D18D0032D2ED121E0184B1B68C0
:101520000340174D2B602B461B6813432B6024E0B0
:10153000134B1B1D1B680340114D2D1D2B602B46AB
:101540001B6813432B6018E00D4B08331B680340E6
:101550000B4D08352B602B461B6813432B600CE0AA
:10156000074B0C331B680340054D0C352B602B4695
:101570001B6813432B6000E000BF00BF70BD00007C
:1015800008380140002000213A4A126842F48032B3
:10159000384B1A6000BF401C364A126802F4003112
:1015A00019B94FF6FF729042F5D1324A126802F42F
:1015B00000320AB900BFFEE72E4A4032126842F0FC
:1015C00080522C4B40331A602B4A126842F440423E
:1015D000294B1A60274A08321268264B08331A60D2
:1015E0001A46126842F400421A601A46126842F41F
:1015F000A0521A60214A1B1F1A601A1F126842F07B
:1016000080721B1F1A6000BF1A4A126802F0007233
:10161000002AF9D0184A126842F48032164B1A6038
:1016200000BF154A526802F48032002AF9D0124AEB
:10163000126842F40032104B1A6000BF0E4A526822
:1016400002F40032002AF9D00A4A0832126822F065
:101650000302084B08331A601A46126842F002026D
:101660001A6000BF034A0832126802F00802002A1A
:10167000F8D07047003802400070004019644009FB
:1016800010B5FFF77FFF10BD10B5124800684FF48A
:101690007A71B0FBF1F4601EB0F1807F01D30120BC
:1016A0000FE0601E4FF0E02148610F214FF0FF3046
:1016B000FEF71EFF00204FF0E0218861072008613F
:1016C000002008B100BFFEE70021481EFEF710FF12
:1016D00010BD000004000020C162704710B5044630
:1016E0005C49601A8C426FD019DC5B49A4EB0100A5
:1016F0008C424ED009DCB4F1804F2ED057482044A4
:10170000A0B3B0F5806F72D13AE0B0F5806F49D0E8
:10171000B0F5006F4FD0B0F5406FF4D17BE0B0F57D
:10172000923F5BD009DCB0F5806F73D0B0F5644FA9
:101730000AD0B0F5684F5AD147E0B0F5943F57D082
:10174000B0F5963F53D15CE04FF41060FFF792FE86
:101750004FF41060FFF77CFE79E04FF40060FFF774
:1017600089FE4FF40060FFF773FE70E0FFE740F67C
:101770000100FFF77FFE40F60100FFF769FE66E01B
:1017800040F60200FFF776FE40F60200FFF760FE2B
:101790005DE040F60300FFF76DFE40F60300FFF743
:1017A00057FE54E040F60400FFF764FE40F60400E4
:1017B000FFF74EFE4BE040F60500FFF75BFE40F6FC
:1017C0000500FFF745FE42E02EE040F60110FFF76E
:1017D00051FE40F60110FFF73BFE38E04FF4116078
:1017E000FFF748FE4FF41160FFF732FE2FE02DE0C7
:1017F00040F61110FFF73EFE40F61110FFF728FEED
:1018000025E040F61210FFF735FE40F61210FFF704
:101810001FFE1CE011E040F60600FFF72BFE40F62D
:101820000600FFF715FE12E040F60700FFF722FE64
:1018300040F60700FFF70CFE09E040F60800FFF74E
:1018400019FE40F60800FFF703FE00E000BF00BFEE
:1018500010BD0000001C0040000C004000FCFFBF59
:10186000016841F001010160704700000A8882624E
:101870001D4A90420ED0B0F1804F0BD01B4A9042CF
:1018800008D01B4A904205D01A4A904202D01A4A08
:1018900090420BD1026822F07002026002684B880D
:1018A0001A43026002688B881A4302608A68C26227
:1018B000124A90420AD0124A904207D0026822F49B
:1018C000407202600268CB881A430260064A904266
:1018D00002D0094A904201D10A7B0263426942F078
:1018E0000102426170470000000001400004004016
:1018F00000080040000C00400004014000100040BF
:1019000000140040C2680A43C2607047CA430261C3
:1019100070470246D06800EA01031069084010B120
:101920000BB1012070470020FCE7426822F07002F2
:10193000426042680A434260704781621AB9436953
:1019400043F00103436170472DE9F04704460D461B
:101950000027B846B94600263349601A8C4235D074
:101960000CDC32482044E8B1B0F5806F1FD0B0F5F0
:10197000006F21D0B0F5406F32D122E0B0F5806F1A
:1019800029D0B0F5184F03D0B0F51C4F28D104E092
:101990000320FFF7B9FC074623E00320FFF7B4FC60
:1019A00007461EE00220FFF7AFFC074619E00220C1
:1019B000FFF7AAFC074614E00220FFF7A5FC074644
:1019C0000FE00220FFF7A0FC07460AE00220FFF725
:1019D0009BFC074605E00220FFF796FC074600E067
:1019E00000BF00BFE06800F4004070B1780000EB79
:1019F0005500B0FBF5F64FF6F07006EA0008C6F3A6
:101A0000420948EA0900A0600CE007EB5500B0FB72
:101A1000F5F64FF6F07006EA000806F00F0948EAFE
:101A20000900A060BDE8F0870078004000BCFFBF5F
:101A3000C1F308024260704710B504463349601A8A
:101A40008C424DD00CDC32482044E0B1B0F5806FC0
:101A500022D0B0F5006F31D0B0F5406F52D136E0F2
:101A6000B0F5806F45D0B0F5184F03D0B0F51C4FDE
:101A700048D11AE040F60410FFF7FCFC40F60410D1
:101A8000FFF7E6FC3FE040F61100FFF7F3FC40F6FD
:101A90001100FFF7DDFC36E040F61200FFF7EAFC2C
:101AA00040F61200FFF7D4FC2DE040F60510FFF7DA
:101AB000E1FC40F60510FFF7CBFC24E040F61300F4
:101AC000FFF7D8FC40F61300FFF7C2FC1BE040F61E
:101AD0001400FFF7CFFC40F61400FFF7B9FC12E04A
:101AE00040F61E00FFF7C6FC40F61E00FFF7B0FCF4
:101AF00009E040F61F00FFF7BDFC40F61F00FFF7AE
:101B0000A7FC00E000BF00BF10BD0000007800404F
:101B100000BCFFBFC16841F40051C160704710B5FF
:101B2000024602EB9110006801F01F040123A3405C
:101B3000184008B1012010BD0020FCE710B5044694
:101B40004FF44060FFF772FC4FF44060FFF76EFC0B
:101B500041F20410FFF76AFC4FF40072072120489D
:101B6000FFF74EFA4FF4806207211D48FFF748FA4D
:101B70004FF40073012202211948FFF77EFA4FF457
:101B80008063012202211648FFF777FA4FF40073B1
:101B9000022200211248FFF797FA4FF480630222D5
:101BA00000210F48FFF790FA0E48FFF745FF214646
:101BB0000C48FFF7C9FE00210A4800F015F8002183
:101BC000084800F039F80021064800F025F80548DB
:101BD000FFF7A0FF0821034800F026F810BD000021
:101BE0000000024000100140C26822F4C062C260DE
:101BF000C2680A43C260704710B5044621460548D2
:101C0000FFF716FF00BF07210248FFF788FF0028F3
:101C1000F9D010BD00100140026922F44052026167
:101C200002690A43026170470A460021C16821F037
:101C300008011143C1607047C26822F48052C2603B
:101C4000C2680A43C2607047000000000000000044
:101C50000000000000000000000000000000000084
:101C60000000000000000000000000000000000074
:101C700000000000000000000000FFFFFFFFFFFF6A
:101C8000FFFFFFFFFFFFFFFFFFFFFFFFFFFFFFFF64
:101C9000FFFFFFFFFFFFFFFFFFFFFFFFFFFFFFFF54
:101CA000FFFFFFFFFFFFFFFFFFFFFFFFFFFCFAF754
:101CB000F5F2F0EDEBE8E6E3E0DEDBD9D6D4D1CF08
:101CC000CCC9C7C4C2BFBDBAB8B5B3B0ADABA8A686
:101CD000A3A19E9C999694918F8C8A878582807D02
:101CE0007A787573706E6B696663615E5C59575480
:101CF000524F4D4A474542403D3B383633302E2BFC
:101D0000292624211F1C1A1714120F0D0A08050377
:101D1000000305080A0D0F1215171A1C1F2124278E
:101D2000292C2E313436393B3E404346484B4D50EA
:101D30005255585A5D5F6264676A6C6F7174767948
:101D40007C7E818386898B8E909395989B9DA0A2A3
:101D5000A5A7AAADAFB2B4B7B9BCBFC1C4C6C9CB01
:101D6000CED1D3D6D8DBDEE0E3E5E8EAEDF0F2F55C
:101D7000F7FAFCFF00050A0F141A1F24292E333826
:101D80003D42474D52575C61666B70757A80858A1B
:101D90008F94999EA3A8ADB3B8BDC2C7CCD1D6DBF2
:101DA000E0E6EBF0F5FAFFFAF5F0EBE6E0DBD6D192
:101DB000CCC7C2BDB8B3ADA8A39E99948F8A8580C5
:101DC0007A75706B66615C57524D47423D38332ED1
:101DD00029241F1A140F0A0580889098A0A8AFB66E
:101DE000BEC5CBD2D8DDE3E8ECF0F4F7FAFCFEFE9A
:101DF000FFFFFFFEFEFCFAF7F4F0ECE8E3DDD8D2DB
:101E0000CBC5BEB6AFA8A09890888078706860589F
:101E1000514A423B352E28231D1814100C09060484
:101E2000020100000001020406090C1014181D2311
:101E3000282E353B424A5158606870785C1E000875
:101E40000000002014000000DC060008701E0008DE
:101E50001400002064040000EC06000800000000EC
:101E600000C2EB0B000000000000000000000000BA
:04000005080001AD41
:00000001FF
