:020000040800F2
:1000000018040020C50100082D070008010300089E
:10001000290700080D020008150A0008000000006A
:100020000000000000000000000000005B07000866
:10003000A90200080000000059070008AD080008E8
:10004000DF010008DF010008DF010008DF01000810
:10005000DF010008DF010008AD020008DF01000831
:10006000DF010008DF010008DF010008DF010008F0
:10007000DF010008DF010008DF010008DF010008E0
:1000800011020008DF010008DF010008DF0100089D
:10009000DF010008DF010008DF010008DF010008C0
:1000A000DF010008DF010008DF010008DF010008B0
:1000B000DF010008DF0100087D090008DF010008FA
:1000C000DF010008DF010008DF010008DF01000890
:1000D000DF010008DF010008DF010008DF01000880
:1000E000DF010008DF010008DF010008DF01000870
:1000F000DF010008DF010008DF010008DF01000860
:10010000DF010008DF010008DF010008DF0100084F
:10011000DF010008DF010008D9090008DF0100083D
:10012000DF010008DF010008DF010008DF0100082F
:10013000DF010008DF010008DF010008DF0100081F
:10014000DF010008DF010008DF010008DF0100080F
:10015000DF010008DF010008DF010008DF010008FF
:10016000DF010008DF010008DF010008DF010008EF
:10017000DF010008DF010008DF01000800000000C7
:10018000DF010008DF010008DF010008DF010008CF
:10019000DF010008DF010008DF01000800000000A7
:1001A000DF010008DF010008DF010008DFF810D0E0
:1001B00000F01AF8004800473D140008AFF3008033
:1001C000180400200648804706480047FEE7FEE77F
:1001D000FEE7FEE7FEE7FEE7FEE7FEE7FEE7FEE7F7
:1001E000B5080008AD010008064C074D06E0E068C0
:1001F00040F0010394E8070098471034AC42F6D36E
:10020000FFF7D8FF341F0008541F000800BFFEE7A7
:1002100010B580211E4801F04EF81E480078401CA1
:10022000C0B21C49087004281BDA4FF6FF701A4947
:10023000C8604FF4164018498C31086017480068B0
:10024000144909784FF4164202FB01001249C1F823
:1002500094000846D0F8880040F00100C1F88800FA
:1002600014E0202205210C4800F0A8FC00BF0C4837
:10027000006800F080000028F9D10421044801F052
:1002800018F80020034908700649087010BD0000E6
:10029000000C02400D000020006002400800002019
:1002A000083C00400C0000207047000010B5012001
:1002B00000F0B4FF01280FD10121084800F0FDFF34
:1002C000012803D106A000F0A7FB02E008A000F07F
:1002D000A3FB012000F09CFF10BD000000000240C5
:1002E0006B6579207072657373210D0A0000000040
:1002F0006B65792072656C65617365210D0A00007C
:1003000000BFFEE72DE9F04107460C4615461E46A4
:100310002A2000F0A9F9384600F096F9284600F0A6
:1003200093F92B2000F0A0F9204600F08DF930461B
:1003300000F08AF92C2000F097F9BDE8F081000068
:100340002DE9F04706460F4614461D46DDF820808D
:10035000681E83B2601E82B239463046FFF7D2FF74
:100360000421144800F0A3FFB94613E0B2460BE0A5
:100370004FEA282000F08AFA08F0FF0000F086FA21
:100380000AF101001FFA80FAA245F1DB09F1010030
:100390001FFA80F9A945E9DB00BF8021064801F07A
:1003A000F7F90128F9D00421024800F082FFBDE8E6
:1003B000F0870000000C0240003C004010B54FF4F4
:1003C000406001F087F94FF40043012211461048C4
:1003D00000F07BFF4FF40043022200210C4800F0A4
:1003E0009BFF4FF400410A4800F061FF40F60340D4
:1003F00001F070F94C2301221146064800F065FF18
:100400004C2302220021034800F086FF10BD0000AB
:1004100000000240000C024010B500F0D7F9FFF7D1
:10042000CDFF08216E4800F042FF642000F01CFB65
:1004300008216B4800F03DFF642000F015FB4FF4ED
:100440000041684800F035FF4FF4FA7000F00CFBF3
:10045000112000F009F9642000F006FB362000F0BE
:1004600003F9702000F0F9F83A2000F0FDF80520BB
:1004700000F0F3F8B22000F0F7F80C2000F0EDF8EF
:100480000C2000F0EAF8002000F0E7F8332000F03C
:10049000E4F8332000F0E1F8B72000F0E5F835206B
:1004A00000F0DBF8BB2000F0DFF8352000F0D5F8D5
:1004B000C02000F0D9F82C2000F0CFF8C22000F0C6
:1004C000D3F8012000F0C9F8C32000F0CDF81320C4
:1004D00000F0C3F8C42000F0C7F8202000F0BDF8F9
:1004E000C62000F0C1F80F2000F0B7F8CA2000F0D5
:1004F000BBF80F2000F0B1F8C82000F0B5F80820D4
:1005000000F0ABF8552000F0AFF8902000F0A5F80F
:10051000D02000F0A9F8A42000F09FF8A12000F05E
:100520009CF8E02000F0A0F8D02000F096F8002021
:1005300000F093F8062000F090F8092000F08DF804
:100540000B2000F08AF82A2000F087F83C2000F009
:1005500084F8552000F081F84B2000F07EF8082048
:1005600000F07BF8162000F078F8142000F075F801
:10057000192000F072F8202000F06FF8E12000F060
:1005800073F8D02000F069F8002000F066F806202B
:1005900000F063F8092000F060F80B2000F05DF82F
:1005A000292000F05AF8362000F057F8542000F0C7
:1005B00054F84B2000F051F80D2000F04EF81620B2
:1005C00000F04BF8142000F048F8212000F045F826
:1005D000202000F042F8292000F046F810BD00006D
:1005E000000C02400000024010B5044612480460AE
:1005F000012012490870EF2340F23F120021084603
:10060000FFF780FE04210E4800F051FE4FF6FF7008
:100610000C49C8604FF416400A498C3108600648FE
:1006200000680849C1F894000846D0F8880040F0F6
:100630000100C1F8880010BD080000200C00002057
:10064000000C02400060024010B50446201200F089
:100650001BF8E0B200F018F810BD10B504462046B3
:1006600000F012F810BD000010B504464021054806
:1006700000F01DFE204600F007F84021014800F080
:1006800018FE10BD000C024010B5044604210548B8
:1006900000F00DFE204600F0D7F80421014800F0DC
:1006A00008FE10BD000C024010B50346002202E017
:1006B00023F8021B521CB2F5963FF9D310BD00007F
:1006C0001FB5012200211E2000F006FF41F20200AA
:1006D00001F000F84FF0807001F032F8114801F09D
:1006E00079F9C720ADF800000020ADF80200ADF8A0
:1006F00004004CF24F3002900020ADF806008DF857
:100700000C006946074801F02DFA2021054801F048
:1007100088FA0121034801F071FA024801F01CFA3D
:100720001FBD00000008004000BFFEE7704700004A
:1007300010B5002807DA0A07140E054A00F00F0367
:100740001B1FD45403E00A07130E024A135410BDB2
:1007500018ED00E000E400E07047704700B589B094
:1007600040F6154000F0B6FF0521164800F0B5F937
:100770004020069000200290039004904FF4164011
:10078000079011480090012001904FF440300890EC
:100790006A4605210B4800F031FA0521094800F0AE
:1007A0008CF900220521074800F074F91022052178
:1007B000044800F0E4F900221146102000F08CFEFD
:1007C00009B000BD006002400C3C004000B587B09D
:1007D00040F6024000F07EFF41F20F0000F07AFF89
:1007E0004FF4E0520621164800F032FD4FF4E0537A
:1007F00000220221124800F068FD4FF4E05302226B
:1008000000210F4800F088FD002001904FF4827015
:10081000009000200290032005904FF40070039098
:100820000020069004906946064800F0B9FF0021B8
:10083000044800F097FF034800F09FFF07B000BD99
:1008400000080240003C004010B5044600BF0221F1
:100850000D4800F09DFF0028F9D021460A4800F01D
:1008600095FF00BF0121084800F092FF0028F9D051
:1008700000BF8021044800F08BFF0128F9D0024816
:1008800000F080FFC0B210BD003C004010B504462F
:1008900000BF0221044800F07BFF0028F9D0214668
:1008A000014800F073FF10BD003C004010B500F09F
:1008B000E5F810BD08B52D48006840F470002B49DC
:1008C00008602B48006840F001002949086028486A
:1008D0000830006840F08000254908310860002099
:1008E000009002E00098401C00904CF250310098BB
:1008F0008842F7D31E480830006840F090001C4939
:10090000083108600020009002E00098401C009030
:100910004CF2503100988842F7D3154808300068EF
:1009200020F003001249083108601148006811499D
:1009300008400F4908600846006820F480200860DD
:1009400000200B490831086000BF094808300068E2
:1009500000200028F9D108480549091D0860002039
:1009600003490C31086001F009F808BD88ED00E08A
:1009700000380240FFFFF6FE1030002410B50821B9
:100980000F4800F098FC01210E4801F03BF90E4899
:100990000078A0B100200C4908700C48007818B10C
:1009A0000B48FFF721FE02E00A48FFF71DFE07484B
:1009B000007808B9012000E000200449087010BD4B
:1009C00000100240000800400F0000200E00002030
:1009D000000000C0005802C010B50121064801F017
:1009E00014F9012806D10121034801F00BF903A0F5
:1009F00000F012F810BD0000001000404253505F9C
:100A000054494D45525F49525148414E444C45521C
:100A1000210D0A0000BFFEE7014A024900F013B8A9
:100A2000411200081000002002E008C8121F08C18F
:100A3000002AFAD170477047002001E001C1121F5F
:100A4000002AFBD170472DE9F04116460F460446B7
:100A5000002503E03946B047641C6D1C207800284F
:100A6000F8D12846BDE8F0810349086000BF02497B
:100A700009680029FBD17047000000200448006885
:100A800020B103480068401E01490860704700001B
:100A90000000002030B5134601EB4104E50000F1F1
:100AA0001004625922F0606242EA436201EB4104A1
:100AB000E50000F11004625130BD10B501EB4102B8
:100AC000D30000F11002D25822F4807301EB4102EE
:100AD000D40000F11002135110BD10B501EB41021A
:100AE000D30000F11002D25822F0010301EB4102C1
:100AF000D40000F110021351002301EB4102D40095
:100B000000F11002135101EB4102D40000F1140274
:100B1000135101EB4102D40000F11802135101EB13
:100B20004102D40000F11C02135101EB4102D40038
:100B300000F12002135101EB4102D40000F1240224
:100B4000135104290CDA01EB41025300C1F34002B6
:100B500003EB82033D229A4083681A4382600DE0D2
:100B60000A1FD1B201EB41025300C1F3400203EB73
:100B700082033D229A40C3681A43C26010BD30B55B
:100B8000802A0DD001EB4103DC0000F110031B595A
:100B9000134301EB4104E50000F1100463510CE044
:100BA00001EB4103DC0000F124031B59134301EB6B
:100BB0004104E50000F12404635130BD10B504295F
:100BC0000CDA01EB41035C00C1F3400304EB830347
:100BD00002FA03F38468234383600DE00B1FD9B24C
:100BE00001EB41035C00C1F3400304EB830302FA11
:100BF00003F3C4682343C36010BD000070B501EB6C
:100C00004104E50000F12404645924F0040501EBDB
:100C10004104E60000F12404A55101EB4104E60083
:100C200000F118041568A55101EB4104E60000F13C
:100C30001C049568A55101EB4104E60000F1140481
:100C4000D569A55101EB4104E50000F11004635999
:100C50003F4C2340146944EA8404156A2C43956987
:100C60002C43234301EB4104E50000F110046351E0
:100C7000546874B901EB4104E50000F110046459B3
:100C800044F4007501EB4104E60000F11004A551A5
:100C90001FE05468012C0ED101EB4104E50000F186
:100CA0001004645924F4007501EB4104E60000F1DE
:100CB0001004A5510DE001EB4104E50000F1100422
:100CC000645944F4004501EB4104E60000F11004CE
:100CD000A551D46874B901EB4104E50000F110049A
:100CE000645944F4806501EB4104E60000F110040E
:100CF000A5510DE001EB4104E50000F11004645939
:100D000024F4806501EB4104E60000F11004A551D4
:100D1000546974B901EB4104E50000F11004645911
:100D200044F4807501EB4104E60000F11004A55184
:100D30000DE001EB4104E50000F11004645924F4D6
:100D4000807501EB4104E60000F11004A55170BD6F
:100D50003F87FCFF02460023012A03D0022A01D06C
:100D6000032A04D15001A0F1C040436C01E00548C2
:100D7000036803EA0100884201D000207047012087
:100D8000FCE70000580100A0D0E9022111434268AD
:100D90001143026841EA4221014A11607047000094
:100DA000500100A070B50568042D3AD1D0E908655E
:100DB0003543C66935438669354346693543066917
:100DC00045EA4625C6683543866845EA06354668DD
:100DD0003543384E3560856AAD696D1E866A766921
:100DE000761E45EA0616856A2D696D1E46EA0526B9
:100DF000856AED686D1E46EA0536856A2D896D1E89
:100E000046EA0546856AAD886D1E46EA0556856A3E
:100E10002D786D1E46EA05654FF02046C6F848510C
:100E200047E0244D2D6825F4F841D0E902653543AB
:100E3000466835432943D0E908653543C6693543DB
:100E40008669354346693543066945EA06044FF02D
:100E50002045C5F84011C5F84441D5F84851164E13
:100E600005EA0602856AED686D1E2E03856AAD8867
:100E70006D1E46EA0556856A2D896D1E46EA0545B2
:100E80002A43856AAD696D1E866A7669761E45EAD3
:100E90000616856A2D696D1E46EA0526856A2D7837
:100EA0006D1E46EA05634FF02045C5F84821C5F898
:100EB0004C3170BD400100A0FF0F00FF074A1268CF
:100EC00043F6FE7322EA03011A4602EA40020A438D
:100ED0004FF02043C3F8542170470000540100A094
:100EE000F0B597B0064600274FF6FF744FF46060E8
:100EF00000F0F0FB40F6014000F0ECFB40F6024051
:100F000000F0E8FB40F6034000F0E4FB40F604404C
:100F100000F0E0FB40F6054000F0DCFB40F6064048
:100F200000F0D8FB40F6074000F0D4FB0D220C2166
:100F30007F4800F08DF90D23012202217C4800F04A
:100F4000C4F90D2302220021794800F0E5F94CF2A2
:100F500003720C21774800F07BF94CF203730122F5
:100F60000221744800F0B1F94CF20373022200210F
:100F7000704800F0D1F94FF683720C216E4800F0F2
:100F800067F94FF68373012202216B4800F09DF947
:100F90004FF6837302220021674800F0BDF94FF637
:100FA0003F020C21654800F053F94FF63F03012240
:100FB0000221624800F089F94FF63F030222002126
:100FC0005E4800F0A9F948F237120C215C4800F0A5
:100FD0003FF948F2371301220221594800F075F910
:100FE00048F2371302220021554800F095F9042EEB
:100FF00001D1102500E0082502200B9008200A905E
:1010000005200990072008900220079003200690F1
:1010100005900C9601201590082014901020139034
:101020004020129080001190002010904FF400603A
:101030000F9001200E9040030D9005A816900CA86B
:10104000FFF7B0FE0120049003950020029001906C
:1010500000E0641E20213046FFF77CFE08B1002C22
:10106000F7D114B9002017B0F0BD01A8FFF78CFE2E
:101070000A20FFF7F9FC022004900395002002905B
:1010800001904FF6FF7400E0641E20213046FFF708
:1010900061FE08B1002CF7D10CB90020E3E701A8EC
:1010A000FFF772FE032004900395E02002900020D9
:1010B00001904FF6FF7400E0641E20213046FFF7D8
:1010C00049FE08B1002CF7D10CB90020CBE701A8EC
:1010D000FFF75AFE4FF40877042004900395002090
:1010E000029001974FF6FF7400E0641E2021304605
:1010F000FFF730FE08B1002CF7D10CB90020B2E7A1
:1011000001A8FFF741FE40F2F920FFF7D7FE4FF6A6
:10111000FF7400E0641E20213046FFF71BFE08B17B
:10112000002CF7D10CB900209DE701209BE70000BF
:1011300000080240000C024000100240001402406F
:101140000018024010B52D4B1B6883432B4C2360C5
:10115000231D1B688343241D2360231D1B688343B9
:10116000241D2360231D1B688343241D236011B1AC
:1011700001290ED105E0214B1B6803431F4C23605E
:1011800008E01E4B1B1D1B6803431C4C241D2360E1
:1011900000E000BF00BF32B1012A11D0022A1CD0EA
:1011A000032A27D127E0154B08331B680343134C50
:1011B00008342360231D1B688343241D23601BE028
:1011C0000E4B08331B6883430C4C08342360231DEB
:1011D0001B680343241D23600EE0084B08331B6883
:1011E0000343064C08342360231D1B680343241D5E
:1011F000236001E000BF00BF00BF10BD003C014004
:10120000024909680143014A11607047003C0140EE
:101210000149086070470000143C0140014607483E
:10122000006800EA010205481438006800EA01037A
:1012300012B10BB1012070470020FCE7143C0140C3
:1012400070B504460D46E0B200F04CFE204670BD7D
:10125000F0B503461C6A5D6A00200DE00126864059
:1012600016403EB187000F26BE40B443860001FA07
:1012700006F63443461CB0B20828EFD3082011E02C
:101280000126864016405EB1A0F10806B7000F2681
:10129000BE40B543A0F10806B60001FA06F6354394
:1012A000461CB0B21028EBD31C625D62F0BD8162B7
:1012B000704781617047C1627047024610690840FB
:1012C00008B1012070470020FCE7F0B504460D4648
:1012D00016462168E268002019E0012787401F4078
:1012E0009FB14FEA400C032707FA0CF7B9434700B8
:1012F00005FA07F739434FEA400C032707FA0CF7C2
:10130000BA43470006FA07F73A43471CB8B2102819
:10131000E3D32160E260F0BDF0B50C461546012C28
:1013200003D146681E43466002E046689E4346601D
:10133000826800210DE001268E401E403EB14F0024
:101340000326BE40B2434E0005FA06F632434E1C59
:10135000B1B21029EFD38260F0BD000010B54FF498
:10136000406000F0B7F941F20E1000F0B3F901232C
:10137000022200210B48FFF7A8FF03221146062096
:1013800000F0AAF80021084600F024FA0222002109
:101390000120FFF7D7FE0120FFF732FF0120FFF702
:1013A00037FF10BD0000024010B540F6034000F0CA
:1013B00091F940F6044000F08DF940F6064000F047
:1013C00089F94FF4406000F085F92023012211468D
:1013D0001648FFF77AFF2023022200211348FFF767
:1013E0009BFF8023012211461148FFF76EFF8023E7
:1013F000022200210E48FFF78FFF08230122114629
:101400000C48FFF762FF0823022200210948FFF77A
:1014100083FF0823012211460748FFF756FF0823E0
:10142000022200210448FFF777FF10BD00000240B0
:10143000000C0240001002400018024008B54FF4B2
:10144000A06000F0ABF800F09DFAFFF7ADFFFFF7EA
:1014500085FF4FF4165000F0E7FC0420FFF740FD35
:10146000FEF7DAFF4FF6FF70F0234FF4A072002171
:1014700000900846FEF764FFFFF770F94FF4F8514B
:101480001148FFF711F9F8211048FFF70DF90E4840
:10149000FFF7AAF800BF0E4800780028FBD1FFF73D
:1014A0000FF90FE000BF0A4800780028FBD10120A7
:1014B0000849087000BF074800780028FBD1C82001
:1014C000FFF7D2FAEEE70000000000C0005802C0AB
:1014D0000C0000200F0000202DE9F04103460D46CE
:1014E000164600240027A0462A48006800F4E06061
:1014F000B0F5E06F03D100BF4FF0040830E025489D
:10150000006800F4E060B0F5C06F03D101274FF030
:10151000030825E01F48006800F4E060B0F5A06F04
:1015200002D10227B8461BE01A48006800F4E060C8
:10153000B0F5806F03D103274FF0010810E0154884
:10154000006800F4E060B0F5407F03D104274FF05D
:10155000000805E04FF4A06000F020F80227B8462C
:10156000C7F1040005FA00F4C8F104010F20C840D7
:101570003040044324010848C45403F01F010120F3
:1015800088405911890001F1E021C1F80001BDE84E
:10159000F08100000CED00E000E400E002490143AE
:1015A000024A1160704700000000FA050CED00E0EF
:1015B0002DE9F04F8CB0064600200A903EA090E83E
:1015C000004CC068CDE905BECDF810A007900FF221
:1015D000EC0ADAE9000ACDE9020A0FF2E00ADAE9D8
:1015E000000ACDE9000A38480068C0F381000B907A
:1015F0000B9820B1012804D0022828D103E03349F8
:1016000027E0334925E03048001F006800F03F071D
:101610002D48001F0068C0F3881C2B48001F00687D
:10162000C0F30140401C4FEA40092748001F0068F2
:1016300000F48008B8F5800F01D1254B00E0234B62
:10164000B3FBF7F000FB0CF0B0FBF9F101E01F4930
:1016500000BF00BF1C480068C0F3031404A8055D68
:1016600021FA05F218480068C0F3822402A8055D3B
:1016700022FA05F0099014480068C0F342341DF8BE
:10168000045022FA05F0089036B1012E06D0022E41
:1016900006D0032E0AD106E00A9108E00A9206E07D
:1016A00009980A9003E008980A9000E000BF00BF84
:1016B0000A980CB0BDE8F08F0000000000000000A8
:1016C0000102030406070809083802400024F40058
:1016D00040787D01074A02EB9011D1F8001800F024
:1016E0001F0301229A401143024B03EB9012C2F8F0
:1016F0000018704700300240074A02EB9011D1F801
:10170000001800F01F0301229A409143024B03EBA3
:101710009012C2F80018704700300240074A02EBEE
:101720009011D1F8001800F01F0301229A401143D4
:10173000024B03EB9012C2F80018704700300240D1
:101740006FF08071884205D1054909680140044A5B
:10175000116004E0024909680143014A11607047C1
:101760008C38024021B9426842F00202426003E034
:10177000426842F0010242607047016841F0400156
:10178000016070470146C86880B27047C160704709
:1017900002469068084008B1012070470020FCE72D
:1017A00002460020106800F441500B6818434B6853
:1017B00018438B681843CB6818430B6918434B696F
:1017C00018438B6918431060D36923F40063D36115
:1017D0007047000070B504460B46CD1701EB9575B8
:1017E000AD10A1EB8505AE000F25B540E843CD1740
:1017F00001EB9575AD10A1EB8505AD0004FA05F27E
:10180000CD1701EB9575AD1035B1012D0ED0022D20
:1018100018D0032D2ED121E0184B1B680340174D23
:101820002B602B461B6813432B6024E0134B1B1DBE
:101830001B680340114D2D1D2B602B461B68134365
:101840002B6018E00D4B08331B6803400B4D083527
:101850002B602B461B6813432B600CE0074B0C33AB
:101860001B680340054D0C352B602B461B6813434A
:101870002B6000E000BF00BF70BD000008380140D1
:10188000002000213A4A126842F48032384B1A6034
:1018900000BF401C364A126802F4003119B94FF6F5
:1018A000FF729042F5D1324A126802F400320AB94E
:1018B00000BFFEE72E4A4032126842F080522C4BA5
:1018C00040331A602B4A126842F44042294B1A6096
:1018D000274A08321268264B08331A601A461268E3
:1018E00042F400421A601A46126842F4A0521A608A
:1018F000214A1B1F1A601A1F126842F080721B1FB8
:101900001A6000BF1A4A126802F00072002AF9D069
:10191000184A126842F48032164B1A6000BF154A0A
:10192000526802F48032002AF9D0124A126842F456
:101930000032104B1A6000BF0E4A526802F40032A7
:10194000002AF9D00A4A0832126822F00302084B32
:1019500008331A601A46126842F002021A6000BF89
:10196000034A0832126802F00802002AF8D07047D1
:1019700000380240007000401964400910B5FFF7BC
:101980007FFF10BD10B5124800684FF47A71B0FBAC
:10199000F1F4601EB0F1807F01D301200FE0601EE2
:1019A0004FF0E02148610F214FF0FF30FEF7C0FEFD
:1019B00000204FF0E021886107200861002008B175
:1019C00000BFFEE70021481EFEF7B2FE10BD00007A
:1019D0000400002010B504465C49601A8C426FD0A8
:1019E00019DC5B49A4EB01008C424ED009DCB4F158
:1019F000804F2ED057482044A0B3B0F5806F72D1ED
:101A00003AE0B0F5806F49D0B0F5006F4FD0B0F537
:101A1000406FF4D17BE0B0F5923F5BD009DCB0F5CC
:101A2000806F73D0B0F5644F0AD0B0F5684F5AD1CB
:101A300047E0B0F5943F57D0B0F5963F53D15CE006
:101A40004FF41060FFF76AFE4FF41060FFF754FE8A
:101A500079E04FF40060FFF761FE4FF40060FFF79C
:101A60004BFE70E0FFE740F60100FFF757FE40F63F
:101A70000100FFF741FE66E040F60200FFF74EFE70
:101A800040F60200FFF738FE5DE040F60300FFF786
:101A900045FE40F60300FFF72FFE54E040F6040039
:101AA000FFF73CFE40F60400FFF726FE4BE040F651
:101AB0000500FFF733FE40F60500FFF71DFE42E08C
:101AC0002EE040F60110FFF729FE40F60110FFF767
:101AD00013FE38E04FF41160FFF720FE4FF4116061
:101AE000FFF70AFE2FE02DE040F61110FFF716FE7B
:101AF00040F61110FFF700FE25E040F61210FFF748
:101B00000DFE40F61210FFF7F7FD1CE011E040F665
:101B10000600FFF703FE40F60600FFF7EDFD12E0BA
:101B200040F60700FFF7FAFD40F60700FFF7E4FD77
:101B300009E040F60800FFF7F1FD40F60800FFF766
:101B4000DBFD00E000BF00BF10BD0000001C004036
:101B5000000C004000FCFFBF016841F00101016082
:101B6000704700000A8882621D4A90420ED0B0F190
:101B7000804F0BD01B4A904208D01B4A904205D0A0
:101B80001A4A904202D01A4A90420BD1026822F0BF
:101B90007002026002684B881A43026002688B88F8
:101BA0001A4302608A68C262124A90420AD0124AFC
:101BB000904207D0026822F4407202600268CB882B
:101BC0001A430260064A904202D0094A904201D16B
:101BD0000A7B0263426942F00102426170470000E1
:101BE000000001400004004000080040000C0040DC
:101BF000000401400010004000140040C2680A4385
:101C0000C2607047CA43026170470246D06800EA6A
:101C100001031069084010B10BB10120704700208A
:101C2000FCE7426822F07002426042680A43426068
:101C3000704700002DE9F04704460D460027B846DE
:101C4000B94600263349601A8C4235D00CDC324844
:101C50002044E8B1B0F5806F1FD0B0F5006F21D0FF
:101C6000B0F5406F32D122E0B0F5806F29D0B0F5E9
:101C7000184F03D0B0F51C4F28D104E00320FFF724
:101C800097FC074623E00320FFF792FC07461EE07F
:101C90000220FFF78DFC074619E00220FFF788FCC1
:101CA000074614E00220FFF783FC07460FE00220FE
:101CB000FFF77EFC07460AE00220FFF779FC0746A3
:101CC00005E00220FFF774FC074600E000BF00BFFC
:101CD000E06800F4004070B1780000EB5500B0FB04
:101CE000F5F64FF6F07006EA0008C6F3420948EA36
:101CF0000900A0600CE007EB5500B0FBF5F64FF6CD
:101D0000F07006EA000806F00F0948EA0900A06032
:101D1000BDE8F0870078004000BCFFBFC1F30802B7
:101D20004260704710B504463349601A8C424DD06A
:101D30000CDC32482044E0B1B0F5806F22D0B0F521
:101D4000006F31D0B0F5406F52D136E0B0F5806F02
:101D500045D0B0F5184F03D0B0F51C4F48D11AE06C
:101D600040F60410FFF7DAFC40F60410FFF7C4FC5D
:101D70003FE040F61100FFF7D1FC40F61100FFF7FD
:101D8000BBFC36E040F61200FFF7C8FC40F612003C
:101D9000FFF7B2FC2DE040F60510FFF7BFFC40F660
:101DA0000510FFF7A9FC24E040F61300FFF7B6FC8E
:101DB00040F61300FFF7A0FC1BE040F61400FFF70D
:101DC000ADFC40F61400FFF797FC12E040F61E0051
:101DD000FFF7A4FC40F61E00FFF78EFC09E040F67A
:101DE0001F00FFF79BFC40F61F00FFF785FC00E09B
:101DF00000BF00BF10BD00000078004000BCFFBF66
:101E0000C16841F40051C160704710B5024602EB51
:101E10009110006801F01F040123A340184008B18D
:101E2000012010BD0020FCE710B504464FF44060CF
:101E3000FFF750FC4FF44060FFF74CFC41F20410F8
:101E4000FFF748FC4FF4007207212048FFF700FA23
:101E50004FF4806207211D48FFF7FAF94FF4007331
:101E6000012202211948FFF730FA4FF48063012262
:101E700002211648FFF729FA4FF4007302220021CD
:101E80001248FFF749FA4FF48063022200210F48FD
:101E9000FFF742FA0E48FFF745FF21460C48FFF7CF
:101EA000C9FE00210A4800F015F80021084800F09A
:101EB00039F80021064800F025F80548FFF7A0FF93
:101EC0000821034800F026F810BD00000000024081
:101ED00000100140C26822F4C062C260C2680A43B6
:101EE000C260704710B5044621460548FFF716FF4B
:101EF00000BF07210248FFF788FF0028F9D010BD76
:101F000000100140026922F44052026102690A4352
:101F1000026170470A460021C16821F0080111439F
:101F2000C1607047C26822F48052C260C2680A432E
:101F3000C2607047541F0008000000201400000019
:101F4000280A0008681F000814000020040400008C
:101F5000380A00080000000000C2EB0B000000007F
:081F6000000000000000000079
:04000005080001AD41
:00000001FF
