Component: ARM Compiler 5.06 update 7 (build 960) Tool: armlink [4d3601]

==============================================================================

Section Cross References

    systick.o(i.delay_1ms) refers to systick.o(.data) for delay
    systick.o(i.delay_decrement) refers to systick.o(.data) for delay
    systick.o(i.systick_config) refers to systick.o(i.NVIC_SetPriority) for NVIC_SetPriority
    systick.o(i.systick_config) refers to system_gd32f4xx.o(.data) for SystemCoreClock
    main.o(i.TIMER3_IRQHandler) refers to gd32f4xx_gpio.o(i.gpio_bit_toggle) for gpio_bit_toggle
    main.o(i.TIMER3_IRQHandler) refers to gd32f4xx_timer.o(i.timer_interrupt_flag_clear) for timer_interrupt_flag_clear
    main.o(i.TIMER3_IRQHandler) refers to bsp_lcd.o(i.LCD_Show_Gram) for LCD_Show_Gram
    main.o(i.TIMER3_IRQHandler) refers to bsp_gui.o(.data) for Show_Star
    main.o(i.TIMER3_IRQHandler) refers to bsp_gui.o(.ARM.__AT_0xC0000000) for Show_GramA
    main.o(i.TIMER3_IRQHandler) refers to bsp_gui.o(.ARM.__AT_0xC0025800) for Show_GramB
    main.o(i.main) refers to gd32f4xx_misc.o(i.nvic_priority_group_set) for nvic_priority_group_set
    main.o(i.main) refers to systick.o(i.systick_config) for systick_config
    main.o(i.main) refers to bsp_led.o(i.led_gpio_config) for led_gpio_config
    main.o(i.main) refers to bsp_key.o(i.key_gpio_config) for key_gpio_config
    main.o(i.main) refers to bsp_usart.o(i.usart_gpio_config) for usart_gpio_config
    main.o(i.main) refers to exmc_sdram.o(i.exmc_synchronous_dynamic_ram_init) for exmc_synchronous_dynamic_ram_init
    main.o(i.main) refers to bsp_gui.o(i.Lcd_Show_Time) for Lcd_Show_Time
    main.o(i.main) refers to bsp_dac.o(i.dac_config) for dac_config
==============================================================================

Removing Unused input sections from the image.

    Removing systick.o(.rev16_text), (4 bytes).
    Removing systick.o(.revsh_text), (4 bytes).
    Removing main.o(.rev16_text), (4 bytes).
    Removing main.o(.revsh_text), (4 bytes).
    Removing gd32f4xx_it.o(.rev16_text), (4 bytes).
    Removing gd32f4xx_it.o(.revsh_text), (4 bytes).
    Removing sys.o(.rev16_text), (4 bytes).
    Removing sys.o(.revsh_text), (4 bytes).
    Removing system_gd32f4xx.o(.rev16_text), (4 bytes).
    Removing system_gd32f4xx.o(.revsh_text), (4 bytes).
    Removing system_gd32f4xx.o(i.SystemCoreClockUpdate), (272 bytes).
    Removing startup_gd32f450_470.o(HEAP), (1024 bytes).
    Removing bsp_led.o(.rev16_text), (4 bytes).
    Removing bsp_led.o(.revsh_text), (4 bytes).
    Removing bsp_usart.o(.rev16_text), (4 bytes).
    Removing bsp_usart.o(.revsh_text), (4 bytes).
    Removing bsp_usart.o(i.usart_send_string), (24 bytes).
    Removing bsp_key.o(.rev16_text), (4 bytes).
==============================================================================

Image Symbol Table

    Local Symbols

    Symbol Name                              Value     Ov Type        Size  Object(Section)

    ../clib/microlib/division.c              0x00000000   Number         0  uidiv.o ABSOLUTE
    ../clib/microlib/division.c              0x00000000   Number         0  uldiv.o ABSOLUTE
    ../clib/microlib/init/entry.s            0x00000000   Number         0  entry8b.o ABSOLUTE
    ../clib/microlib/init/entry.s            0x00000000   Number         0  entry9b.o ABSOLUTE
    ../clib/microlib/init/entry.s            0x00000000   Number         0  entry9a.o ABSOLUTE
    ../clib/microlib/init/entry.s            0x00000000   Number         0  entry12a.o ABSOLUTE
    ../clib/microlib/init/entry.s            0x00000000   Number         0  entry10a.o ABSOLUTE
    ../clib/microlib/init/entry.s            0x00000000   Number         0  entry11b.o ABSOLUTE
    ../clib/microlib/init/entry.s            0x00000000   Number         0  entry8a.o ABSOLUTE
    ../clib/microlib/init/entry.s            0x00000000   Number         0  entry12b.o ABSOLUTE
    ../clib/microlib/init/entry.s            0x00000000   Number         0  entry7b.o ABSOLUTE
    ../clib/microlib/init/entry.s            0x00000000   Number         0  entry2.o ABSOLUTE
    ../clib/microlib/init/entry.s            0x00000000   Number         0  entry5.o ABSOLUTE
    ../clib/microlib/init/entry.s            0x00000000   Number         0  entry.o ABSOLUTE
    ../clib/microlib/init/entry.s            0x00000000   Number         0  entry10b.o ABSOLUTE
    ../clib/microlib/init/entry.s            0x00000000   Number         0  entry7a.o ABSOLUTE
    ../clib/microlib/init/entry.s            0x00000000   Number         0  entry11a.o ABSOLUTE
    ../clib/microlib/longlong.c              0x00000000   Number         0  llsshr.o ABSOLUTE
    ../clib/microlib/longlong.c              0x00000000   Number         0  llushr.o ABSOLUTE
    ../clib/microlib/longlong.c              0x00000000   Number         0  llshl.o ABSOLUTE
    ../clib/microlib/printf/printf.c         0x00000000   Number         0  printfb.o ABSOLUTE
    ../clib/microlib/printf/printf.c         0x00000000   Number         0  printf6.o ABSOLUTE
    ../clib/microlib/printf/printf.c         0x00000000   Number         0  printf5.o ABSOLUTE
    ../clib/microlib/printf/printf.c         0x00000000   Number         0  printf4.o ABSOLUTE
    ../clib/microlib/printf/printf.c         0x00000000   Number         0  printf3.o ABSOLUTE
    ../clib/microlib/printf/printf.c         0x00000000   Number         0  printf2.o ABSOLUTE
    ../clib/microlib/printf/printf.c         0x00000000   Number         0  printf1.o ABSOLUTE
    ../clib/microlib/printf/printf.c         0x00000000   Number         0  printf0.o ABSOLUTE
    ../clib/microlib/printf/printf.c         0x00000000   Number         0  printfa.o ABSOLUTE
    ../clib/microlib/printf/printf.c         0x00000000   Number         0  printf8.o ABSOLUTE
    ../clib/microlib/printf/printf.c         0x00000000   Number         0  printf7.o ABSOLUTE
    ../clib/microlib/stdio/streams.c         0x00000000   Number         0  stdout.o ABSOLUTE
    ../clib/microlib/stubs.s                 0x00000000   Number         0  iusefp.o ABSOLUTE
    ../fplib/microlib/fpadd.c                0x00000000   Number         0  dadd.o ABSOLUTE
    ../fplib/microlib/fpdiv.c                0x00000000   Number         0  ddiv.o ABSOLUTE
    ../fplib/microlib/fpepilogue.c           0x00000000   Number         0  depilogue.o ABSOLUTE
    ../fplib/microlib/fpfix.c                0x00000000   Number         0  dfixul.o ABSOLUTE
    ../fplib/microlib/fpmul.c                0x00000000   Number         0  dmul.o ABSOLUTE
    ..\Firmware\CMSIS\GD\GD32F4xx\Source\ARM\startup_gd32f450_470.s 0x00000000   Number         0  startup_gd32f450_470.o ABSOLUTE
    ..\Firmware\CMSIS\GD\GD32F4xx\Source\system_gd32f4xx.c 0x00000000   Number         0  system_gd32f4xx.o ABSOLUTE
    ..\Firmware\GD32F4xx_standard_peripheral\Source\gd32f4xx_dac.c 0x00000000   Number         0  gd32f4xx_dac.o ABSOLUTE
    ..\Firmware\GD32F4xx_standard_peripheral\Source\gd32f4xx_dma.c 0x00000000   Number         0  gd32f4xx_dma.o ABSOLUTE
    ..\Firmware\GD32F4xx_standard_peripheral\Source\gd32f4xx_exmc.c 0x00000000   Number         0  gd32f4xx_exmc.o ABSOLUTE
    ..\Firmware\GD32F4xx_standard_peripheral\Source\gd32f4xx_exti.c 0x00000000   Number         0  gd32f4xx_exti.o ABSOLUTE
    ..\Firmware\GD32F4xx_standard_peripheral\Source\gd32f4xx_gpio.c 0x00000000   Number         0  gd32f4xx_gpio.o ABSOLUTE
    ..\Firmware\GD32F4xx_standard_peripheral\Source\gd32f4xx_misc.c 0x00000000   Number         0  gd32f4xx_misc.o ABSOLUTE
    ..\Firmware\GD32F4xx_standard_peripheral\Source\gd32f4xx_rcu.c 0x00000000   Number         0  gd32f4xx_rcu.o ABSOLUTE
    ..\Firmware\GD32F4xx_standard_peripheral\Source\gd32f4xx_spi.c 0x00000000   Number         0  gd32f4xx_spi.o ABSOLUTE
    ..\Firmware\GD32F4xx_standard_peripheral\Source\gd32f4xx_syscfg.c 0x00000000   Number         0  gd32f4xx_syscfg.o ABSOLUTE
    ..\Firmware\GD32F4xx_standard_peripheral\Source\gd32f4xx_timer.c 0x00000000   Number         0  gd32f4xx_timer.o ABSOLUTE
    ..\Firmware\GD32F4xx_standard_peripheral\Source\gd32f4xx_usart.c 0x00000000   Number         0  gd32f4xx_usart.o ABSOLUTE
    ..\Hardware\SDRAM\exmc_sdram.c           0x00000000   Number         0  exmc_sdram.o ABSOLUTE
    ..\Hardware\dac\bsp_dac.c                0x00000000   Number         0  bsp_dac.o ABSOLUTE
    ..\Hardware\key\bsp_key.c                0x00000000   Number         0  bsp_key.o ABSOLUTE
    ..\Hardware\lcd\bsp_gui.c                0x00000000   Number         0  bsp_gui.o ABSOLUTE
    ..\Hardware\lcd\bsp_lcd.c                0x00000000   Number         0  bsp_lcd.o ABSOLUTE
    ..\Hardware\lcd\bsp_spi.c                0x00000000   Number         0  bsp_spi.o ABSOLUTE
    ..\Hardware\led\bsp_led.c                0x00000000   Number         0  bsp_led.o ABSOLUTE
    ..\Hardware\timer\bsp_basic_timer.c      0x00000000   Number         0  bsp_basic_timer.o ABSOLUTE
    ..\Hardware\usart\bsp_usart.c            0x00000000   Number         0  bsp_usart.o ABSOLUTE
    ..\User\gd32f4xx_it.c                    0x00000000   Number         0  gd32f4xx_it.o ABSOLUTE
    ..\User\main.c                           0x00000000   Number         0  main.o ABSOLUTE
    ..\User\sys.c                            0x00000000   Number         0  sys.o ABSOLUTE
    ..\User\systick.c                        0x00000000   Number         0  systick.o ABSOLUTE
    ..\\Firmware\\CMSIS\\GD\\GD32F4xx\\Source\\system_gd32f4xx.c 0x00000000   Number         0  system_gd32f4xx.o ABSOLUTE
    ..\\Firmware\\GD32F4xx_standard_peripheral\\Source\\gd32f4xx_dac.c 0x00000000   Number         0  gd32f4xx_dac.o ABSOLUTE
    ..\\Firmware\\GD32F4xx_standard_peripheral\\Source\\gd32f4xx_dma.c 0x00000000   Number         0  gd32f4xx_dma.o ABSOLUTE
    ..\\Firmware\\GD32F4xx_standard_peripheral\\Source\\gd32f4xx_exmc.c 0x00000000   Number         0  gd32f4xx_exmc.o ABSOLUTE
    ..\\Firmware\\GD32F4xx_standard_peripheral\\Source\\gd32f4xx_exti.c 0x00000000   Number         0  gd32f4xx_exti.o ABSOLUTE
    ..\\Firmware\\GD32F4xx_standard_peripheral\\Source\\gd32f4xx_gpio.c 0x00000000   Number         0  gd32f4xx_gpio.o ABSOLUTE
    ..\\Firmware\\GD32F4xx_standard_peripheral\\Source\\gd32f4xx_misc.c 0x00000000   Number         0  gd32f4xx_misc.o ABSOLUTE
    ..\\Firmware\\GD32F4xx_standard_peripheral\\Source\\gd32f4xx_rcu.c 0x00000000   Number         0  gd32f4xx_rcu.o ABSOLUTE
    ..\\Firmware\\GD32F4xx_standard_peripheral\\Source\\gd32f4xx_spi.c 0x00000000   Number         0  gd32f4xx_spi.o ABSOLUTE
    ..\\Firmware\\GD32F4xx_standard_peripheral\\Source\\gd32f4xx_syscfg.c 0x00000000   Number         0  gd32f4xx_syscfg.o ABSOLUTE
    ..\\Firmware\\GD32F4xx_standard_peripheral\\Source\\gd32f4xx_timer.c 0x00000000   Number         0  gd32f4xx_timer.o ABSOLUTE
    ..\\Firmware\\GD32F4xx_standard_peripheral\\Source\\gd32f4xx_usart.c 0x00000000   Number         0  gd32f4xx_usart.o ABSOLUTE
    ..\\Hardware\\SDRAM\\exmc_sdram.c        0x00000000   Number         0  exmc_sdram.o ABSOLUTE
    ..\\Hardware\\dac\\bsp_dac.c             0x00000000   Number         0  bsp_dac.o ABSOLUTE
    ..\\Hardware\\key\\bsp_key.c             0x00000000   Number         0  bsp_key.o ABSOLUTE
    ..\\Hardware\\lcd\\bsp_gui.c             0x00000000   Number         0  bsp_gui.o ABSOLUTE
    ..\\Hardware\\lcd\\bsp_lcd.c             0x00000000   Number         0  bsp_lcd.o ABSOLUTE
    ..\\Hardware\\lcd\\bsp_spi.c             0x00000000   Number         0  bsp_spi.o ABSOLUTE
    ..\\Hardware\\led\\bsp_led.c             0x00000000   Number         0  bsp_led.o ABSOLUTE
    ..\\Hardware\\timer\\bsp_basic_timer.c   0x00000000   Number         0  bsp_basic_timer.o ABSOLUTE
    ..\\Hardware\\usart\\bsp_usart.c         0x00000000   Number         0  bsp_usart.o ABSOLUTE
    ..\\User\\gd32f4xx_it.c                  0x00000000   Number         0  gd32f4xx_it.o ABSOLUTE
    ..\\User\\main.c                         0x00000000   Number         0  main.o ABSOLUTE
    ..\\User\\sys.c                          0x00000000   Number         0  sys.o ABSOLUTE
    ..\\User\\systick.c                      0x00000000   Number         0  systick.o ABSOLUTE
    cdrcmple.s                               0x00000000   Number         0  cdrcmple.o ABSOLUTE
    dc.s                                     0x00000000   Number         0  dc.o ABSOLUTE
    handlers.s                               0x00000000   Number         0  handlers.o ABSOLUTE
    init.s                                   0x00000000   Number         0  init.o ABSOLUTE
    RESET                                    0x08000000   Section      428  startup_gd32f450_470.o(RESET)
    .ARM.Collect$$$$00000000                 0x080001ac   Section        0  entry.o(.ARM.Collect$$$$00000000)
    .ARM.Collect$$$$00000001                 0x080001ac   Section        4  entry2.o(.ARM.Collect$$$$00000001)
    .ARM.Collect$$$$00000004                 0x080001b0   Section        4  entry5.o(.ARM.Collect$$$$00000004)
    .ARM.Collect$$$$00000008                 0x080001b4   Section        0  entry7b.o(.ARM.Collect$$$$00000008)
    .ARM.Collect$$$$0000000A                 0x080001b4   Section        0  entry8b.o(.ARM.Collect$$$$0000000A)
    .ARM.Collect$$$$0000000B                 0x080001b4   Section        8  entry9a.o(.ARM.Collect$$$$0000000B)
    .ARM.Collect$$$$0000000E                 0x080001bc   Section        4  entry12b.o(.ARM.Collect$$$$0000000E)
    .ARM.Collect$$$$0000000F                 0x080001c0   Section        0  entry10a.o(.ARM.Collect$$$$0000000F)
    .ARM.Collect$$$$00000011                 0x080001c0   Section        0  entry11a.o(.ARM.Collect$$$$00000011)
    .ARM.Collect$$$$00002712                 0x080001c0   Section        4  entry2.o(.ARM.Collect$$$$00002712)
    __lit__00000000                          0x080001c0   Data           4  entry2.o(.ARM.Collect$$$$00002712)
    .text                                    0x080001c4   Section       36  startup_gd32f450_470.o(.text)
    $v0                                      0x080001c4   Number         0  startup_gd32f450_470.o(.text)
    .text                                    0x080001e8   Section       36  init.o(.text)
    i.BusFault_Handler                       0x0800020c   Section        0  gd32f4xx_it.o(i.BusFault_Handler)
    i.DMA0_Channel5_IRQHandler               0x08000210   Section        0  bsp_lcd.o(i.DMA0_Channel5_IRQHandler)
    i.Dac_Show_Wav                           0x080002a8   Section        0  bsp_dac.o(i.Dac_Show_Wav)
    i.Dac_Time_Hz                            0x080002dc   Section        0  bsp_dac.o(i.Dac_Time_Hz)
    i.DebugMon_Handler                       0x0800033c   Section        0  gd32f4xx_it.o(i.DebugMon_Handler)
    i.EXTI0_IRQHandler                       0x08000340   Section        0  bsp_key.o(i.EXTI0_IRQHandler)
    i.HardFault_Handler                      0x08000394   Section        0  gd32f4xx_it.o(i.HardFault_Handler)
    i.LCD_Address_Set                        0x08000398   Section        0  bsp_lcd.o(i.LCD_Address_Set)
    i.LCD_Show_Gram                          0x080003d4   Section        0  bsp_lcd.o(i.LCD_Show_Gram)
    i.LCD_WR_DATA                            0x08000434   Section        0  bsp_lcd.o(i.LCD_WR_DATA)
    i.LCD_WR_REG                             0x08000448   Section        0  bsp_lcd.o(i.LCD_WR_REG)
    i.LCD_Writ_Bus                           0x08000468   Section        0  bsp_lcd.o(i.LCD_Writ_Bus)
    i.Lcd_Show_Time                          0x08000488   Section        0  bsp_gui.o(i.Lcd_Show_Time)
    i.MemManage_Handler                      0x080004e8   Section        0  gd32f4xx_it.o(i.MemManage_Handler)
    i.NMI_Handler                            0x080004ec   Section        0  gd32f4xx_it.o(i.NMI_Handler)
    i.NVIC_SetPriority                       0x080004f0   Section        0  systick.o(i.NVIC_SetPriority)
    NVIC_SetPriority                         0x080004f1   Thumb Code    32  systick.o(i.NVIC_SetPriority)
    i.PendSV_Handler                         0x08000518   Section        0  gd32f4xx_it.o(i.PendSV_Handler)
    i.SVC_Handler                            0x0800051a   Section        0  gd32f4xx_it.o(i.SVC_Handler)
    i.Spi2_ReadWriteByte                     0x0800051c   Section        0  bsp_spi.o(i.Spi2_ReadWriteByte)
    i.SysTick_Handler                        0x08000560   Section        0  gd32f4xx_it.o(i.SysTick_Handler)
    i.SystemInit                             0x08000568   Section        0  system_gd32f4xx.o(i.SystemInit)
    i.TIMER3_IRQHandler                      0x08000630   Section        0  main.o(i.TIMER3_IRQHandler)
    i.TIMER5_DAC_IRQHandler                  0x0800068c   Section        0  bsp_basic_timer.o(i.TIMER5_DAC_IRQHandler)
    i.UsageFault_Handler                     0x080006c8   Section        0  gd32f4xx_it.o(i.UsageFault_Handler)
    i.__0printf$bare                         0x080006cc   Section        0  printfb.o(i.__0printf$bare)
    i.__scatterload_copy                     0x080006dc   Section       14  handlers.o(i.__scatterload_copy)
    i.__scatterload_null                     0x080006ea   Section        2  handlers.o(i.__scatterload_null)
    i.__scatterload_zeroinit                 0x080006ec   Section       14  handlers.o(i.__scatterload_zeroinit)
    i._printf_core                           0x080006fa   Section        0  printfb.o(i._printf_core)
    _printf_core                             0x080006fb   Thumb Code    34  printfb.o(i._printf_core)
    i.dac_config                             0x0800071c   Section        0  bsp_dac.o(i.dac_config)
    i.dac_deinit                             0x080007f0   Section        0  gd32f4xx_dac.o(i.dac_deinit)
    i.dac_dma_enable                         0x08000804   Section        0  gd32f4xx_dac.o(i.dac_dma_enable)
    i.dac_enable                             0x08000828   Section        0  gd32f4xx_dac.o(i.dac_enable)
    i.dac_output_buffer_enable               0x0800084c   Section        0  gd32f4xx_dac.o(i.dac_output_buffer_enable)
    i.dac_trigger_enable                     0x08000870   Section        0  gd32f4xx_dac.o(i.dac_trigger_enable)
    i.dac_trigger_source_config              0x08000894   Section        0  gd32f4xx_dac.o(i.dac_trigger_source_config)
    i.dac_wave_mode_config                   0x080008c8   Section        0  gd32f4xx_dac.o(i.dac_wave_mode_config)
    i.delay_1ms                              0x080008fc   Section        0  systick.o(i.delay_1ms)
    i.delay_decrement                        0x08000910   Section        0  systick.o(i.delay_decrement)
    i.dma_channel_enable                     0x08000928   Section        0  gd32f4xx_dma.o(i.dma_channel_enable)
    i.dma_channel_subperipheral_select       0x08000948   Section        0  gd32f4xx_dma.o(i.dma_channel_subperipheral_select)
    i.dma_interrupt_flag_clear               0x0800096e   Section        0  gd32f4xx_dma.o(i.dma_interrupt_flag_clear)
    i.dma_single_data_mode_init              0x080009ac   Section        0  gd32f4xx_dma.o(i.dma_single_data_mode_init)
    i.exmc_flag_get                          0x08000b04   Section        0  gd32f4xx_exmc.o(i.exmc_flag_get)
    i.exmc_sdram_command_config              0x08000b38   Section        0  gd32f4xx_exmc.o(i.exmc_sdram_command_config)
    i.exmc_sdram_init                        0x08000b54   Section        0  gd32f4xx_exmc.o(i.exmc_sdram_init)
    i.exmc_sdram_refresh_count_set           0x08000c6c   Section        0  gd32f4xx_exmc.o(i.exmc_sdram_refresh_count_set)
    i.exmc_synchronous_dynamic_ram_init      0x08000c90   Section        0  exmc_sdram.o(i.exmc_synchronous_dynamic_ram_init)
    i.exti_init                              0x08000ef4   Section        0  gd32f4xx_exti.o(i.exti_init)
    i.exti_interrupt_enable                  0x08000fb0   Section        0  gd32f4xx_exti.o(i.exti_interrupt_enable)
    i.exti_interrupt_flag_clear              0x08000fc0   Section        0  gd32f4xx_exti.o(i.exti_interrupt_flag_clear)
    i.exti_interrupt_flag_get                0x08000fcc   Section        0  gd32f4xx_exti.o(i.exti_interrupt_flag_get)
    i.fputc                                  0x08000ff0   Section        0  bsp_usart.o(i.fputc)
    i.gpio_af_set                            0x08001000   Section        0  gd32f4xx_gpio.o(i.gpio_af_set)
    i.gpio_bit_reset                         0x0800105e   Section        0  gd32f4xx_gpio.o(i.gpio_bit_reset)
    i.gpio_bit_set                           0x08001062   Section        0  gd32f4xx_gpio.o(i.gpio_bit_set)
    i.gpio_bit_toggle                        0x08001066   Section        0  gd32f4xx_gpio.o(i.gpio_bit_toggle)
    i.gpio_input_bit_get                     0x0800106a   Section        0  gd32f4xx_gpio.o(i.gpio_input_bit_get)
    i.gpio_mode_set                          0x0800107a   Section        0  gd32f4xx_gpio.o(i.gpio_mode_set)
    i.gpio_output_options_set                0x080010c8   Section        0  gd32f4xx_gpio.o(i.gpio_output_options_set)
    i.key_gpio_config                        0x0800110c   Section        0  bsp_key.o(i.key_gpio_config)
    i.led_gpio_config                        0x08001158   Section        0  bsp_led.o(i.led_gpio_config)
    i.main                                   0x080011ec   Section        0  main.o(i.main)
    i.nvic_irq_enable                        0x08001230   Section        0  gd32f4xx_misc.o(i.nvic_irq_enable)
    i.nvic_priority_group_set                0x080012f4   Section        0  gd32f4xx_misc.o(i.nvic_priority_group_set)
    i.rcu_clock_freq_get                     0x08001308   Section        0  gd32f4xx_rcu.o(i.rcu_clock_freq_get)
    i.rcu_periph_clock_enable                0x0800142c   Section        0  gd32f4xx_rcu.o(i.rcu_periph_clock_enable)
    i.rcu_periph_reset_disable               0x08001450   Section        0  gd32f4xx_rcu.o(i.rcu_periph_reset_disable)
    i.rcu_periph_reset_enable                0x08001474   Section        0  gd32f4xx_rcu.o(i.rcu_periph_reset_enable)
    i.rcu_timer_clock_prescaler_config       0x08001498   Section        0  gd32f4xx_rcu.o(i.rcu_timer_clock_prescaler_config)
    i.spi_i2s_data_receive                   0x080014bc   Section        0  gd32f4xx_spi.o(i.spi_i2s_data_receive)
    i.spi_i2s_data_transmit                  0x080014c4   Section        0  gd32f4xx_spi.o(i.spi_i2s_data_transmit)
    i.spi_i2s_flag_get                       0x080014c8   Section        0  gd32f4xx_spi.o(i.spi_i2s_flag_get)
    i.syscfg_exti_line_config                0x080014d8   Section        0  gd32f4xx_syscfg.o(i.syscfg_exti_line_config)
    i.system_clock_200m_25m_hxtal            0x08001584   Section        0  system_gd32f4xx.o(i.system_clock_200m_25m_hxtal)
    system_clock_200m_25m_hxtal              0x08001585   Thumb Code   240  system_gd32f4xx.o(i.system_clock_200m_25m_hxtal)
    i.system_clock_config                    0x08001680   Section        0  system_gd32f4xx.o(i.system_clock_config)
    system_clock_config                      0x08001681   Thumb Code     8  system_gd32f4xx.o(i.system_clock_config)
    i.systick_config                         0x08001688   Section        0  systick.o(i.systick_config)
    i.timer_autoreload_value_config          0x080016d8   Section        0  gd32f4xx_timer.o(i.timer_autoreload_value_config)
    i.timer_deinit                           0x080016dc   Section        0  gd32f4xx_timer.o(i.timer_deinit)
    i.timer_enable                           0x08001860   Section        0  gd32f4xx_timer.o(i.timer_enable)
    i.timer_init                             0x0800186c   Section        0  gd32f4xx_timer.o(i.timer_init)
    i.timer_interrupt_enable                 0x08001904   Section        0  gd32f4xx_timer.o(i.timer_interrupt_enable)
    i.timer_interrupt_flag_clear             0x0800190c   Section        0  gd32f4xx_timer.o(i.timer_interrupt_flag_clear)
    i.timer_interrupt_flag_get               0x08001912   Section        0  gd32f4xx_timer.o(i.timer_interrupt_flag_get)
    i.timer_master_output_trigger_source_select 0x0800192a   Section        0  gd32f4xx_timer.o(i.timer_master_output_trigger_source_select)
    i.timer_prescaler_config                 0x0800193a   Section        0  gd32f4xx_timer.o(i.timer_prescaler_config)
    i.usart_baudrate_set                     0x08001948   Section        0  gd32f4xx_usart.o(i.usart_baudrate_set)
    i.usart_data_transmit                    0x08001a30   Section        0  gd32f4xx_usart.o(i.usart_data_transmit)
    i.usart_deinit                           0x08001a38   Section        0  gd32f4xx_usart.o(i.usart_deinit)
    i.usart_enable                           0x08001b14   Section        0  gd32f4xx_usart.o(i.usart_enable)
    i.usart_flag_get                         0x08001b1e   Section        0  gd32f4xx_usart.o(i.usart_flag_get)
    i.usart_gpio_config                      0x08001b3c   Section        0  bsp_usart.o(i.usart_gpio_config)
    i.usart_parity_config                    0x08001be8   Section        0  gd32f4xx_usart.o(i.usart_parity_config)
    i.usart_send_data                        0x08001bf8   Section        0  bsp_usart.o(i.usart_send_data)
    i.usart_stop_bit_set                     0x08001c18   Section        0  gd32f4xx_usart.o(i.usart_stop_bit_set)
    i.usart_transmit_config                  0x08001c28   Section        0  gd32f4xx_usart.o(i.usart_transmit_config)
    i.usart_word_length_set                  0x08001c38   Section        0  gd32f4xx_usart.o(i.usart_word_length_set)
    .constdata                               0x08001c48   Section      500  bsp_dac.o(.constdata)
    .data                                    0x20000000   Section        4  systick.o(.data)
    delay                                    0x20000000   Data           4  systick.o(.data)
    .data                                    0x20000004   Section        4  system_gd32f4xx.o(.data)
    .data                                    0x20000008   Section        6  bsp_lcd.o(.data)
    Show_Number                              0x2000000d   Data           1  bsp_lcd.o(.data)
    .data                                    0x2000000e   Section        2  bsp_gui.o(.data)
    .data                                    0x20000010   Section        4  stdout.o(.data)
    .bss                                     0x20000014   Section      100  bsp_dac.o(.bss)
    STACK                                    0x20000078   Section     1024  startup_gd32f450_470.o(STACK)
    .ARM.__AT_0xC0000000                     0xc0000000   Section    153600  bsp_gui.o(.ARM.__AT_0xC0000000)
    .ARM.__AT_0xC0025800                     0xc0025800   Section    153600  bsp_gui.o(.ARM.__AT_0xC0025800)

    Global Symbols

    Symbol Name                              Value     Ov Type        Size  Object(Section)

    BuildAttributes$$THM_ISAv4$E$P$D$K$B$S$7EM$VFPi3$EXTD16$VFPS$VFMA$PE$A:L22UL41UL21$X:L11$S22US41US21$IEEE1$IW$USESV6$~STKCKD$USESV7$~SHL$OSPACE$ROPI$EBA8$MICROLIB$REQ8$PRES8$EABIv2 0x00000000   Number         0  anon$$obj.o ABSOLUTE
    __ARM_use_no_argv                        0x00000000   Number         0  main.o ABSOLUTE
    __arm_fini_                               - Undefined Weak Reference
    __cpp_initialize__aeabi_                  - Undefined Weak Reference
    __cxa_finalize                            - Undefined Weak Reference
    __decompress                              - Undefined Weak Reference
    _clock_init                               - Undefined Weak Reference
    _microlib_exit                            - Undefined Weak Reference
    __Vectors_Size                           0x000001ac   Number         0  startup_gd32f450_470.o ABSOLUTE
    __Vectors                                0x08000000   Data           4  startup_gd32f450_470.o(RESET)
    __Vectors_End                            0x080001ac   Data           0  startup_gd32f450_470.o(RESET)
    __main                                   0x080001ad   Thumb Code     0  entry.o(.ARM.Collect$$$$00000000)
    _main_stk                                0x080001ad   Thumb Code     0  entry2.o(.ARM.Collect$$$$00000001)
    _main_scatterload                        0x080001b1   Thumb Code     0  entry5.o(.ARM.Collect$$$$00000004)
    __main_after_scatterload                 0x080001b5   Thumb Code     0  entry5.o(.ARM.Collect$$$$00000004)
    _main_clock                              0x080001b5   Thumb Code     0  entry7b.o(.ARM.Collect$$$$00000008)
    _main_cpp_init                           0x080001b5   Thumb Code     0  entry8b.o(.ARM.Collect$$$$0000000A)
    _main_init                               0x080001b5   Thumb Code     0  entry9a.o(.ARM.Collect$$$$0000000B)
    __rt_lib_shutdown_fini                   0x080001bd   Thumb Code     0  entry12b.o(.ARM.Collect$$$$0000000E)
    __rt_final_cpp                           0x080001c1   Thumb Code     0  entry10a.o(.ARM.Collect$$$$0000000F)
    __rt_final_exit                          0x080001c1   Thumb Code     0  entry11a.o(.ARM.Collect$$$$00000011)
    Reset_Handler                            0x080001c5   Thumb Code     8  startup_gd32f450_470.o(.text)
    ADC_IRQHandler                           0x080001df   Thumb Code     0  startup_gd32f450_470.o(.text)
    CAN0_EWMC_IRQHandler                     0x080001df   Thumb Code     0  startup_gd32f450_470.o(.text)
    CAN0_RX0_IRQHandler                      0x080001df   Thumb Code     0  startup_gd32f450_470.o(.text)
    CAN0_RX1_IRQHandler                      0x080001df   Thumb Code     0  startup_gd32f450_470.o(.text)
    CAN0_TX_IRQHandler                       0x080001df   Thumb Code     0  startup_gd32f450_470.o(.text)
    CAN1_EWMC_IRQHandler                     0x080001df   Thumb Code     0  startup_gd32f450_470.o(.text)
    CAN1_RX0_IRQHandler                      0x080001df   Thumb Code     0  startup_gd32f450_470.o(.text)
    CAN1_RX1_IRQHandler                      0x080001df   Thumb Code     0  startup_gd32f450_470.o(.text)
    CAN1_TX_IRQHandler                       0x080001df   Thumb Code     0  startup_gd32f450_470.o(.text)
    DCI_IRQHandler                           0x080001df   Thumb Code     0  startup_gd32f450_470.o(.text)
    DMA0_Channel0_IRQHandler                 0x080001df   Thumb Code     0  startup_gd32f450_470.o(.text)
    DMA0_Channel1_IRQHandler                 0x080001df   Thumb Code     0  startup_gd32f450_470.o(.text)
    DMA0_Channel2_IRQHandler                 0x080001df   Thumb Code     0  startup_gd32f450_470.o(.text)
    DMA0_Channel3_IRQHandler                 0x080001df   Thumb Code     0  startup_gd32f450_470.o(.text)
    DMA0_Channel4_IRQHandler                 0x080001df   Thumb Code     0  startup_gd32f450_470.o(.text)
    DMA0_Channel6_IRQHandler                 0x080001df   Thumb Code     0  startup_gd32f450_470.o(.text)
    DMA0_Channel7_IRQHandler                 0x080001df   Thumb Code     0  startup_gd32f450_470.o(.text)
    DMA1_Channel0_IRQHandler                 0x080001df   Thumb Code     0  startup_gd32f450_470.o(.text)
    DMA1_Channel1_IRQHandler                 0x080001df   Thumb Code     0  startup_gd32f450_470.o(.text)
    DMA1_Channel2_IRQHandler                 0x080001df   Thumb Code     0  startup_gd32f450_470.o(.text)
    DMA1_Channel3_IRQHandler                 0x080001df   Thumb Code     0  startup_gd32f450_470.o(.text)
    DMA1_Channel4_IRQHandler                 0x080001df   Thumb Code     0  startup_gd32f450_470.o(.text)
    DMA1_Channel5_IRQHandler                 0x080001df   Thumb Code     0  startup_gd32f450_470.o(.text)
    DMA1_Channel6_IRQHandler                 0x080001df   Thumb Code     0  startup_gd32f450_470.o(.text)
    DMA1_Channel7_IRQHandler                 0x080001df   Thumb Code     0  startup_gd32f450_470.o(.text)
    ENET_IRQHandler                          0x080001df   Thumb Code     0  startup_gd32f450_470.o(.text)
    ENET_WKUP_IRQHandler                     0x080001df   Thumb Code     0  startup_gd32f450_470.o(.text)
    EXMC_IRQHandler                          0x080001df   Thumb Code     0  startup_gd32f450_470.o(.text)
    EXTI10_15_IRQHandler                     0x080001df   Thumb Code     0  startup_gd32f450_470.o(.text)
    EXTI1_IRQHandler                         0x080001df   Thumb Code     0  startup_gd32f450_470.o(.text)
    EXTI2_IRQHandler                         0x080001df   Thumb Code     0  startup_gd32f450_470.o(.text)
    EXTI3_IRQHandler                         0x080001df   Thumb Code     0  startup_gd32f450_470.o(.text)
    EXTI4_IRQHandler                         0x080001df   Thumb Code     0  startup_gd32f450_470.o(.text)
    EXTI5_9_IRQHandler                       0x080001df   Thumb Code     0  startup_gd32f450_470.o(.text)
    FMC_IRQHandler                           0x080001df   Thumb Code     0  startup_gd32f450_470.o(.text)
    FPU_IRQHandler                           0x080001df   Thumb Code     0  startup_gd32f450_470.o(.text)
    I2C0_ER_IRQHandler                       0x080001df   Thumb Code     0  startup_gd32f450_470.o(.text)
    I2C0_EV_IRQHandler                       0x080001df   Thumb Code     0  startup_gd32f450_470.o(.text)
    I2C1_ER_IRQHandler                       0x080001df   Thumb Code     0  startup_gd32f450_470.o(.text)
    I2C1_EV_IRQHandler                       0x080001df   Thumb Code     0  startup_gd32f450_470.o(.text)
    I2C2_ER_IRQHandler                       0x080001df   Thumb Code     0  startup_gd32f450_470.o(.text)
    I2C2_EV_IRQHandler                       0x080001df   Thumb Code     0  startup_gd32f450_470.o(.text)
    IPA_IRQHandler                           0x080001df   Thumb Code     0  startup_gd32f450_470.o(.text)
    LVD_IRQHandler                           0x080001df   Thumb Code     0  startup_gd32f450_470.o(.text)
    RCU_CTC_IRQHandler                       0x080001df   Thumb Code     0  startup_gd32f450_470.o(.text)
    RTC_Alarm_IRQHandler                     0x080001df   Thumb Code     0  startup_gd32f450_470.o(.text)
    RTC_WKUP_IRQHandler                      0x080001df   Thumb Code     0  startup_gd32f450_470.o(.text)
    SDIO_IRQHandler                          0x080001df   Thumb Code     0  startup_gd32f450_470.o(.text)
    SPI0_IRQHandler                          0x080001df   Thumb Code     0  startup_gd32f450_470.o(.text)
    SPI1_IRQHandler                          0x080001df   Thumb Code     0  startup_gd32f450_470.o(.text)
    SPI2_IRQHandler                          0x080001df   Thumb Code     0  startup_gd32f450_470.o(.text)
    SPI3_IRQHandler                          0x080001df   Thumb Code     0  startup_gd32f450_470.o(.text)
    SPI4_IRQHandler                          0x080001df   Thumb Code     0  startup_gd32f450_470.o(.text)
    SPI5_IRQHandler                          0x080001df   Thumb Code     0  startup_gd32f450_470.o(.text)
    TAMPER_STAMP_IRQHandler                  0x080001df   Thumb Code     0  startup_gd32f450_470.o(.text)
    TIMER0_BRK_TIMER8_IRQHandler             0x080001df   Thumb Code     0  startup_gd32f450_470.o(.text)
    TIMER0_Channel_IRQHandler                0x080001df   Thumb Code     0  startup_gd32f450_470.o(.text)
    TIMER0_TRG_CMT_TIMER10_IRQHandler        0x080001df   Thumb Code     0  startup_gd32f450_470.o(.text)
    TIMER0_UP_TIMER9_IRQHandler              0x080001df   Thumb Code     0  startup_gd32f450_470.o(.text)
    TIMER1_IRQHandler                        0x080001df   Thumb Code     0  startup_gd32f450_470.o(.text)
    TIMER2_IRQHandler                        0x080001df   Thumb Code     0  startup_gd32f450_470.o(.text)
    TIMER4_IRQHandler                        0x080001df   Thumb Code     0  startup_gd32f450_470.o(.text)
    TIMER6_IRQHandler                        0x080001df   Thumb Code     0  startup_gd32f450_470.o(.text)
    TIMER7_BRK_TIMER11_IRQHandler            0x080001df   Thumb Code     0  startup_gd32f450_470.o(.text)
    TIMER7_Channel_IRQHandler                0x080001df   Thumb Code     0  startup_gd32f450_470.o(.text)
    TIMER7_TRG_CMT_TIMER13_IRQHandler        0x080001df   Thumb Code     0  startup_gd32f450_470.o(.text)
    TIMER7_UP_TIMER12_IRQHandler             0x080001df   Thumb Code     0  startup_gd32f450_470.o(.text)
    TLI_ER_IRQHandler                        0x080001df   Thumb Code     0  startup_gd32f450_470.o(.text)
    TLI_IRQHandler                           0x080001df   Thumb Code     0  startup_gd32f450_470.o(.text)
    TRNG_IRQHandler                          0x080001df   Thumb Code     0  startup_gd32f450_470.o(.text)
    UART3_IRQHandler                         0x080001df   Thumb Code     0  startup_gd32f450_470.o(.text)
    UART4_IRQHandler                         0x080001df   Thumb Code     0  startup_gd32f450_470.o(.text)
    UART6_IRQHandler                         0x080001df   Thumb Code     0  startup_gd32f450_470.o(.text)
    UART7_IRQHandler                         0x080001df   Thumb Code     0  startup_gd32f450_470.o(.text)
    USART0_IRQHandler                        0x080001df   Thumb Code     0  startup_gd32f450_470.o(.text)
    USART1_IRQHandler                        0x080001df   Thumb Code     0  startup_gd32f450_470.o(.text)
    USART2_IRQHandler                        0x080001df   Thumb Code     0  startup_gd32f450_470.o(.text)
    USART5_IRQHandler                        0x080001df   Thumb Code     0  startup_gd32f450_470.o(.text)
    USBFS_IRQHandler                         0x080001df   Thumb Code     0  startup_gd32f450_470.o(.text)
    USBFS_WKUP_IRQHandler                    0x080001df   Thumb Code     0  startup_gd32f450_470.o(.text)
    USBHS_EP1_In_IRQHandler                  0x080001df   Thumb Code     0  startup_gd32f450_470.o(.text)
    USBHS_EP1_Out_IRQHandler                 0x080001df   Thumb Code     0  startup_gd32f450_470.o(.text)
    USBHS_IRQHandler                         0x080001df   Thumb Code     0  startup_gd32f450_470.o(.text)
    USBHS_WKUP_IRQHandler                    0x080001df   Thumb Code     0  startup_gd32f450_470.o(.text)
    WWDGT_IRQHandler                         0x080001df   Thumb Code     0  startup_gd32f450_470.o(.text)
    __scatterload                            0x080001e9   Thumb Code    28  init.o(.text)
    __scatterload_rt2                        0x080001e9   Thumb Code     0  init.o(.text)
    BusFault_Handler                         0x0800020d   Thumb Code     4  gd32f4xx_it.o(i.BusFault_Handler)
    DMA0_Channel5_IRQHandler                 0x08000211   Thumb Code   126  bsp_lcd.o(i.DMA0_Channel5_IRQHandler)
    Dac_Show_Wav                             0x080002a9   Thumb Code    42  bsp_dac.o(i.Dac_Show_Wav)
    Dac_Time_Hz                              0x080002dd   Thumb Code    82  bsp_dac.o(i.Dac_Time_Hz)
    DebugMon_Handler                         0x0800033d   Thumb Code     2  gd32f4xx_it.o(i.DebugMon_Handler)
    EXTI0_IRQHandler                         0x08000341   Thumb Code    46  bsp_key.o(i.EXTI0_IRQHandler)
    HardFault_Handler                        0x08000395   Thumb Code     4  gd32f4xx_it.o(i.HardFault_Handler)
    LCD_Address_Set                          0x08000399   Thumb Code    58  bsp_lcd.o(i.LCD_Address_Set)
    LCD_Show_Gram                            0x080003d5   Thumb Code    80  bsp_lcd.o(i.LCD_Show_Gram)
    LCD_WR_DATA                              0x08000435   Thumb Code    18  bsp_lcd.o(i.LCD_WR_DATA)
    LCD_WR_REG                               0x08000449   Thumb Code    28  bsp_lcd.o(i.LCD_WR_REG)
    LCD_Writ_Bus                             0x08000469   Thumb Code    28  bsp_lcd.o(i.LCD_Writ_Bus)
    Lcd_Show_Time                            0x08000489   Thumb Code    90  bsp_gui.o(i.Lcd_Show_Time)
    MemManage_Handler                        0x080004e9   Thumb Code     4  gd32f4xx_it.o(i.MemManage_Handler)
    NMI_Handler                              0x080004ed   Thumb Code     2  gd32f4xx_it.o(i.NMI_Handler)
    PendSV_Handler                           0x08000519   Thumb Code     2  gd32f4xx_it.o(i.PendSV_Handler)
    SVC_Handler                              0x0800051b   Thumb Code     2  gd32f4xx_it.o(i.SVC_Handler)
    Spi2_ReadWriteByte                       0x0800051d   Thumb Code    64  bsp_spi.o(i.Spi2_ReadWriteByte)
    SysTick_Handler                          0x08000561   Thumb Code     8  gd32f4xx_it.o(i.SysTick_Handler)
    SystemInit                               0x08000569   Thumb Code   184  system_gd32f4xx.o(i.SystemInit)
    TIMER3_IRQHandler                        0x08000631   Thumb Code    68  main.o(i.TIMER3_IRQHandler)
    TIMER5_DAC_IRQHandler                    0x0800068d   Thumb Code    30  bsp_basic_timer.o(i.TIMER5_DAC_IRQHandler)
    UsageFault_Handler                       0x080006c9   Thumb Code     4  gd32f4xx_it.o(i.UsageFault_Handler)
    __0printf$bare                           0x080006cd   Thumb Code     8  printfb.o(i.__0printf$bare)
    __1printf$bare                           0x080006cd   Thumb Code     0  printfb.o(i.__0printf$bare)
    __2printf                                0x080006cd   Thumb Code     0  printfb.o(i.__0printf$bare)
    __scatterload_copy                       0x080006dd   Thumb Code    14  handlers.o(i.__scatterload_copy)
    __scatterload_null                       0x080006eb   Thumb Code     2  handlers.o(i.__scatterload_null)
    __scatterload_zeroinit                   0x080006ed   Thumb Code    14  handlers.o(i.__scatterload_zeroinit)
    dac_config                               0x0800071d   Thumb Code   192  bsp_dac.o(i.dac_config)
    dac_deinit                               0x080007f1   Thumb Code    20  gd32f4xx_dac.o(i.dac_deinit)
    dac_dma_enable                           0x08000805   Thumb Code    30  gd32f4xx_dac.o(i.dac_dma_enable)
    dac_enable                               0x08000829   Thumb Code    30  gd32f4xx_dac.o(i.dac_enable)
    dac_output_buffer_enable                 0x0800084d   Thumb Code    30  gd32f4xx_dac.o(i.dac_output_buffer_enable)
    dac_trigger_enable                       0x08000871   Thumb Code    30  gd32f4xx_dac.o(i.dac_trigger_enable)
    dac_trigger_source_config                0x08000895   Thumb Code    48  gd32f4xx_dac.o(i.dac_trigger_source_config)
    dac_wave_mode_config                     0x080008c9   Thumb Code    48  gd32f4xx_dac.o(i.dac_wave_mode_config)
    delay_1ms                                0x080008fd   Thumb Code    16  systick.o(i.delay_1ms)
    delay_decrement                          0x08000911   Thumb Code    18  systick.o(i.delay_decrement)
    dma_channel_enable                       0x08000929   Thumb Code    32  gd32f4xx_dma.o(i.dma_channel_enable)
    dma_channel_subperipheral_select         0x08000949   Thumb Code    38  gd32f4xx_dma.o(i.dma_channel_subperipheral_select)
    dma_interrupt_flag_clear                 0x0800096f   Thumb Code    62  gd32f4xx_dma.o(i.dma_interrupt_flag_clear)
    dma_single_data_mode_init                0x080009ad   Thumb Code   340  gd32f4xx_dma.o(i.dma_single_data_mode_init)
    exmc_flag_get                            0x08000b05   Thumb Code    46  gd32f4xx_exmc.o(i.exmc_flag_get)
    exmc_sdram_command_config                0x08000b39   Thumb Code    22  gd32f4xx_exmc.o(i.exmc_sdram_command_config)
    exmc_sdram_init                          0x08000b55   Thumb Code   272  gd32f4xx_exmc.o(i.exmc_sdram_init)
    exmc_sdram_refresh_count_set             0x08000c6d   Thumb Code    30  gd32f4xx_exmc.o(i.exmc_sdram_refresh_count_set)
    exmc_synchronous_dynamic_ram_init        0x08000c91   Thumb Code   590  exmc_sdram.o(i.exmc_synchronous_dynamic_ram_init)
    exti_init                                0x08000ef5   Thumb Code   184  gd32f4xx_exti.o(i.exti_init)
    exti_interrupt_enable                    0x08000fb1   Thumb Code    12  gd32f4xx_exti.o(i.exti_interrupt_enable)
    exti_interrupt_flag_clear                0x08000fc1   Thumb Code     6  gd32f4xx_exti.o(i.exti_interrupt_flag_clear)
    exti_interrupt_flag_get                  0x08000fcd   Thumb Code    32  gd32f4xx_exti.o(i.exti_interrupt_flag_get)
    fputc                                    0x08000ff1   Thumb Code    16  bsp_usart.o(i.fputc)
    gpio_af_set                              0x08001001   Thumb Code    94  gd32f4xx_gpio.o(i.gpio_af_set)
    gpio_bit_reset                           0x0800105f   Thumb Code     4  gd32f4xx_gpio.o(i.gpio_bit_reset)
    gpio_bit_set                             0x08001063   Thumb Code     4  gd32f4xx_gpio.o(i.gpio_bit_set)
    gpio_bit_toggle                          0x08001067   Thumb Code     4  gd32f4xx_gpio.o(i.gpio_bit_toggle)
    gpio_input_bit_get                       0x0800106b   Thumb Code    16  gd32f4xx_gpio.o(i.gpio_input_bit_get)
    gpio_mode_set                            0x0800107b   Thumb Code    78  gd32f4xx_gpio.o(i.gpio_mode_set)
    gpio_output_options_set                  0x080010c9   Thumb Code    66  gd32f4xx_gpio.o(i.gpio_output_options_set)
    key_gpio_config                          0x0800110d   Thumb Code    72  bsp_key.o(i.key_gpio_config)
    led_gpio_config                          0x08001159   Thumb Code   132  bsp_led.o(i.led_gpio_config)
    main                                     0x080011ed   Thumb Code    66  main.o(i.main)
    nvic_irq_enable                          0x08001231   Thumb Code   186  gd32f4xx_misc.o(i.nvic_irq_enable)
    nvic_priority_group_set                  0x080012f5   Thumb Code    10  gd32f4xx_misc.o(i.nvic_priority_group_set)
    rcu_clock_freq_get                       0x08001309   Thumb Code   264  gd32f4xx_rcu.o(i.rcu_clock_freq_get)
    rcu_periph_clock_enable                  0x0800142d   Thumb Code    32  gd32f4xx_rcu.o(i.rcu_periph_clock_enable)
    rcu_periph_reset_disable                 0x08001451   Thumb Code    32  gd32f4xx_rcu.o(i.rcu_periph_reset_disable)
    rcu_periph_reset_enable                  0x08001475   Thumb Code    32  gd32f4xx_rcu.o(i.rcu_periph_reset_enable)
    rcu_timer_clock_prescaler_config         0x08001499   Thumb Code    32  gd32f4xx_rcu.o(i.rcu_timer_clock_prescaler_config)
    spi_i2s_data_receive                     0x080014bd   Thumb Code     8  gd32f4xx_spi.o(i.spi_i2s_data_receive)
    spi_i2s_data_transmit                    0x080014c5   Thumb Code     4  gd32f4xx_spi.o(i.spi_i2s_data_transmit)
    spi_i2s_flag_get                         0x080014c9   Thumb Code    16  gd32f4xx_spi.o(i.spi_i2s_flag_get)
    syscfg_exti_line_config                  0x080014d9   Thumb Code   166  gd32f4xx_syscfg.o(i.syscfg_exti_line_config)
    systick_config                           0x08001689   Thumb Code    74  systick.o(i.systick_config)
    timer_autoreload_value_config            0x080016d9   Thumb Code     4  gd32f4xx_timer.o(i.timer_autoreload_value_config)
    timer_deinit                             0x080016dd   Thumb Code   374  gd32f4xx_timer.o(i.timer_deinit)
    timer_enable                             0x08001861   Thumb Code    10  gd32f4xx_timer.o(i.timer_enable)
    timer_init                               0x0800186d   Thumb Code   122  gd32f4xx_timer.o(i.timer_init)
    timer_interrupt_enable                   0x08001905   Thumb Code     8  gd32f4xx_timer.o(i.timer_interrupt_enable)
    timer_interrupt_flag_clear               0x0800190d   Thumb Code     6  gd32f4xx_timer.o(i.timer_interrupt_flag_clear)
    timer_interrupt_flag_get                 0x08001913   Thumb Code    24  gd32f4xx_timer.o(i.timer_interrupt_flag_get)
    timer_master_output_trigger_source_select 0x0800192b   Thumb Code    16  gd32f4xx_timer.o(i.timer_master_output_trigger_source_select)
    timer_prescaler_config                   0x0800193b   Thumb Code    14  gd32f4xx_timer.o(i.timer_prescaler_config)
    usart_baudrate_set                       0x08001949   Thumb Code   224  gd32f4xx_usart.o(i.usart_baudrate_set)
    usart_data_transmit                      0x08001a31   Thumb Code     8  gd32f4xx_usart.o(i.usart_data_transmit)
    usart_deinit                             0x08001a39   Thumb Code   210  gd32f4xx_usart.o(i.usart_deinit)
    usart_enable                             0x08001b15   Thumb Code    10  gd32f4xx_usart.o(i.usart_enable)
    usart_flag_get                           0x08001b1f   Thumb Code    30  gd32f4xx_usart.o(i.usart_flag_get)
    usart_gpio_config                        0x08001b3d   Thumb Code   162  bsp_usart.o(i.usart_gpio_config)
    usart_parity_config                      0x08001be9   Thumb Code    16  gd32f4xx_usart.o(i.usart_parity_config)
    usart_send_data                          0x08001bf9   Thumb Code    28  bsp_usart.o(i.usart_send_data)
    usart_stop_bit_set                       0x08001c19   Thumb Code    16  gd32f4xx_usart.o(i.usart_stop_bit_set)
    usart_transmit_config                    0x08001c29   Thumb Code    16  gd32f4xx_usart.o(i.usart_transmit_config)
    usart_word_length_set                    0x08001c39   Thumb Code    16  gd32f4xx_usart.o(i.usart_word_length_set)
    wav_data                                 0x08001c48   Data         500  bsp_dac.o(.constdata)
    Region$$Table$$Base                      0x08001e3c   Number         0  anon$$obj.o(Region$$Table)
    Region$$Table$$Limit                     0x08001e5c   Number         0  anon$$obj.o(Region$$Table)
    SystemCoreClock                          0x20000004   Data           4  system_gd32f4xx.o(.data)
    LCD_SHOW_RAM                             0x20000008   Data           4  bsp_lcd.o(.data)
    Lcd_Show_Over                            0x2000000c   Data           1  bsp_lcd.o(.data)
    Show_AB                                  0x2000000e   Data           1  bsp_gui.o(.data)
    Show_Star                                0x2000000f   Data           1  bsp_gui.o(.data)
    __stdout                                 0x20000010   Data           4  stdout.o(.data)
    convertarr                               0x20000014   Data         100  bsp_dac.o(.bss)
    __initial_sp                             0x20000478   Data           0  startup_gd32f450_470.o(STACK)
    Show_GramA                               0xc0000000   Data       153600  bsp_gui.o(.ARM.__AT_0xC0000000)
    Show_GramB                               0xc0025800   Data       153600  bsp_gui.o(.ARM.__AT_0xC0025800)



==============================================================================

Memory Map of the image

  Image Entry point : 0x080001ad

  Load Region LR_IROM1 (Base: 0x08000000, Size: 0x00001e70, Max: 0x00100000, ABSOLUTE)

    Execution Region ER_IROM1 (Exec base: 0x08000000, Load base: 0x08000000, Size: 0x00001e5c, Max: 0x00100000, ABSOLUTE)

    Exec Addr    Load Addr    Size         Type   Attr      Idx    E Section Name        Object

    0x08000000   0x08000000   0x000001ac   Data   RO          361    RESET               startup_gd32f450_470.o
    0x080001ac   0x080001ac   0x00000000   Code   RO         3082  * .ARM.Collect$$$$00000000  mc_w.l(entry.o)
    0x080001ac   0x080001ac   0x00000004   Code   RO         3345    .ARM.Collect$$$$00000001  mc_w.l(entry2.o)
    0x080001b0   0x080001b0   0x00000004   Code   RO         3348    .ARM.Collect$$$$00000004  mc_w.l(entry5.o)
    0x080001b4   0x080001b4   0x00000000   Code   RO         3350    .ARM.Collect$$$$00000008  mc_w.l(entry7b.o)
    0x080001b4   0x080001b4   0x00000000   Code   RO         3352    .ARM.Collect$$$$0000000A  mc_w.l(entry8b.o)
    0x080001b4   0x080001b4   0x00000008   Code   RO         3353    .ARM.Collect$$$$0000000B  mc_w.l(entry9a.o)
    0x080001bc   0x080001bc   0x00000004   Code   RO         3360    .ARM.Collect$$$$0000000E  mc_w.l(entry12b.o)
    0x080001c0   0x080001c0   0x00000000   Code   RO         3355    .ARM.Collect$$$$0000000F  mc_w.l(entry10a.o)
    0x080001c0   0x080001c0   0x00000000   Code   RO         3357    .ARM.Collect$$$$00000011  mc_w.l(entry11a.o)
    0x080001c0   0x080001c0   0x00000004   Code   RO         3346    .ARM.Collect$$$$00002712  mc_w.l(entry2.o)
    0x080001c4   0x080001c4   0x00000024   Code   RO          362    .text               startup_gd32f450_470.o
    0x080001e8   0x080001e8   0x00000024   Code   RO         3377    .text               mc_w.l(init.o)
    0x0800020c   0x0800020c   0x00000004   Code   RO          234    i.BusFault_Handler  gd32f4xx_it.o
    0x08000210   0x08000210   0x00000098   Code   RO          484    i.DMA0_Channel5_IRQHandler  bsp_lcd.o
    0x080002a8   0x080002a8   0x00000034   Code   RO          692    i.Dac_Show_Wav      bsp_dac.o
    0x080002dc   0x080002dc   0x00000060   Code   RO          693    i.Dac_Time_Hz       bsp_dac.o
    0x0800033c   0x0800033c   0x00000002   Code   RO          235    i.DebugMon_Handler  gd32f4xx_it.o
    0x0800033e   0x0800033e   0x00000002   PAD
    0x08000340   0x08000340   0x00000054   Code   RO          426    i.EXTI0_IRQHandler  bsp_key.o
    0x08000394   0x08000394   0x00000004   Code   RO          236    i.HardFault_Handler  gd32f4xx_it.o
    0x08000398   0x08000398   0x0000003a   Code   RO          485    i.LCD_Address_Set   bsp_lcd.o
    0x080003d2   0x080003d2   0x00000002   PAD
    0x080003d4   0x080003d4   0x00000060   Code   RO          489    i.LCD_Show_Gram     bsp_lcd.o
    0x08000434   0x08000434   0x00000012   Code   RO          490    i.LCD_WR_DATA       bsp_lcd.o
    0x08000446   0x08000446   0x00000002   PAD
    0x08000448   0x08000448   0x00000020   Code   RO          492    i.LCD_WR_REG        bsp_lcd.o
    0x08000468   0x08000468   0x00000020   Code   RO          493    i.LCD_Writ_Bus      bsp_lcd.o
    0x08000488   0x08000488   0x00000060   Code   RO          659    i.Lcd_Show_Time     bsp_gui.o
    0x080004e8   0x080004e8   0x00000004   Code   RO          237    i.MemManage_Handler  gd32f4xx_it.o
    0x080004ec   0x080004ec   0x00000002   Code   RO          238    i.NMI_Handler       gd32f4xx_it.o
    0x080004ee   0x080004ee   0x00000002   PAD
    0x080004f0   0x080004f0   0x00000028   Code   RO            3    i.NVIC_SetPriority  systick.o
    0x08000518   0x08000518   0x00000002   Code   RO          239    i.PendSV_Handler    gd32f4xx_it.o
    0x0800051a   0x0800051a   0x00000002   Code   RO          240    i.SVC_Handler       gd32f4xx_it.o
    0x0800051c   0x0800051c   0x00000044   Code   RO          567    i.Spi2_ReadWriteByte  bsp_spi.o
    0x08000560   0x08000560   0x00000008   Code   RO          241    i.SysTick_Handler   gd32f4xx_it.o
    0x08000568   0x08000568   0x000000c8   Code   RO          320    i.SystemInit        system_gd32f4xx.o
    0x08000630   0x08000630   0x0000005c   Code   RO          164    i.TIMER3_IRQHandler  main.o
    0x0800068c   0x0800068c   0x0000003c   Code   RO          458    i.TIMER5_DAC_IRQHandler  bsp_basic_timer.o
    0x080006c8   0x080006c8   0x00000004   Code   RO          242    i.UsageFault_Handler  gd32f4xx_it.o
    0x080006cc   0x080006cc   0x00000010   Code   RO         3086    i.__0printf$bare    mc_w.l(printfb.o)
    0x080006dc   0x080006dc   0x0000000e   Code   RO         3389    i.__scatterload_copy  mc_w.l(handlers.o)
    0x080006ea   0x080006ea   0x00000002   Code   RO         3390    i.__scatterload_null  mc_w.l(handlers.o)
    0x080006ec   0x080006ec   0x0000000e   Code   RO         3391    i.__scatterload_zeroinit  mc_w.l(handlers.o)
    0x080006fa   0x080006fa   0x00000022   Code   RO         3093    i._printf_core      mc_w.l(printfb.o)
    0x0800071c   0x0800071c   0x000000d4   Code   RO          694    i.dac_config        bsp_dac.o
    0x080007f0   0x080007f0   0x00000014   Code   RO         2882    i.dac_deinit        gd32f4xx_dac.o
    0x08000804   0x08000804   0x00000024   Code   RO         2885    i.dac_dma_enable    gd32f4xx_dac.o
    0x08000828   0x08000828   0x00000024   Code   RO         2886    i.dac_enable        gd32f4xx_dac.o
    0x0800084c   0x0800084c   0x00000024   Code   RO         2895    i.dac_output_buffer_enable  gd32f4xx_dac.o
    0x08000870   0x08000870   0x00000024   Code   RO         2901    i.dac_trigger_enable  gd32f4xx_dac.o
    0x08000894   0x08000894   0x00000034   Code   RO         2902    i.dac_trigger_source_config  gd32f4xx_dac.o
    0x080008c8   0x080008c8   0x00000034   Code   RO         2904    i.dac_wave_mode_config  gd32f4xx_dac.o
    0x080008fc   0x080008fc   0x00000014   Code   RO            4    i.delay_1ms         systick.o
    0x08000910   0x08000910   0x00000018   Code   RO            5    i.delay_decrement   systick.o
    0x08000928   0x08000928   0x00000020   Code   RO         2377    i.dma_channel_enable  gd32f4xx_dma.o
    0x08000948   0x08000948   0x00000026   Code   RO         2378    i.dma_channel_subperipheral_select  gd32f4xx_dma.o
    0x0800096e   0x0800096e   0x0000003e   Code   RO         2388    i.dma_interrupt_flag_clear  gd32f4xx_dma.o
    0x080009ac   0x080009ac   0x00000158   Code   RO         2401    i.dma_single_data_mode_init  gd32f4xx_dma.o
    0x08000b04   0x08000b04   0x00000034   Code   RO         2590    i.exmc_flag_get     gd32f4xx_exmc.o
    0x08000b38   0x08000b38   0x0000001c   Code   RO         2615    i.exmc_sdram_command_config  gd32f4xx_exmc.o
    0x08000b54   0x08000b54   0x00000118   Code   RO         2617    i.exmc_sdram_init   gd32f4xx_exmc.o
    0x08000c6c   0x08000c6c   0x00000024   Code   RO         2620    i.exmc_sdram_refresh_count_set  gd32f4xx_exmc.o
    0x08000c90   0x08000c90   0x00000264   Code   RO          608    i.exmc_synchronous_dynamic_ram_init  exmc_sdram.o
    0x08000ef4   0x08000ef4   0x000000bc   Code   RO         1601    i.exti_init         gd32f4xx_exti.o
    0x08000fb0   0x08000fb0   0x00000010   Code   RO         1603    i.exti_interrupt_enable  gd32f4xx_exti.o
    0x08000fc0   0x08000fc0   0x0000000c   Code   RO         1604    i.exti_interrupt_flag_clear  gd32f4xx_exti.o
    0x08000fcc   0x08000fcc   0x00000024   Code   RO         1605    i.exti_interrupt_flag_get  gd32f4xx_exti.o
    0x08000ff0   0x08000ff0   0x00000010   Code   RO          388    i.fputc             bsp_usart.o
    0x08001000   0x08001000   0x0000005e   Code   RO          734    i.gpio_af_set       gd32f4xx_gpio.o
    0x0800105e   0x0800105e   0x00000004   Code   RO          735    i.gpio_bit_reset    gd32f4xx_gpio.o
    0x08001062   0x08001062   0x00000004   Code   RO          736    i.gpio_bit_set      gd32f4xx_gpio.o
    0x08001066   0x08001066   0x00000004   Code   RO          737    i.gpio_bit_toggle   gd32f4xx_gpio.o
    0x0800106a   0x0800106a   0x00000010   Code   RO          740    i.gpio_input_bit_get  gd32f4xx_gpio.o
    0x0800107a   0x0800107a   0x0000004e   Code   RO          742    i.gpio_mode_set     gd32f4xx_gpio.o
    0x080010c8   0x080010c8   0x00000042   Code   RO          744    i.gpio_output_options_set  gd32f4xx_gpio.o
    0x0800110a   0x0800110a   0x00000002   PAD
    0x0800110c   0x0800110c   0x0000004c   Code   RO          427    i.key_gpio_config   bsp_key.o
    0x08001158   0x08001158   0x00000094   Code   RO          368    i.led_gpio_config   bsp_led.o
    0x080011ec   0x080011ec   0x00000042   Code   RO          165    i.main              main.o
    0x0800122e   0x0800122e   0x00000002   PAD
    0x08001230   0x08001230   0x000000c4   Code   RO         1479    i.nvic_irq_enable   gd32f4xx_misc.o
    0x080012f4   0x080012f4   0x00000014   Code   RO         1480    i.nvic_priority_group_set  gd32f4xx_misc.o
    0x08001308   0x08001308   0x00000124   Code   RO          847    i.rcu_clock_freq_get  gd32f4xx_rcu.o
    0x0800142c   0x0800142c   0x00000024   Code   RO          866    i.rcu_periph_clock_enable  gd32f4xx_rcu.o
    0x08001450   0x08001450   0x00000024   Code   RO          869    i.rcu_periph_reset_disable  gd32f4xx_rcu.o
    0x08001474   0x08001474   0x00000024   Code   RO          870    i.rcu_periph_reset_enable  gd32f4xx_rcu.o
    0x08001498   0x08001498   0x00000024   Code   RO          882    i.rcu_timer_clock_prescaler_config  gd32f4xx_rcu.o
    0x080014bc   0x080014bc   0x00000008   Code   RO         2152    i.spi_i2s_data_receive  gd32f4xx_spi.o
    0x080014c4   0x080014c4   0x00000004   Code   RO         2153    i.spi_i2s_data_transmit  gd32f4xx_spi.o
    0x080014c8   0x080014c8   0x00000010   Code   RO         2155    i.spi_i2s_flag_get  gd32f4xx_spi.o
    0x080014d8   0x080014d8   0x000000ac   Code   RO         1539    i.syscfg_exti_line_config  gd32f4xx_syscfg.o
    0x08001584   0x08001584   0x000000fc   Code   RO          321    i.system_clock_200m_25m_hxtal  system_gd32f4xx.o
    0x08001680   0x08001680   0x00000008   Code   RO          322    i.system_clock_config  system_gd32f4xx.o
    0x08001688   0x08001688   0x00000050   Code   RO            6    i.systick_config    systick.o
    0x080016d8   0x080016d8   0x00000004   Code   RO         1686    i.timer_autoreload_value_config  gd32f4xx_timer.o
    0x080016dc   0x080016dc   0x00000184   Code   RO         1714    i.timer_deinit      gd32f4xx_timer.o
    0x08001860   0x08001860   0x0000000a   Code   RO         1719    i.timer_enable      gd32f4xx_timer.o
    0x0800186a   0x0800186a   0x00000002   PAD
    0x0800186c   0x0800186c   0x00000098   Code   RO         1729    i.timer_init        gd32f4xx_timer.o
    0x08001904   0x08001904   0x00000008   Code   RO         1736    i.timer_interrupt_enable  gd32f4xx_timer.o
    0x0800190c   0x0800190c   0x00000006   Code   RO         1737    i.timer_interrupt_flag_clear  gd32f4xx_timer.o
    0x08001912   0x08001912   0x00000018   Code   RO         1738    i.timer_interrupt_flag_get  gd32f4xx_timer.o
    0x0800192a   0x0800192a   0x00000010   Code   RO         1739    i.timer_master_output_trigger_source_select  gd32f4xx_timer.o
    0x0800193a   0x0800193a   0x0000000e   Code   RO         1742    i.timer_prescaler_config  gd32f4xx_timer.o
    0x08001948   0x08001948   0x000000e8   Code   RO         1135    i.usart_baudrate_set  gd32f4xx_usart.o
    0x08001a30   0x08001a30   0x00000008   Code   RO         1140    i.usart_data_transmit  gd32f4xx_usart.o
    0x08001a38   0x08001a38   0x000000dc   Code   RO         1141    i.usart_deinit      gd32f4xx_usart.o
    0x08001b14   0x08001b14   0x0000000a   Code   RO         1145    i.usart_enable      gd32f4xx_usart.o
    0x08001b1e   0x08001b1e   0x0000001e   Code   RO         1147    i.usart_flag_get    gd32f4xx_usart.o
    0x08001b3c   0x08001b3c   0x000000ac   Code   RO          389    i.usart_gpio_config  bsp_usart.o
    0x08001be8   0x08001be8   0x00000010   Code   RO         1170    i.usart_parity_config  gd32f4xx_usart.o
    0x08001bf8   0x08001bf8   0x00000020   Code   RO          390    i.usart_send_data   bsp_usart.o
    0x08001c18   0x08001c18   0x00000010   Code   RO         1183    i.usart_stop_bit_set  gd32f4xx_usart.o
    0x08001c28   0x08001c28   0x00000010   Code   RO         1187    i.usart_transmit_config  gd32f4xx_usart.o
    0x08001c38   0x08001c38   0x00000010   Code   RO         1188    i.usart_word_length_set  gd32f4xx_usart.o
    0x08001c48   0x08001c48   0x000001f4   Data   RO          696    .constdata          bsp_dac.o
    0x08001e3c   0x08001e3c   0x00000020   Data   RO         3387    Region$$Table       anon$$obj.o


    Execution Region RW_IRAM1 (Exec base: 0x20000000, Load base: 0x08001e5c, Size: 0x00000478, Max: 0x00030000, ABSOLUTE)

    Exec Addr    Load Addr    Size         Type   Attr      Idx    E Section Name        Object

    0x20000000   0x08001e5c   0x00000004   Data   RW            7    .data               systick.o
    0x20000004   0x08001e60   0x00000004   Data   RW          323    .data               system_gd32f4xx.o
    0x20000008   0x08001e64   0x00000006   Data   RW          494    .data               bsp_lcd.o
    0x2000000e   0x08001e6a   0x00000002   Data   RW          662    .data               bsp_gui.o
    0x20000010   0x08001e6c   0x00000004   Data   RW         3361    .data               mc_w.l(stdout.o)
    0x20000014        -       0x00000064   Zero   RW          695    .bss                bsp_dac.o
    0x20000078        -       0x00000400   Zero   RW          359    STACK               startup_gd32f450_470.o



  Load Region LR$$.ARM.__AT_0xC0000000 (Base: 0xc0000000, Size: 0x00000000, Max: 0x00025800, ABSOLUTE)

    Execution Region ER$$.ARM.__AT_0xC0000000 (Exec base: 0xc0000000, Load base: 0xc0000000, Size: 0x00025800, Max: 0x00025800, ABSOLUTE, UNINIT)

    Exec Addr    Load Addr    Size         Type   Attr      Idx    E Section Name        Object

    0xc0000000        -       0x00025800   Zero   RW          660    .ARM.__AT_0xC0000000  bsp_gui.o



  Load Region LR$$.ARM.__AT_0xC0025800 (Base: 0xc0025800, Size: 0x00000000, Max: 0x00025800, ABSOLUTE)

    Execution Region ER$$.ARM.__AT_0xC0025800 (Exec base: 0xc0025800, Load base: 0xc0025800, Size: 0x00025800, Max: 0x00025800, ABSOLUTE, UNINIT)

    Exec Addr    Load Addr    Size         Type   Attr      Idx    E Section Name        Object

    0xc0025800        -       0x00025800   Zero   RW          661    .ARM.__AT_0xC0025800  bsp_gui.o


==============================================================================

Image component sizes


      Code (inc. data)   RO Data    RW Data    ZI Data      Debug   Object Name

        60         30          0          0          0        556   bsp_basic_timer.o
       360         44        500          0        100       2732   bsp_dac.o
        96          6          0          2     307200       1326   bsp_gui.o
       160         42          0          0          0       1081   bsp_key.o
       388         50          0          6          0       4272   bsp_lcd.o
       148         16          0          0          0        562   bsp_led.o
        68          4          0          0          0        625   bsp_spi.o
       220         14          0          0          0       1850   bsp_usart.o
       612         22          0          0          0       1364   exmc_sdram.o
       268         32          0          0          0       4422   gd32f4xx_dac.o
       476          4          0          0          0       3527   gd32f4xx_dma.o
       396         26          0          0          0       5885   gd32f4xx_exmc.o
       252         18          0          0          0       2798   gd32f4xx_exti.o
       266          0          0          0          0       5235   gd32f4xx_gpio.o
        32          0          0          0          0       4374   gd32f4xx_it.o
       216         20          0          0          0       1556   gd32f4xx_misc.o
       436         44          0          0          0       4407   gd32f4xx_rcu.o
        28          0          0          0          0       2038   gd32f4xx_spi.o
       172          6          0          0          0        818   gd32f4xx_syscfg.o
       622         44          0          0          0       6825   gd32f4xx_timer.o
       564         18          0          0          0       6393   gd32f4xx_usart.o
       158         24          0          0          0       2347   main.o
        36          8        428          0       1024        904   startup_gd32f450_470.o
       460         28          0          4          0       2891   system_gd32f4xx.o
       164         24          0          4          0     119854   systick.o

    ----------------------------------------------------------------------
      6672        524        960         16     308324     188642   Object Totals
         0          0         32          0          0          0   (incl. Generated)
        14          0          0          0          0          0   (incl. Padding)

    ----------------------------------------------------------------------

      Code (inc. data)   RO Data    RW Data    ZI Data      Debug   Library Member Name

         0          0          0          0          0          0   entry.o
         0          0          0          0          0          0   entry10a.o
         0          0          0          0          0          0   entry11a.o
         4          0          0          0          0          0   entry12b.o
         8          4          0          0          0          0   entry2.o
         4          0          0          0          0          0   entry5.o
         0          0          0          0          0          0   entry7b.o
         0          0          0          0          0          0   entry8b.o
         8          4          0          0          0          0   entry9a.o
        30          0          0          0          0          0   handlers.o
        36          8          0          0          0         68   init.o
        50          8          0          0          0        152   printfb.o
         0          0          0          4          0          0   stdout.o

    ----------------------------------------------------------------------
       140         24          0          4          0        220   Library Totals
         0          0          0          0          0          0   (incl. Padding)

    ----------------------------------------------------------------------

      Code (inc. data)   RO Data    RW Data    ZI Data      Debug   Library Name

       140         24          0          4          0        220   mc_w.l

    ----------------------------------------------------------------------
       140         24          0          4          0        220   Library Totals

    ----------------------------------------------------------------------

==============================================================================


      Code (inc. data)   RO Data    RW Data    ZI Data      Debug   

      6812        548        960         20     308324     180314   Grand Totals
      6812        548        960         20     308324     180314   ELF Image Totals
      6812        548        960         20          0          0   ROM Totals

==============================================================================

    Total RO  Size (Code + RO Data)                 7772 (   7.59kB)
    Total RW  Size (RW Data + ZI Data)            308344 ( 301.12kB)
    Total ROM Size (Code + RO Data + RW Data)       7792 (   7.61kB)

==============================================================================

