:020000040800F2
:10000000E0350020C501000815090008DD030008DF
:10001000110900080D020008FD0B00080000000097
:10002000000000000000000000000000430900087C
:10003000850300080000000041090008950A000837
:10004000DF010008DF010008DF010008DF01000810
:10005000DF010008DF01000889030008DF01000854
:10006000DF010008DF010008DF010008DF010008F0
:10007000DF010008DF010008DF010008DF010008E0
:1000800011020008DF010008DF010008DF0100089D
:10009000DF010008DF010008DF010008DF010008C0
:1000A000DF010008DF010008DF010008DF010008B0
:1000B000DF010008DF010008650B0008DF01000810
:1000C000DF010008DF010008DF010008DF01000890
:1000D000DF010008DF010008DF010008DF01000880
:1000E000DF010008DF010008DF010008DF01000870
:1000F000DF010008DF010008DF010008DF01000860
:10010000DF010008DF010008DF010008DF0100084F
:10011000DF010008DF010008C10B0008DF01000853
:10012000A9020008DF010008DF010008DF01000864
:10013000DF010008DF010008DF010008DF0100081F
:10014000DF010008DF010008DF010008DF0100080F
:10015000DF010008DF010008DF010008DF010008FF
:10016000DF010008DF010008DF010008DF010008EF
:10017000DF010008DF010008DF01000800000000C7
:10018000DF010008DF010008DF010008DF010008CF
:10019000DF010008DF010008DF01000800000000A7
:1001A000DF010008DF010008DF010008DFF810D0E0
:1001B00000F01AF800480047D51E0008AFF3008091
:1001C000E03500200648804706480047FEE7FEE786
:1001D000FEE7FEE7FEE7FEE7FEE7FEE7FEE7FEE7F7
:1001E0009D0A0008AD010008064C074D06E0E068D6
:1001F00040F0010394E8070098471034AC42F6D36E
:10020000FFF7D8FF5C2F00087C2F000800BFFEE737
:1002100010B580211E4801F09AFD1E480078401C50
:10022000C0B21C49087004281BDA4FF6FF701A4947
:10023000C8604FF4164018498C31086017480068B0
:10024000144909784FF4164202FB01001249C1F823
:1002500094000846D0F8880040F00100C1F88800FA
:1002600014E0202205210C4801F0C6F800BF0C481C
:10027000006800F080000028F9D10421044801F052
:1002800064FD0020034908700649087010BD000095
:10029000000C024011000020006002400C00002011
:1002A000083C00401000002010B508210C4801F067
:1002B0004EFD01200B490870102200210A4801F070
:1002C000BAF8012803D100200849087002E0012093
:1002D0000649087030220021034801F08DF810BD56
:1002E00000180240150000200064024014000020A5
:1002F0000146042900DD042100200BE001EBC102CE
:1003000002EB0112054B03EB8202125C044B1A5400
:10031000421CD0B26428F1DB70470000682D000851
:100320009C0200204CF25031884200DD0846B0F5B6
:100330007A7F09DD0021104A1160104991FBF0F12C
:10034000491E121D116015E00A2809DD09210A4A1B
:1003500011600B4991FBF0F1491E121D116009E07B
:100360003121054A116049F6404191FBF0F1491EE7
:10037000121D1160704700002814004080841E0088
:10038000400D03007047000010B5012001F066FC2D
:1003900001280FD10121084801F0DBFC012803D11D
:1003A00006A000F02DFC02E008A000F029FC0120CE
:1003B00001F04EFC10BD0000000002406B6579208A
:1003C0007072657373210D0A000000006B6579205F
:1003D00072656C65617365210D0A000000BFFEE760
:1003E0002DE9F04107460C4615461E462A2000F02E
:1003F000A9F9384600F096F9284600F093F92B2029
:1004000000F0A0F9204600F08DF9304600F08AF99E
:100410002C2000F097F9BDE8F08100002DE9F047AD
:1004200006460F4614461D46DDF82080681E83B23E
:10043000601E82B239463046FFF7D2FF04211448CD
:1004400001F081FCB94613E0B2460BE04FEA2820E8
:1004500000F010FB08F0FF0000F00CFB0AF10100B7
:100460001FFA80FAA245F1DB09F101001FFA80F9B9
:10047000A945E9DB00BF8021064801F037FF0128CC
:10048000F9D00421024801F060FCBDE8F0870000CB
:10049000000C0240003C004010B54FF4406001F0F9
:1004A000C7FE4FF4004301221146104801F059FCE9
:1004B0004FF40043022200210C4801F079FC4FF474
:1004C00000410A4801F03FFC40F6034001F0B0FE55
:1004D0004C2301221146064801F043FC4C23022222
:1004E0000021034801F064FC10BD00000000024040
:1004F000000C024010B500F05DFAFFF7CDFF0821B7
:100500006E4801F020FC642000F0ACFE08216B482E
:1005100001F01BFC642000F0A5FE4FF40041684888
:1005200001F013FC4FF4FA7000F09CFE112000F073
:1005300009F9642000F096FE362000F003F97020DF
:1005400000F0F9F83A2000F0FDF8052000F0F3F88B
:10055000B22000F0F7F80C2000F0EDF80C2000F0CD
:10056000EAF8002000F0E7F8332000F0E4F8332048
:1005700000F0E1F8B72000F0E5F8352000F0DBF8F6
:10058000BB2000F0DFF8352000F0D5F8C02000F0E7
:10059000D9F82C2000F0CFF8C22000F0D3F80120C9
:1005A00000F0C9F8C32000F0CDF8132000F0C3F824
:1005B000C42000F0C7F8202000F0BDF8C62000F0ED
:1005C000C1F80F2000F0B7F8CA2000F0BBF80F20E8
:1005D00000F0B1F8C82000F0B5F8082000F0ABF842
:1005E000552000F0AFF8902000F0A5F8D02000F0E2
:1005F000A9F8A42000F09FF8A12000F09CF8E020CA
:1006000000F0A0F8D02000F096F8002000F093F859
:10061000062000F090F8092000F08DF80B2000F083
:100620008AF82A2000F087F83C2000F084F8552052
:1006300000F081F84B2000F07EF8082000F07BF8F5
:10064000162000F078F8142000F075F8192000F05A
:1006500072F8202000F06FF8E12000F073F8D0204D
:1006600000F069F8002000F066F8062000F063F85A
:10067000092000F060F80B2000F05DF8292000F060
:100680005AF8362000F057F8542000F054F84B2068
:1006900000F051F80D2000F04EF8162000F04BF855
:1006A000142000F048F8212000F045F8202000F048
:1006B00042F8292000F046F810BD0000000C02406E
:1006C0000000024010B5044612480460012012499F
:1006D0000870EF2340F23F1200210846FFF780FE2A
:1006E00004210E4801F02FFB4FF6FF700C49C86043
:1006F0004FF416400A498C310860064800680849E2
:10070000C1F894000846D0F8880040F00100C1F814
:10071000880010BD0C00002010000020000C0240DA
:100720000060024010B50446201200F01BF8E0B251
:1007300000F018F810BD10B50446204600F012F87D
:1007400010BD000010B504464021054801F0FBFA39
:10075000204600F007F84021014801F0F6FA10BDEC
:10076000000C024010B504460421054801F0EBFAE4
:10077000204600F05DF90421014801F0E6FA10BDC1
:10078000000C024070B50446049DF02A00DBEF2205
:10079000F02B00DBEF239A420EDA104609E0C0F19D
:1007A000EF0606EB860604EBC61626F81150461C2B
:1007B000F0B29842F3DB18E09A420EDD184609E0E9
:1007C000C0F1EF0606EB860604EBC61626F81150BC
:1007D000461CF0B29042F3DB07E0C2F1EF0606EBF5
:1007E000860604EBC61626F8115070BDF8B507460C
:1007F0003D46002404E0002025F8020B601C84B272
:10080000B4F5A07FF7DB01262BE0002025F8020BD2
:10081000142096FBF0F100FB116058B9012405E0AB
:1008200043F2840025F8020B601C84B2B4F5A07F6B
:10083000F6DB14E001240FE0192094FBF0F100FB3B
:10084000114020B943F2840025F8020B02E0002099
:1008500025F8020B601C84B2B4F5A07FECDB701CA1
:1008600086B2F02ED1DB00240FE04EF207000F49D4
:100870000090601C11F81030084610F81420214632
:100880003846FFF77FFF601C84B2B4F59F7FECDD34
:100890004EF207000090054890F87E3290F87E22D4
:1008A00021463846FFF76EFFF8BD00001C0000200F
:1008B0001FB5012200211E2001F0BCFB41F2020005
:1008C00001F0B6FC4FF0807001F0E8FC0F4801F039
:1008D00095FFC720ADF800000020ADF80200ADF88C
:1008E00004004CF24F3002900020ADF806008DF865
:1008F0000C006946054802F049F80121034802F05E
:1009000091F8024802F03CF81FBD000000080040CA
:1009100000BFFEE77047000010B5002807DA0A079D
:10092000140E054A00F00F031B1FD45403E00A07FE
:10093000130E024A135410BD18ED00E000E400E06D
:100940007047704700B589B040F6154001F070FC63
:100950000521164800F0DFFC4020069000200290A0
:10096000039004904FF41640079011480090012026
:1009700001904FF4403008906A4605210B4800F082
:100980005DFE0521094800F0A6FC0022052107486C
:1009900000F08EFC10220521044800F00EFD00221C
:1009A0001146102001F046FB09B000BD0060024076
:1009B0000C3C004000B587B040F6024001F038FC26
:1009C00041F20F0001F034FC4FF4E05206211648CA
:1009D00001F08AF94FF4E05300220221124801F09D
:1009E000C0F94FF4E053022200210F4801F0E0F972
:1009F000002001904FF482700090002002900320AC
:100A000005904FF400700390002006900490694612
:100A1000064801F073FC0021044801F051FC034832
:100A200001F059FC07B000BD00080240003C004046
:100A300010B5044600BF02210D4801F057FC002804
:100A4000F9D021460A4801F04FFC00BF01210848B7
:100A500001F04CFC0028F9D000BF8021044801F0CF
:100A600045FC0128F9D0024801F03AFCC0B210BDA3
:100A7000003C004010B5044600BF0221044801F0CC
:100A800035FC0028F9D02146014801F02DFC10BDAD
:100A9000003C004010B500F0EFFB10BD08B52D483C
:100AA000006840F470002B4908602B48006840F053
:100AB00001002949086028480830006840F080009B
:100AC0002549083108600020009002E00098401C91
:100AD00000904CF2503100988842F7D31E480830FD
:100AE000006840F090001C49083108600020009028
:100AF00002E00098401C00904CF25031009888426F
:100B0000F7D315480830006820F003001249083177
:100B1000086011480068114908400F4908600846FC
:100B2000006820F48020086000200B49083108602C
:100B300000BF09480830006800200028F9D10848A3
:100B40000549091D0860002003490C31086001F0C7
:100B5000C3FC08BD88ED00E000380240FFFFF6FE50
:100B60001030002410B501210F4801F05FFF0F483D
:100B70000078C0B108210E4801F0E9F800200B49C7
:100B800008700C48007818B10B48FFF79BFD02E095
:100B90000A48FFF797FD0748007808B9012000E0F0
:100BA00000200449087010BD000800401300002018
:100BB0000010024012000020000000C0005802C0D7
:100BC00010B50121064801F034FF012806D10121AA
:100BD000034801F02BFF03A000F012F810BD000045
:100BE000001000404253505F54494D45525F4952F6
:100BF0005148414E444C4552210D0A0000BFFEE7CA
:100C0000014A024900F013B8811C000818000020B6
:100C100002E008C8121F08C1002AFAD170477047C5
:100C2000002001E001C1121F002AFBD170472DE90D
:100C3000F04116460F460446002503E03946B0470A
:100C4000641C6D1C20780028F8D12846BDE8F0818E
:100C5000816841F00801816000BF816801F00801EE
:100C60000029FAD1816841F00401816000BF8168E8
:100C700001F004010029FAD1704730B5012902D0F2
:100C8000022920D10FE06AB1102A0BD8C36A23F4DD
:100C90007003C362C36A541E4FF4700505EA04541E
:100CA0002343C36210E06AB1042A0BD8836B23F498
:100CB00040138363836B541E4FF4401505EA0454BC
:100CC0002343836300E000BF00BF30BD06490968CD
:100CD00021F4E021054AC2F804131146D1F80413A7
:100CE0000143C2F80413704704230140002001406F
:100CF00000B591B04FF4406001F09AFA41F208104B
:100D000001F096FA4FF4805001F092FA4FF08070A3
:100D100001F0C4FA40F6164001F08AFA02230022DC
:100D20000321534801F01DF80020ADF80400ADF890
:100D30000600ADF80800632003900020ADF80A001B
:100D40008DF8100001A94FF0804001F01FFE002037
:100D5000ADF818000120ADF8140005AA02218007A3
:100D600001F0E8FB31220221480701F006FD702264
:100D70000221480701F0D4FC00220221480701F0BB
:100D80000FFD4FF0804001F0FBFD0021394800F0DD
:100D9000C2FA394808900120099038480A9000208A
:100DA0000B904FF400600C9000200E904FF47A608E
:100DB0000F904FF40030109008AA00212D4800F049
:100DC0003DFC002211462B4800F072FA0021294810
:100DD00000F091FA0021274800F05AFA1822002169
:100DE000244800F0EAFA00221146382001F022F9E6
:100DF0004FF48020FFF76AFF012211461E484C384D
:100E0000FFF73BFF0023012219461B484C3800F036
:100E100087F80222012118484C3800F04FF84FF0B3
:100E20008062012114484C3800F062F80021124819
:100E30004C3800F025F800210F484C3800F0C6F877
:100E40000D484C3800F02CF80B484C3800F023F8D3
:100E500009484C3800F029F8012000F003FA064850
:100E60004C38FFF7F5FE0A2000F0FCF911B000BD88
:100E700000000240006402404C20014000030020BA
:100E800021B1826842F40062826003E0826822F449
:100E9000006282607047816841F4807181607047B0
:100EA000816841F4007181607047816801F001013F
:100EB00019B9816841F0010181607047012902D0B0
:100EC000022912D108E0836823F0405383608368CD
:100ED00043EA0273836009E0836823F4401383606C
:100EE000836843EA0253836000E000BF00BF70479D
:100EF000012902D0022910D107E0836823F0706332
:100F0000836083681343836008E0836823F470235D
:100F1000836083681343836000E000BF00BF7047B5
:100F2000F0B51D4606290CDA436B01EB81071F263D
:100F3000BE40B34301EB810602FA06F63343436336
:100F400022E00C290EDA036B8E1F06EB86071F26A4
:100F5000BE40B3438E1F06EB860602FA06F6334305
:100F6000036311E010290FDAC36AA1F10C0606EB46
:100F700086071F26BE40B343A1F10C0606EB86068A
:100F800002FA06F63343C3620A2A0CDA046902EB5A
:100F900042070726BE40B44302EB420605FA06F6B6
:100FA0003443046111E0122A0FDCC468A2F10A067E
:100FB00006EB46070726BE40B443A2F10A0606EB3D
:100FC000460605FA06F63443C460F0BD426822F0D6
:100FD0004072426042680A434260704710B540F672
:100FE000054001F025F94FF48063012211461648AF
:100FF00000F0B7FE4FF4806302220021124800F097
:10100000D7FE4FF48061104800F09FFE40F601408B
:1010100001F00EF94FF4D073012211460B4800F095
:10102000A0FE4FF4D07302220021084800F0C0FE59
:101030004FF4D071054800F088FE4FF4D07103489A
:1010400000F081FE10BD00000014024000040240C8
:1010500001218140491E4FF080429162704700009B
:1010600010B504462CB94FF48061054800F06BFEC2
:1010700004E04FF48061024800F067FE10BD0000FC
:101080000014024000B589B04FF4406001F0D0F880
:101090002023002203212B4800F063FE41F21D00B3
:1010A00001F0C6F800F058F81021012000F0A6F871
:1010B000012000F091F80021012000F0B9F8012092
:1010C00000F078F8012000F063F8012000F04EF8FD
:1010D00040F6154001F0ACF8072206211A4800F04E
:1010E000E7F81A4800901A480290402006906420C1
:1010F0000790012001900020039004904FF44030AD
:101100000890002005906A4606210F4800F096FAE4
:1011100006210D4800F0BCF841F2050001F088F806
:10112000012209210B4801F098FCFF21094801F038
:10113000FFF92021074801F088FC064801F020FC57
:1011400009B000BD00000240006002401C74004075
:101150009C0200200014004010B540F61D0001F074
:101160008BF840F61D0001F075F810BD30B9074945
:10117000096841F48051054A116005E00349096896
:1011800041F08051014A1160704700000074004036
:1011900030B90749096841F00101054A116005E0CD
:1011A0000349096841F48031014A11607047000029
:1011B0000074004030B90749096821F00201054A6E
:1011C000116005E00349096821F40031014A11600A
:1011D000704700000074004030B90749096841F0C9
:1011E0000401054A116005E00349096841F48021C2
:1011F000014A1160704700000074004050B90B4A6A
:10120000126822F03802094B1A601A4612680A4323
:101210001A600AE0054A126822F46012034B1A6051
:101220001A46126842EA01421A6070470074004090
:1012300050B90B4A126822F0C002094B1A601A46D4
:1012400012680A431A600AE0054A126822F4400252
:10125000034B1A601A46126842EA01421A6070474C
:10126000007400400349086000BF02490968002972
:10127000FBD17047000000200448006820B10348FB
:101280000068401E0149086070470000000000200F
:1012900010B501EB4102D30000F11002D25842F028
:1012A000010301EB4102D40000F11002135110BD03
:1012B00030B5134601EB4104E50000F1100462591A
:1012C00022F0606242EA436201EB4104E50000F172
:1012D0001004625130BD10B501EB4102D30000F1A2
:1012E0001002D25822F4807301EB4102D40000F1C5
:1012F0001002135110BD10B501EB4102D30000F1F3
:101300001002D25842F4807301EB4102D40000F184
:101310001002135110BD10B501EB4102D30000F1D2
:101320001002D25822F0010301EB4102D40000F177
:1013300010021351002301EB4102D40000F110020E
:10134000135101EB4102D40000F11402135101EBDF
:101350004102D40000F11802135101EB4102D40004
:1013600000F11C02135101EB4102D40000F12002F4
:10137000135101EB4102D40000F12402135104295E
:101380000CDA01EB41025300C1F3400203EB82038C
:101390003D229A4083681A4382600DE00A1FD1B251
:1013A00001EB41025300C1F3400203EB82033D22F3
:1013B0009A40C3681A43C26010BD30B5802A0DD070
:1013C00001EB4103DC0000F110031B59134301EB57
:1013D0004104E50000F1100463510CE001EB41030E
:1013E000DC0000F124031B59134301EB4104E50029
:1013F00000F12404635130BD10B504290CDA01EB6F
:1014000041035C00C1F3400304EB830302FA03F3DE
:101410008468234383600DE00B1FD9B201EB4103C5
:101420005C00C1F3400304EB830302FA03F3C468D6
:101430002343C36010BDF0B50346002500260C46CB
:10144000042979DA082A34D004DC012A07D0042AD6
:1014500070D119E0102A41D0202A6BD153E001EB62
:1014600041004700C1F3400007EB800702FA07F094
:101470001F6800EA070601EB4100C70003F12400E2
:10148000C05900F0800556E001EB41004700C1F370
:10149000400007EB800702FA07F01F6800EA070622
:1014A00001EB4100C70003F11000C05900F0020534
:1014B00041E001EB41004700C1F3400007EB80072A
:1014C00002FA07F01F6800EA070601EB4100C700B7
:1014D00003F11000C05900F004052CE001EB4100BD
:1014E0004700C1F3400007EB800702FA07F01F68CE
:1014F00000EA070601EB4100C70003F11000C059E4
:1015000000F0080517E001EB41004700C1F340007F
:1015100007EB800702FA07F01F6800EA070601EBF5
:101520004100C70003F11000C05900F0100502E0AF
:1015300002E0FFE700BF7AE0201FC4B2082A34D0DF
:1015400004DC012A07D0042A6FD119E0102A41D007
:10155000202A6AD153E004EB44004700C4F3400062
:1015600007EB800702FA07F05F6800EA070601EB65
:101570004100C70003F12400C05900F0800555E088
:1015800004EB44004700C4F3400007EB800702FA75
:1015900007F05F6800EA070601EB4100C70003F1AE
:1015A0001000C05900F0020540E004EB4400470081
:1015B000C4F3400007EB800702FA07F05F6800EA17
:1015C000070601EB4100C70003F11000C05900F00D
:1015D00004052BE004EB44004700C4F3400007EB94
:1015E000800702FA07F05F6800EA070601EB410096
:1015F000C70003F11000C05900F0080516E004EB25
:1016000044004700C4F3400007EB800702FA07F0EC
:101610005F6800EA070601EB4100C70003F1100014
:10162000C05900F0100501E0FFE700BF00BF16B190
:101630000DB10120F0BD0020FCE7000070B501EB0A
:101640004104E50000F12404645924F0040501EB91
:101650004104E60000F12404A55101EB4104E60039
:1016600000F118041568A55101EB4104E60000F1F2
:101670001C049568A55101EB4104E60000F1140437
:10168000D569A55101EB4104E50000F1100463594F
:101690003F4C2340146944EA8404156A2C4395693D
:1016A0002C43234301EB4104E50000F11004635196
:1016B000546874B901EB4104E50000F11004645969
:1016C00044F4007501EB4104E60000F11004A5515B
:1016D0001FE05468012C0ED101EB4104E50000F13C
:1016E0001004645924F4007501EB4104E60000F194
:1016F0001004A5510DE001EB4104E50000F11004D8
:10170000645944F4004501EB4104E60000F1100483
:10171000A551D46874B901EB4104E50000F110044F
:10172000645944F4806501EB4104E60000F11004C3
:10173000A5510DE001EB4104E50000F110046459EE
:1017400024F4806501EB4104E60000F11004A5518A
:10175000546974B901EB4104E50000F110046459C7
:1017600044F4807501EB4104E60000F11004A5513A
:101770000DE001EB4104E50000F11004645924F48C
:10178000807501EB4104E60000F11004A55170BD25
:101790003F87FCFF02460023012A03D0022A01D022
:1017A000032A04D15001A0F1C040436C01E0054878
:1017B000036803EA0100884201D00020704701203D
:1017C000FCE70000580100A0D0E902211143426863
:1017D0001143026841EA4221014A1160704700004A
:1017E000500100A070B50568042D3AD1D0E9086514
:1017F0003543C669354386693543466935430669CD
:1018000045EA4625C6683543866845EA0635466892
:101810003543384E3560856AAD696D1E866A7669D6
:10182000761E45EA0616856A2D696D1E46EA05266E
:10183000856AED686D1E46EA0536856A2D896D1E3E
:1018400046EA0546856AAD886D1E46EA0556856AF4
:101850002D786D1E46EA05654FF02046C6F84851C2
:1018600047E0244D2D6825F4F841D0E90265354361
:10187000466835432943D0E908653543C669354391
:101880008669354346693543066945EA06044FF0E3
:101890002045C5F84011C5F84441D5F84851164EC9
:1018A00005EA0602856AED686D1E2E03856AAD881D
:1018B0006D1E46EA0556856A2D896D1E46EA054568
:1018C0002A43856AAD696D1E866A7669761E45EA89
:1018D0000616856A2D696D1E46EA0526856A2D78ED
:1018E0006D1E46EA05634FF02045C5F84821C5F84E
:1018F0004C3170BD400100A0FF0F00FF074A126885
:1019000043F6FE7322EA03011A4602EA40020A4342
:101910004FF02043C3F8542170470000540100A049
:10192000F0B597B0064600274FF6FF744FF460609D
:1019300000F07EFC40F6014000F07AFC40F60240E8
:1019400000F076FC40F6034000F072FC40F60440E4
:1019500000F06EFC40F6054000F06AFC40F60640E0
:1019600000F066FC40F6074000F062FC0D220C21FE
:101970007F4800F0B9F90D23012202217C4800F0D4
:10198000F0F90D2302220021794800F011FA4CF2FF
:1019900003720C21774800F0A7F94CF2037301227F
:1019A0000221744800F0DDF94CF203730222002199
:1019B000704800F0FDF94FF683720C216E4800F07C
:1019C00093F94FF68373012202216B4800F0C9F9A5
:1019D0004FF6837302220021674800F0E9F94FF6C1
:1019E0003F020C21654800F07FF94FF63F030122CA
:1019F0000221624800F0B5F94FF63F0302220021B0
:101A00005E4800F0D5F948F237120C215C4800F02E
:101A10006BF948F2371301220221594800F0A1F96D
:101A200048F2371302220021554800F0C1F9042E74
:101A300001D1102500E0082502200B9008200A9013
:101A400005200990072008900220079003200690A7
:101A500005900C96012015900820149010201390EA
:101A60004020129080001190002010904FF40060F0
:101A70000F9001200E9040030D9005A816900CA821
:101A8000FFF7B0FE01200490039500200290019022
:101A900000E0641E20213046FFF77CFE08B1002CD8
:101AA000F7D114B9002017B0F0BD01A8FFF78CFEE4
:101AB0000A20FFF7D7FB0220049003950020029034
:101AC00001904FF6FF7400E0641E20213046FFF7BE
:101AD00061FE08B1002CF7D10CB90020E3E701A8A2
:101AE000FFF772FE032004900395E020029000208F
:101AF00001904FF6FF7400E0641E20213046FFF78E
:101B000049FE08B1002CF7D10CB90020CBE701A8A1
:101B1000FFF75AFE4FF40877042004900395002045
:101B2000029001974FF6FF7400E0641E20213046BA
:101B3000FFF730FE08B1002CF7D10CB90020B2E756
:101B400001A8FFF741FE40F2F920FFF7D7FE4FF65C
:101B5000FF7400E0641E20213046FFF71BFE08B131
:101B6000002CF7D10CB900209DE701209BE7000075
:101B700000080240000C0240001002400014024025
:101B80000018024010B52D4B1B6883432B4C23607B
:101B9000231D1B688343241D2360231D1B6883436F
:101BA000241D2360231D1B688343241D236011B162
:101BB00001290ED105E0214B1B6803431F4C236014
:101BC00008E01E4B1B1D1B6803431C4C241D236097
:101BD00000E000BF00BF32B1012A11D0022A1CD0A0
:101BE000032A27D127E0154B08331B680343134C06
:101BF00008342360231D1B688343241D23601BE0DE
:101C00000E4B08331B6883430C4C08342360231DA0
:101C10001B680343241D23600EE0084B08331B6838
:101C20000343064C08342360231D1B680343241D13
:101C3000236001E000BF00BF00BF10BD003C0140B9
:101C4000024909680143014A11607047003C0140A4
:101C50000149086070470000143C014001460748F4
:101C6000006800EA010205481438006800EA010330
:101C700012B10BB1012070470020FCE7143C014079
:101C800070B504460D46E0B201F046F8204670BD3E
:101C900010B5044604F0010028B14FF480711148DA
:101CA00000F053F804E04FF480710E4800F04BF858
:101CB00004F0020020B180210A4800F046F803E059
:101CC0008021084800F03FF804F0040020B12021F2
:101CD000044800F03AF803E02021024800F033F80D
:101CE00010BD000000040240F0B503461C6A5D6AA6
:101CF00000200DE00126864016403EB187000F26E9
:101D0000BE40B443860001FA06F63443461CB0B226
:101D10000828EFD3082011E00126864016405EB166
:101D2000A0F10806B7000F26BE40B543A0F1080693
:101D3000B60001FA06F63543461CB0B21028EBD3C4
:101D40001C625D62F0BD8162704781617047C16253
:101D5000704702461069084008B101207047002012
:101D6000FCE7F0B504460D4616462168E2680020FF
:101D700019E0012787401F409FB14FEA400C03271D
:101D800007FA0CF7B943470005FA07F739434FEA5A
:101D9000400C032707FA0CF7BA43470006FA07F787
:101DA0003A43471CB8B21028E3D32160E260F0BD8B
:101DB000F0B50C461546012C03D146681E4346601B
:101DC00002E046689E434660826800210DE00126DD
:101DD0008E401E403EB14F000326BE40B2434E002F
:101DE00005FA06F632434E1CB1B21029EFD38260D9
:101DF000F0BD000010B54FF4406000F019FA41F258
:101E00000E1000F015FA0123022200210B48FFF703
:101E1000A8FF03221146062000F00CF90021084615
:101E200000F086FA022200210120FFF7ABFE01201C
:101E3000FFF706FF0120FFF70BFF10BD0000024077
:101E400010B540F6034000F0F3F940F6044000F00E
:101E5000EFF940F6064000F0EBF94FF4406000F077
:101E6000E7F92023012211461648FFF77AFF2023C5
:101E7000022200211348FFF79BFF80230122114615
:101E80001148FFF76EFF8023022200210E48FFF762
:101E90008FFF0823012211460C48FFF762FF082339
:101EA000022200210948FFF783FF0823012211467F
:101EB0000748FFF756FF0823022200210448FFF7D6
:101EC00077FF10BD00000240000C024000100240ED
:101ED0000018024008B54FF4A06000F00DF900F0C2
:101EE000FFFAFFF7ADFFFFF785FF4FF4165000F044
:101EF000B5FE0420FFF714FDFEF7FCFA4FF6FF7065
:101F0000F0234FF4A072002100900846FEF786FAF5
:101F1000FEF718FDFEF7CCFCFFF7B4F80420FEF73F
:101F2000E7F942F21070FEF7FDF9FEF7E1FEFFF768
:101F300055F80020FFF794F80120FFF7A9FE0220D2
:101F4000FFF786F85DE000BF2E4800780028FBD13F
:101F500001202D49087000BF2B4800780028FBD1D4
:101F600000BF2A4800780028FBD0002027490870CD
:101F70002748007818B127482749086002E0274819
:101F800025490860002407E02348006830F8140061
:101F9000234921F81400641CB4F5FA6FF4D300242B
:101FA00022E01F4830F81400083000111D4921F8C4
:101FB0001400084630F81400E32803DDDB2021F884
:101FC000140010E0174830F814001B2804DA13201E
:101FD000144921F8140006E0124830F814000838BB
:101FE000104921F81400641CB4F5A07FD9D30E4821
:101FF000007818B10D48FEF7F9FB02E00C48FEF737
:10200000F5FBA0E7100000201300002015000020C1
:1020100014000020A0120020040000200003002073
:10202000402200201C00002012000020000000C000
:10203000005802C02DE9F04103460D461646002423
:102040000027A0462A48006800F4E060B0F5E06F81
:1020500003D100BF4FF0040830E02548006800F4C9
:10206000E060B0F5C06F03D101274FF0030825E011
:102070001F48006800F4E060B0F5A06F02D10227AD
:10208000B8461BE01A48006800F4E060B0F5806FC5
:1020900003D103274FF0010810E01548006800F451
:1020A000E060B0F5407F03D104274FF0000805E061
:1020B0004FF4A06000F020F80227B846C7F10400F2
:1020C00005FA00F4C8F104010F20C8403040044371
:1020D00024010848C45403F01F010120884059110D
:1020E000890001F1E021C1F80001BDE8F0810000A4
:1020F0000CED00E000E400E002490143024A1160F7
:10210000704700000000FA050CED00E02DE9F04FEB
:102110008CB0064600200A903EA090E8004CC068B3
:10212000CDE905BECDF810A007900FF2EC0ADAE970
:10213000000ACDE9020A0FF2E00ADAE9000ACDE965
:10214000000A38480068C0F381000B900B9820B15A
:10215000012804D0022828D103E0334927E033497D
:1021600025E03048001F006800F03F072D48001FA1
:102170000068C0F3881C2B48001F0068C0F30140B2
:10218000401C4FEA40092748001F006800F48008FF
:10219000B8F5800F01D1254B00E0234BB3FBF7F0DE
:1021A00000FB0CF0B0FBF9F101E01F4900BF00BFDC
:1021B0001C480068C0F3031404A8055D21FA05F269
:1021C00018480068C0F3822402A8055D22FA05F0D1
:1021D000099014480068C0F342341DF8045022FAF4
:1021E00005F0089036B1012E06D0022E06D0032E3F
:1021F0000AD106E00A9108E00A9206E009980A90DE
:1022000003E008980A9000E000BF00BF0A980CB0F5
:10221000BDE8F08F00000000000000000102030490
:1022200006070809083802400024F40040787D01C0
:10223000074A02EB9011D1F8001800F01F030122A9
:102240009A401143024B03EB9012C2F800187047FA
:1022500000300240074A02EB9011D1F8001800F05C
:102260001F0301229A409143024B03EB9012C2F8E4
:102270000018704700300240074A02EB9011D1F875
:10228000001800F01F0301229A401143024B03EB98
:102290009012C2F800187047003002406FF0807151
:1022A000884205D1054909680140044A116004E0EB
:1022B000024909680143014A116070478C380240A5
:1022C00021B9426842F00202426003E0426842F0F3
:1022D000010242607047016841F0400101607047AF
:1022E0000146C86880B27047C16070470246906876
:1022F000084008B1012070470020FCE7024600209A
:10230000106800F441500B6818434B6818438B6801
:102310001843CB6818430B6918434B6918438B6902
:1023200018431060D36923F40063D3617047000041
:1023300070B504460B46CD1701EB9575AD10A1EBBA
:102340008505AE000F25B540E843CD1701EB957527
:10235000AD10A1EB8505AD0004FA05F2CD1701EB38
:102360009575AD1035B1012D0ED0022D18D0032D6D
:102370002ED121E0184B1B680340174D2B602B46D4
:102380001B6813432B6024E0134B1B1D1B68034089
:10239000114D2D1D2B602B461B6813432B6018E03D
:1023A0000D4B08331B6803400B4D08352B602B4643
:1023B0001B6813432B600CE0074B0C331B68034076
:1023C000054D0C352B602B461B6813432B6000E03A
:1023D00000BF00BF70BD0000083801400020002190
:1023E0003A4A126842F48032384B1A6000BF401CEF
:1023F000364A126802F4003119B94FF6FF72904262
:10240000F5D1324A126802F400320AB900BFFEE781
:102410002E4A4032126842F080522C4B40331A60F0
:102420002B4A126842F44042294B1A60274A08326C
:102430001268264B08331A601A46126842F40042AA
:102440001A601A46126842F4A0521A60214A1B1FF1
:102450001A601A1F126842F080721B1F1A6000BFB8
:102460001A4A126802F00072002AF9D0184A12685B
:1024700042F48032164B1A6000BF154A526802F4CB
:102480008032002AF9D0124A126842F40032104B0E
:102490001A6000BF0E4A526802F40032002AF9D0D6
:1024A0000A4A0832126822F00302084B08331A6005
:1024B0001A46126842F002021A6000BF034A08324C
:1024C000126802F00802002AF8D070470038024073
:1024D000007000401964400910B5FFF77FFF10BD80
:1024E00010B5124800684FF47A71B0FBF1F4601E29
:1024F000B0F1807F01D301200FE0601E4FF0E0219A
:1025000048610F214FF0FF30FEF706FA00204FF030
:10251000E021886107200861002008B100BFFEE7C4
:102520000021481EFEF7F8F910BD00000800002049
:10253000C162704710B531B101293FD002297DD069
:1025400003297CD1BFE0036A23F00103036283699E
:1025500023F003038361036A148823430362036A3D
:1025600023F002030362036A9488234303626A4BE5
:10257000984202D0694B98421FD1036A23F00403AA
:102580000362036A548823430362036A23F0080347
:102590000362036AD48823430362436823F480738D
:1025A00043604368148923434360436823F4007302
:1025B00043604368548923434360ABE0036A23F0DC
:1025C00010030362836923F440738361036A1488F0
:1025D00043EA04130362036A23F020030362036ADD
:1025E000948843EA041303624B4B984202D04B4B4E
:1025F000984226D1036A23F040030362036A548899
:1026000043EA04130362036A23F080030362036A4C
:10261000D48843EA04130362436823F4806343606D
:102620004368148943EA84034360436823F40063E6
:1026300043604368548943EA840301E002E068E0B0
:10264000436067E0036A23F480730362C36923F085
:102650000303C361036A148843EA04230362036A21
:1026600023F400730362036A948843EA0423036239
:10267000294B984202D0294B984223D1036A23F474
:1026800080630362036A548843EA04230362036A93
:1026900023F400630362036AD48843EA04230362D9
:1026A000436823F4805343604368148943EA041366
:1026B0004360436823F4005343604368548943EA0A
:1026C0000413436026E0036A23F480530362C36962
:1026D00023F44073C361036A148843EA043303623A
:1026E000036A23F400530362036A948843EA0433C1
:1026F0000362094B984202D0084B984208D14368C4
:1027000023F4804343604368148943EA841343609D
:1027100000E000BF00BF10BD000001400004014008
:1027200031B101290CD0022913D0032922D118E09C
:10273000836923F0700383618369134383611AE023
:10274000836923F4E0438361836943EA022383615D
:1027500011E0C36923F07003C361C3691343C3610C
:1027600009E0C36923F4E043C361C36943EA022378
:10277000C36100E000BF00BF704731B1012906D03E
:10278000022906D0032908D105E0426306E08263EE
:1027900004E0C26302E0026400E000BF00BF7047D3
:1027A00031B101290CD0022913D0032922D118E01C
:1027B000836923F0080383618369134383611AE00B
:1027C000836923F400638361836943EA022383619D
:1027D00011E0C36923F00803C361C3691343C361F4
:1027E00009E0C36923F40063C361C36943EA0223B8
:1027F000C36100E000BF00BF7047000010B5044691
:102800005C49601A8C426FD019DC5B49A4EB010073
:102810008C424ED009DCB4F1804F2ED05748204472
:10282000A0B3B0F5806F72D13AE0B0F5806F49D0B7
:10283000B0F5006F4FD0B0F5406FF4D17BE0B0F54C
:10284000923F5BD009DCB0F5806F73D0B0F5644F78
:102850000AD0B0F5684F5AD147E0B0F5943F57D051
:10286000B0F5963F53D15CE04FF41060FFF704FDE4
:102870004FF41060FFF7EEFC79E04FF40060FFF7D3
:10288000FBFC4FF40060FFF7E5FC70E0FFE740F66B
:102890000100FFF7F1FC40F60100FFF7DBFC66E00A
:1028A00040F60200FFF7E8FC40F60200FFF7D2FC1A
:1028B0005DE040F60300FFF7DFFC40F60300FFF7A2
:1028C000C9FC54E040F60400FFF7D6FC40F60400D3
:1028D000FFF7C0FC4BE040F60500FFF7CDFC40F6EB
:1028E0000500FFF7B7FC42E02EE040F60110FFF7CD
:1028F000C3FC40F60110FFF7ADFC38E04FF4116067
:10290000FFF7BAFC4FF41160FFF7A4FC2FE02DE0B5
:1029100040F61110FFF7B0FC40F61110FFF79AFCDB
:1029200025E040F61210FFF7A7FC40F61210FFF763
:1029300091FC1CE011E040F60600FFF79DFC40F61C
:102940000600FFF787FC12E040F60700FFF794FC53
:1029500040F60700FFF77EFC09E040F60800FFF7AD
:102960008BFC40F60800FFF775FC00E000BF00BFDD
:1029700010BD0000001C0040000C004000FCFFBF28
:10298000016841F001010160704700000A8882621D
:102990001D4A90420ED0B0F1804F0BD01B4A90429E
:1029A00008D01B4A904205D01A4A904202D01A4AD7
:1029B00090420BD1026822F07002026002684B88DC
:1029C0001A43026002688B881A4302608A68C262F6
:1029D000124A90420AD0124A904207D0026822F46A
:1029E000407202600268CB881A430260064A904235
:1029F00002D0094A904201D10A7B0263426942F047
:102A000001024261704700000000014000040040E4
:102A100000080040000C004000040140001000408D
:102A200000140040C2680A43C2607047CA43026192
:102A300070470246D06800EA01031069084010B1EF
:102A40000BB1012070470020FCE7426822F07002C1
:102A5000426042680A434260704781621AB9436922
:102A600043F00103436170472DE9F04704460D46EA
:102A70000027B846B94600263349601A8C4235D043
:102A80000CDC32482044E8B1B0F5806F1FD0B0F5BF
:102A9000006F21D0B0F5406F32D122E0B0F5806FE9
:102AA00029D0B0F5184F03D0B0F51C4F28D104E061
:102AB0000320FFF72BFB074623E00320FFF726FB4D
:102AC00007461EE00220FFF721FB074619E002201F
:102AD000FFF71CFB074614E00220FFF717FB074631
:102AE0000FE00220FFF712FB07460AE00220FFF783
:102AF0000DFB074605E00220FFF708FB074600E054
:102B000000BF00BFE06800F4004070B1780000EB47
:102B10005500B0FBF5F64FF6F07006EA0008C6F374
:102B2000420948EA0900A0600CE007EB5500B0FB41
:102B3000F5F64FF6F07006EA000806F00F0948EACD
:102B40000900A060BDE8F0870078004000BCFFBF2E
:102B5000C1F308024260704710B504463349601A59
:102B60008C424DD00CDC32482044E0B1B0F5806F8F
:102B700022D0B0F5006F31D0B0F5406F52D136E0C1
:102B8000B0F5806F45D0B0F5184F03D0B0F51C4FAD
:102B900048D11AE040F60410FFF76EFB40F604102F
:102BA000FFF758FB3FE040F61100FFF765FB40F6EA
:102BB0001100FFF74FFB36E040F61200FFF75CFB19
:102BC00040F61200FFF746FB2DE040F60510FFF738
:102BD00053FB40F60510FFF73DFB24E040F61300E1
:102BE000FFF74AFB40F61300FFF734FB1BE040F60B
:102BF0001400FFF741FB40F61400FFF72BFB12E037
:102C000040F61E00FFF738FB40F61E00FFF722FBE0
:102C100009E040F61F00FFF72FFB40F61F00FFF70B
:102C200019FB00E000BF00BF10BD000000780040AD
:102C300000BCFFBFC16841F40051C160704710B5CE
:102C4000024602EB9110006801F01F040123A3402B
:102C5000184008B1012010BD0020FCE710B5044663
:102C60004FF44060FFF7E4FA4FF44060FFF7E0FAFA
:102C700041F20410FFF7DCFA4FF4007207212048FC
:102C8000FFF732F84FF4806207211D48FFF72CF858
:102C90004FF40073012202211948FFF762F84FF444
:102CA0008063012202211648FFF75BF84FF400739E
:102CB000022200211248FFF77BF84FF480630222C2
:102CC00000210F48FFF774F80E48FFF745FF214633
:102CD0000C48FFF7C9FE00210A4800F015F8002152
:102CE000084800F039F80021064800F025F80548AA
:102CF000FFF7A0FF0821034800F026F810BD0000F0
:102D00000000024000100140C26822F4C062C260AC
:102D1000C2680A43C260704710B5044621460548A0
:102D2000FFF716FF00BF07210248FFF788FF0028C2
:102D3000F9D010BD00100140026922F44052026136
:102D400002690A43026170470A460021C16821F006
:102D500008011143C1607047C26822F48052C2600A
:102D6000C2680A43C2607047000000000000000013
:102D70000000000000000000000000000000000053
:102D80000000000000000000000000000000000043
:102D900000000000000000000000FFFFFFFFFFFF39
:102DA000FFFFFFFFFFFFFFFFFFFFFFFFFFFFFFFF33
:102DB000FFFFFFFFFFFFFFFFFFFFFFFFFFFFFFFF23
:102DC000FFFFFFFFFFFFFFFFFFFFFFFFFFFCFAF723
:102DD000F5F2F0EDEBE8E6E3E0DEDBD9D6D4D1CFD7
:102DE000CCC9C7C4C2BFBDBAB8B5B3B0ADABA8A655
:102DF000A3A19E9C999694918F8C8A878582807DD1
:102E00007A787573706E6B696663615E5C5957544E
:102E1000524F4D4A474542403D3B383633302E2BCA
:102E2000292624211F1C1A1714120F0D0A08050346
:102E3000000305080A0D0F1215171A1C1F2124275D
:102E4000292C2E313436393B3E404346484B4D50B9
:102E50005255585A5D5F6264676A6C6F7174767917
:102E60007C7E818386898B8E909395989B9DA0A272
:102E7000A5A7AAADAFB2B4B7B9BCBFC1C4C6C9CBD0
:102E8000CED1D3D6D8DBDEE0E3E5E8EAEDF0F2F52B
:102E9000F7FAFCFF00050A0F141A1F24292E3338F5
:102EA0003D42474D52575C61666B70757A80858AEA
:102EB0008F94999EA3A8ADB3B8BDC2C7CCD1D6DBC1
:102EC000E0E6EBF0F5FAFFFAF5F0EBE6E0DBD6D161
:102ED000CCC7C2BDB8B3ADA8A39E99948F8A858094
:102EE0007A75706B66615C57524D47423D38332EA0
:102EF00029241F1A140F0A0580889098A0A8AFB63D
:102F0000BEC5CBD2D8DDE3E8ECF0F4F7FAFCFEFE68
:102F1000FFFFFFFEFEFCFAF7F4F0ECE8E3DDD8D2A9
:102F2000CBC5BEB6AFA8A09890888078706860586E
:102F3000514A423B352E28231D1814100C09060453
:102F4000020100000001020406090C1014181D23E0
:102F5000282E353B424A5158606870787C2F000813
:102F6000000000201C000000100C0008982F000832
:102F70001C000020C4350000200C000800000000E8
:102F80000000000000C2EB0B000000000000000089
:082F9000000000000000000039
:04000005080001AD41
:00000001FF
