Component: ARM Compiler 5.06 update 7 (build 960) Tool: armlink [4d3601]

==============================================================================

Section Cross References

    systick.o(i.delay_1ms) refers to systick.o(.data) for delay
    systick.o(i.delay_decrement) refers to systick.o(.data) for delay
    systick.o(i.systick_config) refers to systick.o(i.NVIC_SetPriority) for NVIC_SetPriority
    systick.o(i.systick_config) refers to system_gd32f4xx.o(.data) for SystemCoreClock
    main.o(i.DMA1_Channel0_IRQHandler) refers to gd32f4xx_gpio.o(i.gpio_bit_toggle) for gpio_bit_toggle
    main.o(i.DMA1_Channel0_IRQHandler) refers to gd32f4xx_dma.o(i.dma_interrupt_flag_get) for dma_interrupt_flag_get
    main.o(i.DMA1_Channel0_IRQHandler) refers to gd32f4xx_dma.o(i.dma_interrupt_flag_clear) for dma_interrupt_flag_clear
    main.o(i.DMA1_Channel0_IRQHandler) refers to bsp_adc.o(.data) for adc_dma_ok
    main.o(i.TIMER3_IRQHandler) refers to gd32f4xx_timer.o(i.timer_interrupt_flag_clear) for timer_interrupt_flag_clear
    main.o(i.TIMER3_IRQHandler) refers to gd32f4xx_gpio.o(i.gpio_bit_toggle) for gpio_bit_toggle
    main.o(i.TIMER3_IRQHandler) refers to bsp_lcd.o(i.LCD_Show_Gram) for LCD_Show_Gram
    main.o(i.TIMER3_IRQHandler) refers to gd32f4xx_gpio.o(i.gpio_input_bit_get) for gpio_input_bit_get
    main.o(i.TIMER3_IRQHandler) refers to bsp_gui.o(.data) for Show_Star
    main.o(i.TIMER3_IRQHandler) refers to bsp_gui.o(.ARM.__AT_0xC0000000) for Show_GramA
    main.o(i.TIMER3_IRQHandler) refers to bsp_gui.o(.ARM.__AT_0xC0025800) for Show_GramB
    main.o(i.TIMER3_IRQHandler) refers to bsp_key.o(.bss) for key
    main.o(i.main) refers to gd32f4xx_misc.o(i.nvic_priority_group_set) for nvic_priority_group_set
    main.o(i.main) refers to systick.o(i.systick_config) for systick_config
==============================================================================

Removing Unused input sections from the image.

    Removing systick.o(.rev16_text), (4 bytes).
    Removing systick.o(.revsh_text), (4 bytes).
    Removing main.o(.rev16_text), (4 bytes).
    Removing main.o(.revsh_text), (4 bytes).
    Removing gd32f4xx_it.o(.rev16_text), (4 bytes).
    Removing gd32f4xx_it.o(.revsh_text), (4 bytes).
    Removing sys.o(.rev16_text), (4 bytes).
    Removing sys.o(.revsh_text), (4 bytes).
    Removing system_gd32f4xx.o(.rev16_text), (4 bytes).
    Removing system_gd32f4xx.o(.revsh_text), (4 bytes).
    Removing system_gd32f4xx.o(i.SystemCoreClockUpdate), (272 bytes).
    Removing startup_gd32f450_470.o(HEAP), (1024 bytes).
    Removing bsp_led.o(.rev16_text), (4 bytes).
    Removing bsp_led.o(.revsh_text), (4 bytes).
    Removing bsp_usart.o(.rev16_text), (4 bytes).
    Removing bsp_usart.o(.revsh_text), (4 bytes).
    Removing bsp_usart.o(i.usart_send_string), (24 bytes).
    Removing bsp_key.o(.rev16_text), (4 bytes).
==============================================================================

Image Symbol Table

    Local Symbols

    Symbol Name                              Value     Ov Type        Size  Object(Section)

    ../clib/microlib/division.c              0x00000000   Number         0  uldiv.o ABSOLUTE
    ../clib/microlib/division.c              0x00000000   Number         0  uidiv.o ABSOLUTE
    ../clib/microlib/init/entry.s            0x00000000   Number         0  entry10b.o ABSOLUTE
    ../clib/microlib/init/entry.s            0x00000000   Number         0  entry9b.o ABSOLUTE
    ../clib/microlib/init/entry.s            0x00000000   Number         0  entry7b.o ABSOLUTE
    ../clib/microlib/init/entry.s            0x00000000   Number         0  entry.o ABSOLUTE
    ../clib/microlib/init/entry.s            0x00000000   Number         0  entry7a.o ABSOLUTE
    ../clib/microlib/init/entry.s            0x00000000   Number         0  entry12b.o ABSOLUTE
    ../clib/microlib/init/entry.s            0x00000000   Number         0  entry12a.o ABSOLUTE
    ../clib/microlib/init/entry.s            0x00000000   Number         0  entry11b.o ABSOLUTE
    ../clib/microlib/init/entry.s            0x00000000   Number         0  entry5.o ABSOLUTE
    ../clib/microlib/init/entry.s            0x00000000   Number         0  entry2.o ABSOLUTE
    ../clib/microlib/init/entry.s            0x00000000   Number         0  entry9a.o ABSOLUTE
    ../clib/microlib/init/entry.s            0x00000000   Number         0  entry8b.o ABSOLUTE
    ../clib/microlib/init/entry.s            0x00000000   Number         0  entry11a.o ABSOLUTE
    ../clib/microlib/init/entry.s            0x00000000   Number         0  entry8a.o ABSOLUTE
    ../clib/microlib/init/entry.s            0x00000000   Number         0  entry10a.o ABSOLUTE
    ../clib/microlib/longlong.c              0x00000000   Number         0  llsshr.o ABSOLUTE
    ../clib/microlib/longlong.c              0x00000000   Number         0  llushr.o ABSOLUTE
    ../clib/microlib/longlong.c              0x00000000   Number         0  llshl.o ABSOLUTE
    ../clib/microlib/printf/printf.c         0x00000000   Number         0  printf4.o ABSOLUTE
    ../clib/microlib/printf/printf.c         0x00000000   Number         0  printf2.o ABSOLUTE
    ../clib/microlib/printf/printf.c         0x00000000   Number         0  printf7.o ABSOLUTE
    ../clib/microlib/printf/printf.c         0x00000000   Number         0  printfa.o ABSOLUTE
    ../clib/microlib/printf/printf.c         0x00000000   Number         0  printf6.o ABSOLUTE
    ../clib/microlib/printf/printf.c         0x00000000   Number         0  printf3.o ABSOLUTE
    ../clib/microlib/printf/printf.c         0x00000000   Number         0  printf8.o ABSOLUTE
    ../clib/microlib/printf/printf.c         0x00000000   Number         0  printf5.o ABSOLUTE
    ../clib/microlib/printf/printf.c         0x00000000   Number         0  printfb.o ABSOLUTE
    ../clib/microlib/printf/printf.c         0x00000000   Number         0  printf0.o ABSOLUTE
    ../clib/microlib/printf/printf.c         0x00000000   Number         0  printf1.o ABSOLUTE
    ../clib/microlib/stdio/streams.c         0x00000000   Number         0  stdout.o ABSOLUTE
    ../clib/microlib/stubs.s                 0x00000000   Number         0  iusefp.o ABSOLUTE
    ../fplib/microlib/fpadd.c                0x00000000   Number         0  dadd.o ABSOLUTE
    ../fplib/microlib/fpdiv.c                0x00000000   Number         0  ddiv.o ABSOLUTE
    ../fplib/microlib/fpepilogue.c           0x00000000   Number         0  depilogue.o ABSOLUTE
    ../fplib/microlib/fpfix.c                0x00000000   Number         0  dfixul.o ABSOLUTE
    ../fplib/microlib/fpmul.c                0x00000000   Number         0  dmul.o ABSOLUTE
    ..\CommonTables\arm_common_tables.c      0x00000000   Number         0  arm_common_tables.o ABSOLUTE
    ..\ComplexMathFunctions\arm_cmplx_mag_f32.c 0x00000000   Number         0  arm_cmplx_mag_f32.o ABSOLUTE
    ..\Firmware\CMSIS\GD\GD32F4xx\Source\ARM\startup_gd32f450_470.s 0x00000000   Number         0  startup_gd32f450_470.o ABSOLUTE
    ..\Firmware\CMSIS\GD\GD32F4xx\Source\system_gd32f4xx.c 0x00000000   Number         0  system_gd32f4xx.o ABSOLUTE
    ..\Firmware\GD32F4xx_standard_peripheral\Source\gd32f4xx_adc.c 0x00000000   Number         0  gd32f4xx_adc.o ABSOLUTE
    ..\Firmware\GD32F4xx_standard_peripheral\Source\gd32f4xx_dac.c 0x00000000   Number         0  gd32f4xx_dac.o ABSOLUTE
    ..\Firmware\GD32F4xx_standard_peripheral\Source\gd32f4xx_dma.c 0x00000000   Number         0  gd32f4xx_dma.o ABSOLUTE
    ..\Firmware\GD32F4xx_standard_peripheral\Source\gd32f4xx_exmc.c 0x00000000   Number         0  gd32f4xx_exmc.o ABSOLUTE
    ..\Firmware\GD32F4xx_standard_peripheral\Source\gd32f4xx_exti.c 0x00000000   Number         0  gd32f4xx_exti.o ABSOLUTE
    ..\Firmware\GD32F4xx_standard_peripheral\Source\gd32f4xx_gpio.c 0x00000000   Number         0  gd32f4xx_gpio.o ABSOLUTE
    ..\Firmware\GD32F4xx_standard_peripheral\Source\gd32f4xx_misc.c 0x00000000   Number         0  gd32f4xx_misc.o ABSOLUTE
    ..\Firmware\GD32F4xx_standard_peripheral\Source\gd32f4xx_rcu.c 0x00000000   Number         0  gd32f4xx_rcu.o ABSOLUTE
    ..\Firmware\GD32F4xx_standard_peripheral\Source\gd32f4xx_spi.c 0x00000000   Number         0  gd32f4xx_spi.o ABSOLUTE
    ..\Firmware\GD32F4xx_standard_peripheral\Source\gd32f4xx_syscfg.c 0x00000000   Number         0  gd32f4xx_syscfg.o ABSOLUTE
    ..\Firmware\GD32F4xx_standard_peripheral\Source\gd32f4xx_timer.c 0x00000000   Number         0  gd32f4xx_timer.o ABSOLUTE
    ..\Firmware\GD32F4xx_standard_peripheral\Source\gd32f4xx_usart.c 0x00000000   Number         0  gd32f4xx_usart.o ABSOLUTE
    ..\Hardware\SDRAM\exmc_sdram.c           0x00000000   Number         0  exmc_sdram.o ABSOLUTE
    ..\Hardware\adc\bsp_adc.c                0x00000000   Number         0  bsp_adc.o ABSOLUTE
    ..\Hardware\dac\bsp_dac.c                0x00000000   Number         0  bsp_dac.o ABSOLUTE
    ..\Hardware\key\bsp_key.c                0x00000000   Number         0  bsp_key.o ABSOLUTE
    ..\Hardware\lcd\bsp_gui.c                0x00000000   Number         0  bsp_gui.o ABSOLUTE
    ..\Hardware\lcd\bsp_lcd.c                0x00000000   Number         0  bsp_lcd.o ABSOLUTE
    ..\Hardware\lcd\bsp_spi.c                0x00000000   Number         0  bsp_spi.o ABSOLUTE
    ..\Hardware\led\bsp_led.c                0x00000000   Number         0  bsp_led.o ABSOLUTE
    ..\Hardware\timer\bsp_basic_timer.c      0x00000000   Number         0  bsp_basic_timer.o ABSOLUTE
    ..\Hardware\usart\bsp_usart.c            0x00000000   Number         0  bsp_usart.o ABSOLUTE
    ..\TransformFunctions\arm_bitreversal.c  0x00000000   Number         0  arm_bitreversal.o ABSOLUTE
    ..\TransformFunctions\arm_cfft_radix4_f32.c 0x00000000   Number         0  arm_cfft_radix4_f32.o ABSOLUTE
    ..\TransformFunctions\arm_cfft_radix4_init_f32.c 0x00000000   Number         0  arm_cfft_radix4_init_f32.o ABSOLUTE
    ..\User\gd32f4xx_it.c                    0x00000000   Number         0  gd32f4xx_it.o ABSOLUTE
    ..\User\main.c                           0x00000000   Number         0  main.o ABSOLUTE
    ..\User\sys.c                            0x00000000   Number         0  sys.o ABSOLUTE
    ..\User\systick.c                        0x00000000   Number         0  systick.o ABSOLUTE
    ..\\CommonTables\\arm_common_tables.c    0x00000000   Number         0  arm_common_tables.o ABSOLUTE
    ..\\ComplexMathFunctions\\arm_cmplx_mag_f32.c 0x00000000   Number         0  arm_cmplx_mag_f32.o ABSOLUTE
    ..\\Firmware\\CMSIS\\GD\\GD32F4xx\\Source\\system_gd32f4xx.c 0x00000000   Number         0  system_gd32f4xx.o ABSOLUTE
    ..\\Firmware\\GD32F4xx_standard_peripheral\\Source\\gd32f4xx_adc.c 0x00000000   Number         0  gd32f4xx_adc.o ABSOLUTE
    ..\\Firmware\\GD32F4xx_standard_peripheral\\Source\\gd32f4xx_dac.c 0x00000000   Number         0  gd32f4xx_dac.o ABSOLUTE
    ..\\Firmware\\GD32F4xx_standard_peripheral\\Source\\gd32f4xx_dma.c 0x00000000   Number         0  gd32f4xx_dma.o ABSOLUTE
    ..\\Firmware\\GD32F4xx_standard_peripheral\\Source\\gd32f4xx_exmc.c 0x00000000   Number         0  gd32f4xx_exmc.o ABSOLUTE
    ..\\Firmware\\GD32F4xx_standard_peripheral\\Source\\gd32f4xx_exti.c 0x00000000   Number         0  gd32f4xx_exti.o ABSOLUTE
    ..\\Firmware\\GD32F4xx_standard_peripheral\\Source\\gd32f4xx_gpio.c 0x00000000   Number         0  gd32f4xx_gpio.o ABSOLUTE
    ..\\Firmware\\GD32F4xx_standard_peripheral\\Source\\gd32f4xx_misc.c 0x00000000   Number         0  gd32f4xx_misc.o ABSOLUTE
    ..\\Firmware\\GD32F4xx_standard_peripheral\\Source\\gd32f4xx_rcu.c 0x00000000   Number         0  gd32f4xx_rcu.o ABSOLUTE
    ..\\Firmware\\GD32F4xx_standard_peripheral\\Source\\gd32f4xx_spi.c 0x00000000   Number         0  gd32f4xx_spi.o ABSOLUTE
    ..\\Firmware\\GD32F4xx_standard_peripheral\\Source\\gd32f4xx_syscfg.c 0x00000000   Number         0  gd32f4xx_syscfg.o ABSOLUTE
    ..\\Firmware\\GD32F4xx_standard_peripheral\\Source\\gd32f4xx_timer.c 0x00000000   Number         0  gd32f4xx_timer.o ABSOLUTE
    ..\\Firmware\\GD32F4xx_standard_peripheral\\Source\\gd32f4xx_usart.c 0x00000000   Number         0  gd32f4xx_usart.o ABSOLUTE
    ..\\Hardware\\SDRAM\\exmc_sdram.c        0x00000000   Number         0  exmc_sdram.o ABSOLUTE
    ..\\Hardware\\adc\\bsp_adc.c             0x00000000   Number         0  bsp_adc.o ABSOLUTE
    ..\\Hardware\\dac\\bsp_dac.c             0x00000000   Number         0  bsp_dac.o ABSOLUTE
    ..\\Hardware\\key\\bsp_key.c             0x00000000   Number         0  bsp_key.o ABSOLUTE
    ..\\Hardware\\lcd\\bsp_gui.c             0x00000000   Number         0  bsp_gui.o ABSOLUTE
    ..\\Hardware\\lcd\\bsp_lcd.c             0x00000000   Number         0  bsp_lcd.o ABSOLUTE
    ..\\Hardware\\lcd\\bsp_spi.c             0x00000000   Number         0  bsp_spi.o ABSOLUTE
    ..\\Hardware\\led\\bsp_led.c             0x00000000   Number         0  bsp_led.o ABSOLUTE
    ..\\Hardware\\timer\\bsp_basic_timer.c   0x00000000   Number         0  bsp_basic_timer.o ABSOLUTE
    ..\\Hardware\\usart\\bsp_usart.c         0x00000000   Number         0  bsp_usart.o ABSOLUTE
    ..\\TransformFunctions\\arm_bitreversal.c 0x00000000   Number         0  arm_bitreversal.o ABSOLUTE
    ..\\TransformFunctions\\arm_cfft_radix4_f32.c 0x00000000   Number         0  arm_cfft_radix4_f32.o ABSOLUTE
    ..\\TransformFunctions\\arm_cfft_radix4_init_f32.c 0x00000000   Number         0  arm_cfft_radix4_init_f32.o ABSOLUTE
    ..\\User\\gd32f4xx_it.c                  0x00000000   Number         0  gd32f4xx_it.o ABSOLUTE
    ..\\User\\main.c                         0x00000000   Number         0  main.o ABSOLUTE
    ..\\User\\sys.c                          0x00000000   Number         0  sys.o ABSOLUTE
    ..\\User\\systick.c                      0x00000000   Number         0  systick.o ABSOLUTE
    cdrcmple.s                               0x00000000   Number         0  cdrcmple.o ABSOLUTE
    dc.s                                     0x00000000   Number         0  dc.o ABSOLUTE
    handlers.s                               0x00000000   Number         0  handlers.o ABSOLUTE
    init.s                                   0x00000000   Number         0  init.o ABSOLUTE
    RESET                                    0x08000000   Section      428  startup_gd32f450_470.o(RESET)
    .ARM.Collect$$$$00000000                 0x080001ac   Section        0  entry.o(.ARM.Collect$$$$00000000)
    .ARM.Collect$$$$00000001                 0x080001ac   Section        4  entry2.o(.ARM.Collect$$$$00000001)
    .ARM.Collect$$$$00000004                 0x080001b0   Section        4  entry5.o(.ARM.Collect$$$$00000004)
    .ARM.Collect$$$$00000008                 0x080001b4   Section        0  entry7b.o(.ARM.Collect$$$$00000008)
    .ARM.Collect$$$$0000000A                 0x080001b4   Section        0  entry8b.o(.ARM.Collect$$$$0000000A)
    .ARM.Collect$$$$0000000B                 0x080001b4   Section        8  entry9a.o(.ARM.Collect$$$$0000000B)
    .ARM.Collect$$$$0000000E                 0x080001bc   Section        4  entry12b.o(.ARM.Collect$$$$0000000E)
    .ARM.Collect$$$$0000000F                 0x080001c0   Section        0  entry10a.o(.ARM.Collect$$$$0000000F)
    .ARM.Collect$$$$00000011                 0x080001c0   Section        0  entry11a.o(.ARM.Collect$$$$00000011)
    .ARM.Collect$$$$00002712                 0x080001c0   Section        4  entry2.o(.ARM.Collect$$$$00002712)
    __lit__00000000                          0x080001c0   Data           4  entry2.o(.ARM.Collect$$$$00002712)
    .text                                    0x080001c4   Section       36  startup_gd32f450_470.o(.text)
    $v0                                      0x080001c4   Number         0  startup_gd32f450_470.o(.text)
    .text                                    0x080001e8   Section        0  arm_cmplx_mag_f32.o(.text)
    .text                                    0x080002e4   Section        0  arm_cfft_radix4_f32.o(.text)
    .text                                    0x08000984   Section        0  arm_cfft_radix4_init_f32.o(.text)
    .text                                    0x08000a44   Section        0  arm_bitreversal.o(.text)
    .text                                    0x08000c1c   Section       36  init.o(.text)
    i.BusFault_Handler                       0x08000c40   Section        0  gd32f4xx_it.o(i.BusFault_Handler)
    i.DMA0_Channel5_IRQHandler               0x08000c44   Section        0  bsp_lcd.o(i.DMA0_Channel5_IRQHandler)
    i.DMA1_Channel0_IRQHandler               0x08000cdc   Section        0  main.o(i.DMA1_Channel0_IRQHandler)
    i.Dac_Show_Wav                           0x08000d24   Section        0  bsp_dac.o(i.Dac_Show_Wav)
    i.Dac_Time_Hz                            0x08000d58   Section        0  bsp_dac.o(i.Dac_Time_Hz)
    i.DebugMon_Handler                       0x08000db8   Section        0  gd32f4xx_it.o(i.DebugMon_Handler)
    i.HardFault_Handler                      0x08000dba   Section        0  gd32f4xx_it.o(i.HardFault_Handler)
    i.Key_Make_Set                           0x08000dc0   Section        0  bsp_gui.o(i.Key_Make_Set)
    i.LCD_Address_Set                        0x08001b90   Section        0  bsp_lcd.o(i.LCD_Address_Set)
    i.LCD_GPIO_Init                          0x08001bcc   Section        0  bsp_lcd.o(i.LCD_GPIO_Init)
    i.LCD_Init                               0x08001c28   Section        0  bsp_lcd.o(i.LCD_Init)
    i.LCD_Pow                                0x08001de0   Section        0  bsp_gui.o(i.LCD_Pow)
    i.LCD_ShowChar                           0x08001df8   Section        0  bsp_gui.o(i.LCD_ShowChar)
    i.LCD_ShowNum                            0x08001f20   Section        0  bsp_gui.o(i.LCD_ShowNum)
    i.LCD_ShowString                         0x08001fb4   Section        0  bsp_gui.o(i.LCD_ShowString)
    i.LCD_Show_Gram                          0x08002020   Section        0  bsp_lcd.o(i.LCD_Show_Gram)
    i.LCD_WR_DATA                            0x08002080   Section        0  bsp_lcd.o(i.LCD_WR_DATA)
    i.LCD_WR_DATA8                           0x08002092   Section        0  bsp_lcd.o(i.LCD_WR_DATA8)
    i.LCD_WR_REG                             0x080020a0   Section        0  bsp_lcd.o(i.LCD_WR_REG)
    i.LCD_Writ_Bus                           0x080020c0   Section        0  bsp_lcd.o(i.LCD_Writ_Bus)
    i.LTDC_Draw_Point                        0x080020e0   Section        0  bsp_gui.o(i.LTDC_Draw_Point)
    i.Lcd_Gram_Bmp                           0x080020f0   Section        0  bsp_gui.o(i.Lcd_Gram_Bmp)
    i.Lcd_Gram_Fill                          0x08002110   Section        0  bsp_gui.o(i.Lcd_Gram_Fill)
    i.Lcd_Show_Bmp                           0x08002128   Section        0  bsp_gui.o(i.Lcd_Show_Bmp)
    i.Lcd_Show_Data                          0x08002208   Section        0  bsp_gui.o(i.Lcd_Show_Data)
    i.Lcd_Show_Lin                           0x08002508   Section        0  bsp_gui.o(i.Lcd_Show_Lin)
    i.Lcd_Show_Time                          0x08002564   Section        0  bsp_gui.o(i.Lcd_Show_Time)
    i.Lcd_Show_Wav                           0x080025c4   Section        0  bsp_gui.o(i.Lcd_Show_Wav)
    i.MemManage_Handler                      0x080029c8   Section        0  gd32f4xx_it.o(i.MemManage_Handler)
    i.NMI_Handler                            0x080029cc   Section        0  gd32f4xx_it.o(i.NMI_Handler)
    i.NVIC_SetPriority                       0x080029d0   Section        0  systick.o(i.NVIC_SetPriority)
    NVIC_SetPriority                         0x080029d1   Thumb Code    32  systick.o(i.NVIC_SetPriority)
    i.PendSV_Handler                         0x080029f8   Section        0  gd32f4xx_it.o(i.PendSV_Handler)
    i.SVC_Handler                            0x080029fa   Section        0  gd32f4xx_it.o(i.SVC_Handler)
    i.Spi2_Dma_Init                          0x080029fc   Section        0  bsp_spi.o(i.Spi2_Dma_Init)
    i.Spi2_Init                              0x08002a6c   Section        0  bsp_spi.o(i.Spi2_Init)
    i.Spi2_ReadWriteByte                     0x08002ae8   Section        0  bsp_spi.o(i.Spi2_ReadWriteByte)
    i.SysTick_Handler                        0x08002b2c   Section        0  gd32f4xx_it.o(i.SysTick_Handler)
    i.SystemInit                             0x08002b34   Section        0  system_gd32f4xx.o(i.SystemInit)
    i.TIMER3_IRQHandler                      0x08002bfc   Section        0  main.o(i.TIMER3_IRQHandler)
    i.TIMER5_DAC_IRQHandler                  0x08002dec   Section        0  bsp_basic_timer.o(i.TIMER5_DAC_IRQHandler)
    i.UsageFault_Handler                     0x08002e28   Section        0  gd32f4xx_it.o(i.UsageFault_Handler)
    i.__0printf$bare                         0x08002e2c   Section        0  printfb.o(i.__0printf$bare)
    i.__scatterload_copy                     0x08002e3c   Section       14  handlers.o(i.__scatterload_copy)
    i.__scatterload_null                     0x08002e4a   Section        2  handlers.o(i.__scatterload_null)
    i.__scatterload_zeroinit                 0x08002e4c   Section       14  handlers.o(i.__scatterload_zeroinit)
    i._printf_core                           0x08002e5a   Section        0  printfb.o(i._printf_core)
    _printf_core                             0x08002e5b   Thumb Code    34  printfb.o(i._printf_core)
    i.adc_calibration_enable                 0x08002e7c   Section        0  gd32f4xx_adc.o(i.adc_calibration_enable)
    i.adc_channel_length_config              0x08002ea6   Section        0  gd32f4xx_adc.o(i.adc_channel_length_config)
    i.adc_clock_config                       0x08002ef8   Section        0  gd32f4xx_adc.o(i.adc_clock_config)
    i.adc_config                             0x08002f1c   Section        0  bsp_adc.o(i.adc_config)
    i.adc_data_alignment_config              0x080030ac   Section        0  gd32f4xx_adc.o(i.adc_data_alignment_config)
    i.adc_dma_mode_enable                    0x080030c2   Section        0  gd32f4xx_adc.o(i.adc_dma_mode_enable)
    i.adc_dma_request_after_last_enable      0x080030cc   Section        0  gd32f4xx_adc.o(i.adc_dma_request_after_last_enable)
    i.adc_enable                             0x080030d6   Section        0  gd32f4xx_adc.o(i.adc_enable)
    i.adc_external_trigger_config            0x080030e8   Section        0  gd32f4xx_adc.o(i.adc_external_trigger_config)
    i.adc_external_trigger_source_config     0x0800311c   Section        0  gd32f4xx_adc.o(i.adc_external_trigger_source_config)
    i.adc_power_set                          0x0800314c   Section        0  bsp_adc.o(i.adc_power_set)
    i.adc_regular_channel_config             0x08003166   Section        0  gd32f4xx_adc.o(i.adc_regular_channel_config)
    i.adc_resolution_config                  0x08003212   Section        0  gd32f4xx_adc.o(i.adc_resolution_config)
    i.adc_setio_init                         0x08003224   Section        0  bsp_adc.o(i.adc_setio_init)
    i.adc_speed_set                          0x08003298   Section        0  bsp_adc.o(i.adc_speed_set)
    i.alternating_direct_set                 0x080032a8   Section        0  bsp_adc.o(i.alternating_direct_set)
    i.dac_config                             0x080032cc   Section        0  bsp_dac.o(i.dac_config)
    i.dac_deinit                             0x080033a0   Section        0  gd32f4xx_dac.o(i.dac_deinit)
    i.dac_dma_enable                         0x080033b4   Section        0  gd32f4xx_dac.o(i.dac_dma_enable)
    i.dac_enable                             0x080033d8   Section        0  gd32f4xx_dac.o(i.dac_enable)
    i.dac_output_buffer_enable               0x080033fc   Section        0  gd32f4xx_dac.o(i.dac_output_buffer_enable)
    i.dac_trigger_enable                     0x08003420   Section        0  gd32f4xx_dac.o(i.dac_trigger_enable)
    i.dac_trigger_source_config              0x08003444   Section        0  gd32f4xx_dac.o(i.dac_trigger_source_config)
    i.dac_wave_mode_config                   0x08003478   Section        0  gd32f4xx_dac.o(i.dac_wave_mode_config)
    i.delay_1ms                              0x080034ac   Section        0  systick.o(i.delay_1ms)
    i.delay_decrement                        0x080034c0   Section        0  systick.o(i.delay_decrement)
    i.dma_channel_enable                     0x080034d8   Section        0  gd32f4xx_dma.o(i.dma_channel_enable)
    i.dma_channel_subperipheral_select       0x080034f8   Section        0  gd32f4xx_dma.o(i.dma_channel_subperipheral_select)
    i.dma_circulation_disable                0x0800351e   Section        0  gd32f4xx_dma.o(i.dma_circulation_disable)
    i.dma_circulation_enable                 0x0800353e   Section        0  gd32f4xx_dma.o(i.dma_circulation_enable)
    i.dma_deinit                             0x0800355e   Section        0  gd32f4xx_dma.o(i.dma_deinit)
    i.dma_interrupt_enable                   0x08003602   Section        0  gd32f4xx_dma.o(i.dma_interrupt_enable)
    i.dma_interrupt_flag_clear               0x08003640   Section        0  gd32f4xx_dma.o(i.dma_interrupt_flag_clear)
    i.dma_interrupt_flag_get                 0x0800367e   Section        0  gd32f4xx_dma.o(i.dma_interrupt_flag_get)
    i.dma_single_data_mode_init              0x08003884   Section        0  gd32f4xx_dma.o(i.dma_single_data_mode_init)
    i.exmc_flag_get                          0x080039dc   Section        0  gd32f4xx_exmc.o(i.exmc_flag_get)
    i.exmc_sdram_command_config              0x08003a10   Section        0  gd32f4xx_exmc.o(i.exmc_sdram_command_config)
    i.exmc_sdram_init                        0x08003a2c   Section        0  gd32f4xx_exmc.o(i.exmc_sdram_init)
    i.exmc_sdram_refresh_count_set           0x08003b44   Section        0  gd32f4xx_exmc.o(i.exmc_sdram_refresh_count_set)
    i.exmc_synchronous_dynamic_ram_init      0x08003b68   Section        0  exmc_sdram.o(i.exmc_synchronous_dynamic_ram_init)
    i.fputc                                  0x08003dcc   Section        0  bsp_usart.o(i.fputc)
    i.gather_rate_set                        0x08003ddc   Section        0  bsp_adc.o(i.gather_rate_set)
    i.gpio_af_set                            0x08003e34   Section        0  gd32f4xx_gpio.o(i.gpio_af_set)
    i.gpio_bit_reset                         0x08003e92   Section        0  gd32f4xx_gpio.o(i.gpio_bit_reset)
    i.gpio_bit_set                           0x08003e96   Section        0  gd32f4xx_gpio.o(i.gpio_bit_set)
    i.gpio_bit_toggle                        0x08003e9a   Section        0  gd32f4xx_gpio.o(i.gpio_bit_toggle)
    i.gpio_input_bit_get                     0x08003e9e   Section        0  gd32f4xx_gpio.o(i.gpio_input_bit_get)
    i.gpio_mode_set                          0x08003eae   Section        0  gd32f4xx_gpio.o(i.gpio_mode_set)
    i.gpio_output_options_set                0x08003efc   Section        0  gd32f4xx_gpio.o(i.gpio_output_options_set)
    i.key_gpio_config                        0x08003f40   Section        0  bsp_key.o(i.key_gpio_config)
    i.led_gpio_config                        0x08003fa8   Section        0  bsp_led.o(i.led_gpio_config)
    i.main                                   0x0800403c   Section        0  main.o(i.main)
    i.nvic_irq_enable                        0x08004ad0   Section        0  gd32f4xx_misc.o(i.nvic_irq_enable)
    i.nvic_priority_group_set                0x08004b94   Section        0  gd32f4xx_misc.o(i.nvic_priority_group_set)
    i.rcu_clock_freq_get                     0x08004ba8   Section        0  gd32f4xx_rcu.o(i.rcu_clock_freq_get)
    i.rcu_periph_clock_enable                0x08004ccc   Section        0  gd32f4xx_rcu.o(i.rcu_periph_clock_enable)
    i.rcu_periph_reset_disable               0x08004cf0   Section        0  gd32f4xx_rcu.o(i.rcu_periph_reset_disable)
    i.rcu_periph_reset_enable                0x08004d14   Section        0  gd32f4xx_rcu.o(i.rcu_periph_reset_enable)
    i.rcu_timer_clock_prescaler_config       0x08004d38   Section        0  gd32f4xx_rcu.o(i.rcu_timer_clock_prescaler_config)
    i.spi_dma_enable                         0x08004d5c   Section        0  gd32f4xx_spi.o(i.spi_dma_enable)
    i.spi_enable                             0x08004d72   Section        0  gd32f4xx_spi.o(i.spi_enable)
    i.spi_i2s_data_receive                   0x08004d7c   Section        0  gd32f4xx_spi.o(i.spi_i2s_data_receive)
    i.spi_i2s_data_transmit                  0x08004d84   Section        0  gd32f4xx_spi.o(i.spi_i2s_data_transmit)
    i.spi_i2s_flag_get                       0x08004d88   Section        0  gd32f4xx_spi.o(i.spi_i2s_flag_get)
    i.spi_init                               0x08004d98   Section        0  gd32f4xx_spi.o(i.spi_init)
    i.system_clock_200m_25m_hxtal            0x08004dcc   Section        0  system_gd32f4xx.o(i.system_clock_200m_25m_hxtal)
    system_clock_200m_25m_hxtal              0x08004dcd   Thumb Code   240  system_gd32f4xx.o(i.system_clock_200m_25m_hxtal)
    i.system_clock_config                    0x08004ec8   Section        0  system_gd32f4xx.o(i.system_clock_config)
    system_clock_config                      0x08004ec9   Thumb Code     8  system_gd32f4xx.o(i.system_clock_config)
    i.systick_config                         0x08004ed0   Section        0  systick.o(i.systick_config)
    i.timer_autoreload_value_config          0x08004f20   Section        0  gd32f4xx_timer.o(i.timer_autoreload_value_config)
    i.timer_channel_output_config            0x08004f24   Section        0  gd32f4xx_timer.o(i.timer_channel_output_config)
    i.timer_channel_output_mode_config       0x08005110   Section        0  gd32f4xx_timer.o(i.timer_channel_output_mode_config)
    i.timer_channel_output_pulse_value_config 0x0800516a   Section        0  gd32f4xx_timer.o(i.timer_channel_output_pulse_value_config)
    i.timer_channel_output_shadow_config     0x08005190   Section        0  gd32f4xx_timer.o(i.timer_channel_output_shadow_config)
    i.timer_deinit                           0x080051ec   Section        0  gd32f4xx_timer.o(i.timer_deinit)
    i.timer_disable                          0x08005370   Section        0  gd32f4xx_timer.o(i.timer_disable)
    i.timer_enable                           0x0800537a   Section        0  gd32f4xx_timer.o(i.timer_enable)
    i.timer_init                             0x08005384   Section        0  gd32f4xx_timer.o(i.timer_init)
    i.timer_interrupt_enable                 0x0800541c   Section        0  gd32f4xx_timer.o(i.timer_interrupt_enable)
    i.timer_interrupt_flag_clear             0x08005424   Section        0  gd32f4xx_timer.o(i.timer_interrupt_flag_clear)
    i.timer_interrupt_flag_get               0x0800542a   Section        0  gd32f4xx_timer.o(i.timer_interrupt_flag_get)
    i.timer_master_output_trigger_source_select 0x08005442   Section        0  gd32f4xx_timer.o(i.timer_master_output_trigger_source_select)
    i.timer_prescaler_config                 0x08005452   Section        0  gd32f4xx_timer.o(i.timer_prescaler_config)
    i.usart_baudrate_set                     0x08005460   Section        0  gd32f4xx_usart.o(i.usart_baudrate_set)
    i.usart_data_transmit                    0x08005548   Section        0  gd32f4xx_usart.o(i.usart_data_transmit)
    i.usart_deinit                           0x08005550   Section        0  gd32f4xx_usart.o(i.usart_deinit)
    i.usart_enable                           0x0800562c   Section        0  gd32f4xx_usart.o(i.usart_enable)
    i.usart_flag_get                         0x08005636   Section        0  gd32f4xx_usart.o(i.usart_flag_get)
    i.usart_gpio_config                      0x08005654   Section        0  bsp_usart.o(i.usart_gpio_config)
    i.usart_parity_config                    0x08005700   Section        0  gd32f4xx_usart.o(i.usart_parity_config)
    i.usart_send_data                        0x08005710   Section        0  bsp_usart.o(i.usart_send_data)
    i.usart_stop_bit_set                     0x08005730   Section        0  gd32f4xx_usart.o(i.usart_stop_bit_set)
    i.usart_transmit_config                  0x08005740   Section        0  gd32f4xx_usart.o(i.usart_transmit_config)
    i.usart_word_length_set                  0x08005750   Section        0  gd32f4xx_usart.o(i.usart_word_length_set)
    .constdata                               0x08005760   Section    174550  bsp_gui.o(.constdata)
    .constdata                               0x08030136   Section      500  bsp_dac.o(.constdata)
    .constdata                               0x0803032a   Section     2048  arm_common_tables.o(.constdata)
    .constdata                               0x08030b2c   Section    32768  arm_common_tables.o(.constdata)
    .conststring                             0x08038b2c   Section      151  bsp_gui.o(.conststring)
    .data                                    0x20000000   Section        4  systick.o(.data)
    delay                                    0x20000000   Data           4  systick.o(.data)
    .data                                    0x20000004   Section       20  main.o(.data)
    .data                                    0x20000018   Section        4  system_gd32f4xx.o(.data)
    .data                                    0x2000001c   Section        6  bsp_lcd.o(.data)
    Show_Number                              0x20000021   Data           1  bsp_lcd.o(.data)
    .data                                    0x20000024   Section      160  bsp_gui.o(.data)
    .data                                    0x200000c4   Section        2  bsp_adc.o(.data)
    .data                                    0x200000c8   Section        4  stdout.o(.data)
    .bss                                     0x200000cc   Section    12308  main.o(.bss)
    .bss                                     0x200030e0   Section        9  bsp_key.o(.bss)
    .bss                                     0x200030ea   Section     1280  bsp_gui.o(.bss)
    .bss                                     0x200035ea   Section      100  bsp_dac.o(.bss)
    .bss                                     0x20003660   Section    12000  bsp_adc.o(.bss)
    STACK                                    0x20006540   Section     1024  startup_gd32f450_470.o(STACK)
    .ARM.__AT_0xC0000000                     0xc0000000   Section    153600  bsp_gui.o(.ARM.__AT_0xC0000000)
    .ARM.__AT_0xC0025800                     0xc0025800   Section    153600  bsp_gui.o(.ARM.__AT_0xC0025800)

    Global Symbols

    Symbol Name                              Value     Ov Type        Size  Object(Section)

    BuildAttributes$$THM_ISAv4$E$P$D$K$B$S$7EM$VFPi3$EXTD16$VFPS$VFMA$PE$A:L22UL41UL21$X:L11$S22US41US21$IEEE1$IW$USESV6$~STKCKD$USESV7$~SHL$OTIME$ROPI$IEEEX$EBA8$MICROLIB$REQ8$PRES8$EABIv2 0x00000000   Number         0  anon$$obj.o ABSOLUTE
    __ARM_use_no_argv                        0x00000000   Number         0  main.o ABSOLUTE
    __arm_fini_                               - Undefined Weak Reference
    __cpp_initialize__aeabi_                  - Undefined Weak Reference
    __cxa_finalize                            - Undefined Weak Reference
    __decompress                              - Undefined Weak Reference
    _clock_init                               - Undefined Weak Reference
    _microlib_exit                            - Undefined Weak Reference
    __Vectors_Size                           0x000001ac   Number         0  startup_gd32f450_470.o ABSOLUTE
    __Vectors                                0x08000000   Data           4  startup_gd32f450_470.o(RESET)
    __Vectors_End                            0x080001ac   Data           0  startup_gd32f450_470.o(RESET)
    __main                                   0x080001ad   Thumb Code     0  entry.o(.ARM.Collect$$$$00000000)
    _main_stk                                0x080001ad   Thumb Code     0  entry2.o(.ARM.Collect$$$$00000001)
    _main_scatterload                        0x080001b1   Thumb Code     0  entry5.o(.ARM.Collect$$$$00000004)
    __main_after_scatterload                 0x080001b5   Thumb Code     0  entry5.o(.ARM.Collect$$$$00000004)
    _main_clock                              0x080001b5   Thumb Code     0  entry7b.o(.ARM.Collect$$$$00000008)
    _main_cpp_init                           0x080001b5   Thumb Code     0  entry8b.o(.ARM.Collect$$$$0000000A)
    _main_init                               0x080001b5   Thumb Code     0  entry9a.o(.ARM.Collect$$$$0000000B)
    __rt_lib_shutdown_fini                   0x080001bd   Thumb Code     0  entry12b.o(.ARM.Collect$$$$0000000E)
    __rt_final_cpp                           0x080001c1   Thumb Code     0  entry10a.o(.ARM.Collect$$$$0000000F)
    __rt_final_exit                          0x080001c1   Thumb Code     0  entry11a.o(.ARM.Collect$$$$00000011)
    Reset_Handler                            0x080001c5   Thumb Code     8  startup_gd32f450_470.o(.text)
    ADC_IRQHandler                           0x080001df   Thumb Code     0  startup_gd32f450_470.o(.text)
    CAN0_EWMC_IRQHandler                     0x080001df   Thumb Code     0  startup_gd32f450_470.o(.text)
    CAN0_RX0_IRQHandler                      0x080001df   Thumb Code     0  startup_gd32f450_470.o(.text)
    CAN0_RX1_IRQHandler                      0x080001df   Thumb Code     0  startup_gd32f450_470.o(.text)
    CAN0_TX_IRQHandler                       0x080001df   Thumb Code     0  startup_gd32f450_470.o(.text)
    CAN1_EWMC_IRQHandler                     0x080001df   Thumb Code     0  startup_gd32f450_470.o(.text)
    CAN1_RX0_IRQHandler                      0x080001df   Thumb Code     0  startup_gd32f450_470.o(.text)
    CAN1_RX1_IRQHandler                      0x080001df   Thumb Code     0  startup_gd32f450_470.o(.text)
    CAN1_TX_IRQHandler                       0x080001df   Thumb Code     0  startup_gd32f450_470.o(.text)
    DCI_IRQHandler                           0x080001df   Thumb Code     0  startup_gd32f450_470.o(.text)
    DMA0_Channel0_IRQHandler                 0x080001df   Thumb Code     0  startup_gd32f450_470.o(.text)
    DMA0_Channel1_IRQHandler                 0x080001df   Thumb Code     0  startup_gd32f450_470.o(.text)
    DMA0_Channel2_IRQHandler                 0x080001df   Thumb Code     0  startup_gd32f450_470.o(.text)
    DMA0_Channel3_IRQHandler                 0x080001df   Thumb Code     0  startup_gd32f450_470.o(.text)
    DMA0_Channel4_IRQHandler                 0x080001df   Thumb Code     0  startup_gd32f450_470.o(.text)
    DMA0_Channel6_IRQHandler                 0x080001df   Thumb Code     0  startup_gd32f450_470.o(.text)
    DMA0_Channel7_IRQHandler                 0x080001df   Thumb Code     0  startup_gd32f450_470.o(.text)
    DMA1_Channel1_IRQHandler                 0x080001df   Thumb Code     0  startup_gd32f450_470.o(.text)
    DMA1_Channel2_IRQHandler                 0x080001df   Thumb Code     0  startup_gd32f450_470.o(.text)
    DMA1_Channel3_IRQHandler                 0x080001df   Thumb Code     0  startup_gd32f450_470.o(.text)
    DMA1_Channel4_IRQHandler                 0x080001df   Thumb Code     0  startup_gd32f450_470.o(.text)
    DMA1_Channel5_IRQHandler                 0x080001df   Thumb Code     0  startup_gd32f450_470.o(.text)
    DMA1_Channel6_IRQHandler                 0x080001df   Thumb Code     0  startup_gd32f450_470.o(.text)
    DMA1_Channel7_IRQHandler                 0x080001df   Thumb Code     0  startup_gd32f450_470.o(.text)
    ENET_IRQHandler                          0x080001df   Thumb Code     0  startup_gd32f450_470.o(.text)
    ENET_WKUP_IRQHandler                     0x080001df   Thumb Code     0  startup_gd32f450_470.o(.text)
    EXMC_IRQHandler                          0x080001df   Thumb Code     0  startup_gd32f450_470.o(.text)
    EXTI0_IRQHandler                         0x080001df   Thumb Code     0  startup_gd32f450_470.o(.text)
    EXTI10_15_IRQHandler                     0x080001df   Thumb Code     0  startup_gd32f450_470.o(.text)
    EXTI1_IRQHandler                         0x080001df   Thumb Code     0  startup_gd32f450_470.o(.text)
    EXTI2_IRQHandler                         0x080001df   Thumb Code     0  startup_gd32f450_470.o(.text)
    EXTI3_IRQHandler                         0x080001df   Thumb Code     0  startup_gd32f450_470.o(.text)
    EXTI4_IRQHandler                         0x080001df   Thumb Code     0  startup_gd32f450_470.o(.text)
    EXTI5_9_IRQHandler                       0x080001df   Thumb Code     0  startup_gd32f450_470.o(.text)
    FMC_IRQHandler                           0x080001df   Thumb Code     0  startup_gd32f450_470.o(.text)
    FPU_IRQHandler                           0x080001df   Thumb Code     0  startup_gd32f450_470.o(.text)
    I2C0_ER_IRQHandler                       0x080001df   Thumb Code     0  startup_gd32f450_470.o(.text)
    I2C0_EV_IRQHandler                       0x080001df   Thumb Code     0  startup_gd32f450_470.o(.text)
    I2C1_ER_IRQHandler                       0x080001df   Thumb Code     0  startup_gd32f450_470.o(.text)
    I2C1_EV_IRQHandler                       0x080001df   Thumb Code     0  startup_gd32f450_470.o(.text)
    I2C2_ER_IRQHandler                       0x080001df   Thumb Code     0  startup_gd32f450_470.o(.text)
    I2C2_EV_IRQHandler                       0x080001df   Thumb Code     0  startup_gd32f450_470.o(.text)
    IPA_IRQHandler                           0x080001df   Thumb Code     0  startup_gd32f450_470.o(.text)
    LVD_IRQHandler                           0x080001df   Thumb Code     0  startup_gd32f450_470.o(.text)
    RCU_CTC_IRQHandler                       0x080001df   Thumb Code     0  startup_gd32f450_470.o(.text)
    RTC_Alarm_IRQHandler                     0x080001df   Thumb Code     0  startup_gd32f450_470.o(.text)
    RTC_WKUP_IRQHandler                      0x080001df   Thumb Code     0  startup_gd32f450_470.o(.text)
    SDIO_IRQHandler                          0x080001df   Thumb Code     0  startup_gd32f450_470.o(.text)
    SPI0_IRQHandler                          0x080001df   Thumb Code     0  startup_gd32f450_470.o(.text)
    SPI1_IRQHandler                          0x080001df   Thumb Code     0  startup_gd32f450_470.o(.text)
    SPI2_IRQHandler                          0x080001df   Thumb Code     0  startup_gd32f450_470.o(.text)
    SPI3_IRQHandler                          0x080001df   Thumb Code     0  startup_gd32f450_470.o(.text)
    SPI4_IRQHandler                          0x080001df   Thumb Code     0  startup_gd32f450_470.o(.text)
    SPI5_IRQHandler                          0x080001df   Thumb Code     0  startup_gd32f450_470.o(.text)
    TAMPER_STAMP_IRQHandler                  0x080001df   Thumb Code     0  startup_gd32f450_470.o(.text)
    TIMER0_BRK_TIMER8_IRQHandler             0x080001df   Thumb Code     0  startup_gd32f450_470.o(.text)
    TIMER0_Channel_IRQHandler                0x080001df   Thumb Code     0  startup_gd32f450_470.o(.text)
    TIMER0_TRG_CMT_TIMER10_IRQHandler        0x080001df   Thumb Code     0  startup_gd32f450_470.o(.text)
    TIMER0_UP_TIMER9_IRQHandler              0x080001df   Thumb Code     0  startup_gd32f450_470.o(.text)
    TIMER1_IRQHandler                        0x080001df   Thumb Code     0  startup_gd32f450_470.o(.text)
    TIMER2_IRQHandler                        0x080001df   Thumb Code     0  startup_gd32f450_470.o(.text)
    TIMER4_IRQHandler                        0x080001df   Thumb Code     0  startup_gd32f450_470.o(.text)
    TIMER6_IRQHandler                        0x080001df   Thumb Code     0  startup_gd32f450_470.o(.text)
    TIMER7_BRK_TIMER11_IRQHandler            0x080001df   Thumb Code     0  startup_gd32f450_470.o(.text)
    TIMER7_Channel_IRQHandler                0x080001df   Thumb Code     0  startup_gd32f450_470.o(.text)
    TIMER7_TRG_CMT_TIMER13_IRQHandler        0x080001df   Thumb Code     0  startup_gd32f450_470.o(.text)
    TIMER7_UP_TIMER12_IRQHandler             0x080001df   Thumb Code     0  startup_gd32f450_470.o(.text)
    TLI_ER_IRQHandler                        0x080001df   Thumb Code     0  startup_gd32f450_470.o(.text)
    TLI_IRQHandler                           0x080001df   Thumb Code     0  startup_gd32f450_470.o(.text)
    TRNG_IRQHandler                          0x080001df   Thumb Code     0  startup_gd32f450_470.o(.text)
    UART3_IRQHandler                         0x080001df   Thumb Code     0  startup_gd32f450_470.o(.text)
    UART4_IRQHandler                         0x080001df   Thumb Code     0  startup_gd32f450_470.o(.text)
    UART6_IRQHandler                         0x080001df   Thumb Code     0  startup_gd32f450_470.o(.text)
    UART7_IRQHandler                         0x080001df   Thumb Code     0  startup_gd32f450_470.o(.text)
    USART0_IRQHandler                        0x080001df   Thumb Code     0  startup_gd32f450_470.o(.text)
    USART1_IRQHandler                        0x080001df   Thumb Code     0  startup_gd32f450_470.o(.text)
    USART2_IRQHandler                        0x080001df   Thumb Code     0  startup_gd32f450_470.o(.text)
    USART5_IRQHandler                        0x080001df   Thumb Code     0  startup_gd32f450_470.o(.text)
    USBFS_IRQHandler                         0x080001df   Thumb Code     0  startup_gd32f450_470.o(.text)
    USBFS_WKUP_IRQHandler                    0x080001df   Thumb Code     0  startup_gd32f450_470.o(.text)
    USBHS_EP1_In_IRQHandler                  0x080001df   Thumb Code     0  startup_gd32f450_470.o(.text)
    USBHS_EP1_Out_IRQHandler                 0x080001df   Thumb Code     0  startup_gd32f450_470.o(.text)
    USBHS_IRQHandler                         0x080001df   Thumb Code     0  startup_gd32f450_470.o(.text)
    USBHS_WKUP_IRQHandler                    0x080001df   Thumb Code     0  startup_gd32f450_470.o(.text)
    WWDGT_IRQHandler                         0x080001df   Thumb Code     0  startup_gd32f450_470.o(.text)
    arm_cmplx_mag_f32                        0x080001e9   Thumb Code   246  arm_cmplx_mag_f32.o(.text)
    arm_radix4_butterfly_f32                 0x080002e5   Thumb Code   800  arm_cfft_radix4_f32.o(.text)
    arm_radix4_butterfly_inverse_f32         0x08000605   Thumb Code   836  arm_cfft_radix4_f32.o(.text)
    arm_cfft_radix4_f32                      0x08000949   Thumb Code    60  arm_cfft_radix4_f32.o(.text)
    arm_cfft_radix4_init_f32                 0x08000985   Thumb Code   146  arm_cfft_radix4_init_f32.o(.text)
    arm_bitreversal_f32                      0x08000a45   Thumb Code   178  arm_bitreversal.o(.text)
    arm_bitreversal_q31                      0x08000af7   Thumb Code   170  arm_bitreversal.o(.text)
    arm_bitreversal_q15                      0x08000ba1   Thumb Code   122  arm_bitreversal.o(.text)
    __scatterload                            0x08000c1d   Thumb Code    28  init.o(.text)
    __scatterload_rt2                        0x08000c1d   Thumb Code     0  init.o(.text)
    BusFault_Handler                         0x08000c41   Thumb Code     4  gd32f4xx_it.o(i.BusFault_Handler)
    DMA0_Channel5_IRQHandler                 0x08000c45   Thumb Code   126  bsp_lcd.o(i.DMA0_Channel5_IRQHandler)
    DMA1_Channel0_IRQHandler                 0x08000cdd   Thumb Code    56  main.o(i.DMA1_Channel0_IRQHandler)
    Dac_Show_Wav                             0x08000d25   Thumb Code    42  bsp_dac.o(i.Dac_Show_Wav)
    Dac_Time_Hz                              0x08000d59   Thumb Code    82  bsp_dac.o(i.Dac_Time_Hz)
    DebugMon_Handler                         0x08000db9   Thumb Code     2  gd32f4xx_it.o(i.DebugMon_Handler)
    HardFault_Handler                        0x08000dbb   Thumb Code     4  gd32f4xx_it.o(i.HardFault_Handler)
    Key_Make_Set                             0x08000dc1   Thumb Code  3516  bsp_gui.o(i.Key_Make_Set)
    LCD_Address_Set                          0x08001b91   Thumb Code    58  bsp_lcd.o(i.LCD_Address_Set)
    LCD_GPIO_Init                            0x08001bcd   Thumb Code    82  bsp_lcd.o(i.LCD_GPIO_Init)
    LCD_Init                                 0x08001c29   Thumb Code   436  bsp_lcd.o(i.LCD_Init)
    LCD_Pow                                  0x08001de1   Thumb Code    22  bsp_gui.o(i.LCD_Pow)
    LCD_ShowChar                             0x08001df9   Thumb Code   274  bsp_gui.o(i.LCD_ShowChar)
    LCD_ShowNum                              0x08001f21   Thumb Code   148  bsp_gui.o(i.LCD_ShowNum)
    LCD_ShowString                           0x08001fb5   Thumb Code   108  bsp_gui.o(i.LCD_ShowString)
    LCD_Show_Gram                            0x08002021   Thumb Code    80  bsp_lcd.o(i.LCD_Show_Gram)
    LCD_WR_DATA                              0x08002081   Thumb Code    18  bsp_lcd.o(i.LCD_WR_DATA)
    LCD_WR_DATA8                             0x08002093   Thumb Code    12  bsp_lcd.o(i.LCD_WR_DATA8)
    LCD_WR_REG                               0x080020a1   Thumb Code    28  bsp_lcd.o(i.LCD_WR_REG)
    LCD_Writ_Bus                             0x080020c1   Thumb Code    28  bsp_lcd.o(i.LCD_Writ_Bus)
    LTDC_Draw_Point                          0x080020e1   Thumb Code    16  bsp_gui.o(i.LTDC_Draw_Point)
    Lcd_Gram_Bmp                             0x080020f1   Thumb Code    26  bsp_gui.o(i.Lcd_Gram_Bmp)
    Lcd_Gram_Fill                            0x08002111   Thumb Code    22  bsp_gui.o(i.Lcd_Gram_Fill)
    Lcd_Show_Bmp                             0x08002129   Thumb Code   216  bsp_gui.o(i.Lcd_Show_Bmp)
    Lcd_Show_Data                            0x08002209   Thumb Code   698  bsp_gui.o(i.Lcd_Show_Data)
    Lcd_Show_Lin                             0x08002509   Thumb Code    92  bsp_gui.o(i.Lcd_Show_Lin)
    Lcd_Show_Time                            0x08002565   Thumb Code    90  bsp_gui.o(i.Lcd_Show_Time)
    Lcd_Show_Wav                             0x080025c5   Thumb Code   892  bsp_gui.o(i.Lcd_Show_Wav)
    MemManage_Handler                        0x080029c9   Thumb Code     4  gd32f4xx_it.o(i.MemManage_Handler)
    NMI_Handler                              0x080029cd   Thumb Code     2  gd32f4xx_it.o(i.NMI_Handler)
    PendSV_Handler                           0x080029f9   Thumb Code     2  gd32f4xx_it.o(i.PendSV_Handler)
    SVC_Handler                              0x080029fb   Thumb Code     2  gd32f4xx_it.o(i.SVC_Handler)
    Spi2_Dma_Init                            0x080029fd   Thumb Code   104  bsp_spi.o(i.Spi2_Dma_Init)
    Spi2_Init                                0x08002a6d   Thumb Code   116  bsp_spi.o(i.Spi2_Init)
    Spi2_ReadWriteByte                       0x08002ae9   Thumb Code    64  bsp_spi.o(i.Spi2_ReadWriteByte)
    SysTick_Handler                          0x08002b2d   Thumb Code     8  gd32f4xx_it.o(i.SysTick_Handler)
    SystemInit                               0x08002b35   Thumb Code   184  system_gd32f4xx.o(i.SystemInit)
    TIMER3_IRQHandler                        0x08002bfd   Thumb Code   452  main.o(i.TIMER3_IRQHandler)
    TIMER5_DAC_IRQHandler                    0x08002ded   Thumb Code    30  bsp_basic_timer.o(i.TIMER5_DAC_IRQHandler)
    UsageFault_Handler                       0x08002e29   Thumb Code     4  gd32f4xx_it.o(i.UsageFault_Handler)
    __0printf$bare                           0x08002e2d   Thumb Code     8  printfb.o(i.__0printf$bare)
    __1printf$bare                           0x08002e2d   Thumb Code     0  printfb.o(i.__0printf$bare)
    __2printf                                0x08002e2d   Thumb Code     0  printfb.o(i.__0printf$bare)
    __scatterload_copy                       0x08002e3d   Thumb Code    14  handlers.o(i.__scatterload_copy)
    __scatterload_null                       0x08002e4b   Thumb Code     2  handlers.o(i.__scatterload_null)
    __scatterload_zeroinit                   0x08002e4d   Thumb Code    14  handlers.o(i.__scatterload_zeroinit)
    adc_calibration_enable                   0x08002e7d   Thumb Code    42  gd32f4xx_adc.o(i.adc_calibration_enable)
    adc_channel_length_config                0x08002ea7   Thumb Code    82  gd32f4xx_adc.o(i.adc_channel_length_config)
    adc_clock_config                         0x08002ef9   Thumb Code    28  gd32f4xx_adc.o(i.adc_clock_config)
    adc_config                               0x08002f1d   Thumb Code   384  bsp_adc.o(i.adc_config)
    adc_data_alignment_config                0x080030ad   Thumb Code    22  gd32f4xx_adc.o(i.adc_data_alignment_config)
    adc_dma_mode_enable                      0x080030c3   Thumb Code    10  gd32f4xx_adc.o(i.adc_dma_mode_enable)
    adc_dma_request_after_last_enable        0x080030cd   Thumb Code    10  gd32f4xx_adc.o(i.adc_dma_request_after_last_enable)
    adc_enable                               0x080030d7   Thumb Code    18  gd32f4xx_adc.o(i.adc_enable)
    adc_external_trigger_config              0x080030e9   Thumb Code    52  gd32f4xx_adc.o(i.adc_external_trigger_config)
    adc_external_trigger_source_config       0x0800311d   Thumb Code    48  gd32f4xx_adc.o(i.adc_external_trigger_source_config)
    adc_power_set                            0x0800314d   Thumb Code    26  bsp_adc.o(i.adc_power_set)
    adc_regular_channel_config               0x08003167   Thumb Code   172  gd32f4xx_adc.o(i.adc_regular_channel_config)
    adc_resolution_config                    0x08003213   Thumb Code    16  gd32f4xx_adc.o(i.adc_resolution_config)
    adc_setio_init                           0x08003225   Thumb Code   106  bsp_adc.o(i.adc_setio_init)
    adc_speed_set                            0x08003299   Thumb Code    14  bsp_adc.o(i.adc_speed_set)
    alternating_direct_set                   0x080032a9   Thumb Code    30  bsp_adc.o(i.alternating_direct_set)
    dac_config                               0x080032cd   Thumb Code   192  bsp_dac.o(i.dac_config)
    dac_deinit                               0x080033a1   Thumb Code    20  gd32f4xx_dac.o(i.dac_deinit)
    dac_dma_enable                           0x080033b5   Thumb Code    30  gd32f4xx_dac.o(i.dac_dma_enable)
    dac_enable                               0x080033d9   Thumb Code    30  gd32f4xx_dac.o(i.dac_enable)
    dac_output_buffer_enable                 0x080033fd   Thumb Code    30  gd32f4xx_dac.o(i.dac_output_buffer_enable)
    dac_trigger_enable                       0x08003421   Thumb Code    30  gd32f4xx_dac.o(i.dac_trigger_enable)
    dac_trigger_source_config                0x08003445   Thumb Code    48  gd32f4xx_dac.o(i.dac_trigger_source_config)
    dac_wave_mode_config                     0x08003479   Thumb Code    48  gd32f4xx_dac.o(i.dac_wave_mode_config)
    delay_1ms                                0x080034ad   Thumb Code    16  systick.o(i.delay_1ms)
    delay_decrement                          0x080034c1   Thumb Code    18  systick.o(i.delay_decrement)
    dma_channel_enable                       0x080034d9   Thumb Code    32  gd32f4xx_dma.o(i.dma_channel_enable)
    dma_channel_subperipheral_select         0x080034f9   Thumb Code    38  gd32f4xx_dma.o(i.dma_channel_subperipheral_select)
    dma_circulation_disable                  0x0800351f   Thumb Code    32  gd32f4xx_dma.o(i.dma_circulation_disable)
    dma_circulation_enable                   0x0800353f   Thumb Code    32  gd32f4xx_dma.o(i.dma_circulation_enable)
    dma_deinit                               0x0800355f   Thumb Code   164  gd32f4xx_dma.o(i.dma_deinit)
    dma_interrupt_enable                     0x08003603   Thumb Code    62  gd32f4xx_dma.o(i.dma_interrupt_enable)
    dma_interrupt_flag_clear                 0x08003641   Thumb Code    62  gd32f4xx_dma.o(i.dma_interrupt_flag_clear)
    dma_interrupt_flag_get                   0x0800367f   Thumb Code   516  gd32f4xx_dma.o(i.dma_interrupt_flag_get)
    dma_single_data_mode_init                0x08003885   Thumb Code   340  gd32f4xx_dma.o(i.dma_single_data_mode_init)
    exmc_flag_get                            0x080039dd   Thumb Code    46  gd32f4xx_exmc.o(i.exmc_flag_get)
    exmc_sdram_command_config                0x08003a11   Thumb Code    22  gd32f4xx_exmc.o(i.exmc_sdram_command_config)
    exmc_sdram_init                          0x08003a2d   Thumb Code   272  gd32f4xx_exmc.o(i.exmc_sdram_init)
    exmc_sdram_refresh_count_set             0x08003b45   Thumb Code    30  gd32f4xx_exmc.o(i.exmc_sdram_refresh_count_set)
    exmc_synchronous_dynamic_ram_init        0x08003b69   Thumb Code   590  exmc_sdram.o(i.exmc_synchronous_dynamic_ram_init)
    fputc                                    0x08003dcd   Thumb Code    16  bsp_usart.o(i.fputc)
    gather_rate_set                          0x08003ddd   Thumb Code    82  bsp_adc.o(i.gather_rate_set)
    gpio_af_set                              0x08003e35   Thumb Code    94  gd32f4xx_gpio.o(i.gpio_af_set)
    gpio_bit_reset                           0x08003e93   Thumb Code     4  gd32f4xx_gpio.o(i.gpio_bit_reset)
    gpio_bit_set                             0x08003e97   Thumb Code     4  gd32f4xx_gpio.o(i.gpio_bit_set)
    gpio_bit_toggle                          0x08003e9b   Thumb Code     4  gd32f4xx_gpio.o(i.gpio_bit_toggle)
    gpio_input_bit_get                       0x08003e9f   Thumb Code    16  gd32f4xx_gpio.o(i.gpio_input_bit_get)
    gpio_mode_set                            0x08003eaf   Thumb Code    78  gd32f4xx_gpio.o(i.gpio_mode_set)
    gpio_output_options_set                  0x08003efd   Thumb Code    66  gd32f4xx_gpio.o(i.gpio_output_options_set)
    key_gpio_config                          0x08003f41   Thumb Code    88  bsp_key.o(i.key_gpio_config)
    led_gpio_config                          0x08003fa9   Thumb Code   132  bsp_led.o(i.led_gpio_config)
    main                                     0x0800403d   Thumb Code  2680  main.o(i.main)
    nvic_irq_enable                          0x08004ad1   Thumb Code   186  gd32f4xx_misc.o(i.nvic_irq_enable)
    nvic_priority_group_set                  0x08004b95   Thumb Code    10  gd32f4xx_misc.o(i.nvic_priority_group_set)
    rcu_clock_freq_get                       0x08004ba9   Thumb Code   264  gd32f4xx_rcu.o(i.rcu_clock_freq_get)
    rcu_periph_clock_enable                  0x08004ccd   Thumb Code    32  gd32f4xx_rcu.o(i.rcu_periph_clock_enable)
    rcu_periph_reset_disable                 0x08004cf1   Thumb Code    32  gd32f4xx_rcu.o(i.rcu_periph_reset_disable)
    rcu_periph_reset_enable                  0x08004d15   Thumb Code    32  gd32f4xx_rcu.o(i.rcu_periph_reset_enable)
    rcu_timer_clock_prescaler_config         0x08004d39   Thumb Code    32  gd32f4xx_rcu.o(i.rcu_timer_clock_prescaler_config)
    spi_dma_enable                           0x08004d5d   Thumb Code    22  gd32f4xx_spi.o(i.spi_dma_enable)
    spi_enable                               0x08004d73   Thumb Code    10  gd32f4xx_spi.o(i.spi_enable)
    spi_i2s_data_receive                     0x08004d7d   Thumb Code     8  gd32f4xx_spi.o(i.spi_i2s_data_receive)
    spi_i2s_data_transmit                    0x08004d85   Thumb Code     4  gd32f4xx_spi.o(i.spi_i2s_data_transmit)
    spi_i2s_flag_get                         0x08004d89   Thumb Code    16  gd32f4xx_spi.o(i.spi_i2s_flag_get)
    spi_init                                 0x08004d99   Thumb Code    50  gd32f4xx_spi.o(i.spi_init)
    systick_config                           0x08004ed1   Thumb Code    74  systick.o(i.systick_config)
    timer_autoreload_value_config            0x08004f21   Thumb Code     4  gd32f4xx_timer.o(i.timer_autoreload_value_config)
    timer_channel_output_config              0x08004f25   Thumb Code   484  gd32f4xx_timer.o(i.timer_channel_output_config)
    timer_channel_output_mode_config         0x08005111   Thumb Code    90  gd32f4xx_timer.o(i.timer_channel_output_mode_config)
    timer_channel_output_pulse_value_config  0x0800516b   Thumb Code    38  gd32f4xx_timer.o(i.timer_channel_output_pulse_value_config)
    timer_channel_output_shadow_config       0x08005191   Thumb Code    90  gd32f4xx_timer.o(i.timer_channel_output_shadow_config)
    timer_deinit                             0x080051ed   Thumb Code   374  gd32f4xx_timer.o(i.timer_deinit)
    timer_disable                            0x08005371   Thumb Code    10  gd32f4xx_timer.o(i.timer_disable)
    timer_enable                             0x0800537b   Thumb Code    10  gd32f4xx_timer.o(i.timer_enable)
    timer_init                               0x08005385   Thumb Code   122  gd32f4xx_timer.o(i.timer_init)
    timer_interrupt_enable                   0x0800541d   Thumb Code     8  gd32f4xx_timer.o(i.timer_interrupt_enable)
    timer_interrupt_flag_clear               0x08005425   Thumb Code     6  gd32f4xx_timer.o(i.timer_interrupt_flag_clear)
    timer_interrupt_flag_get                 0x0800542b   Thumb Code    24  gd32f4xx_timer.o(i.timer_interrupt_flag_get)
    timer_master_output_trigger_source_select 0x08005443   Thumb Code    16  gd32f4xx_timer.o(i.timer_master_output_trigger_source_select)
    timer_prescaler_config                   0x08005453   Thumb Code    14  gd32f4xx_timer.o(i.timer_prescaler_config)
    usart_baudrate_set                       0x08005461   Thumb Code   224  gd32f4xx_usart.o(i.usart_baudrate_set)
    usart_data_transmit                      0x08005549   Thumb Code     8  gd32f4xx_usart.o(i.usart_data_transmit)
    usart_deinit                             0x08005551   Thumb Code   210  gd32f4xx_usart.o(i.usart_deinit)
    usart_enable                             0x0800562d   Thumb Code    10  gd32f4xx_usart.o(i.usart_enable)
    usart_flag_get                           0x08005637   Thumb Code    30  gd32f4xx_usart.o(i.usart_flag_get)
    usart_gpio_config                        0x08005655   Thumb Code   162  bsp_usart.o(i.usart_gpio_config)
    usart_parity_config                      0x08005701   Thumb Code    16  gd32f4xx_usart.o(i.usart_parity_config)
    usart_send_data                          0x08005711   Thumb Code    28  bsp_usart.o(i.usart_send_data)
    usart_stop_bit_set                       0x08005731   Thumb Code    16  gd32f4xx_usart.o(i.usart_stop_bit_set)
    usart_transmit_config                    0x08005741   Thumb Code    16  gd32f4xx_usart.o(i.usart_transmit_config)
    usart_word_length_set                    0x08005751   Thumb Code    16  gd32f4xx_usart.o(i.usart_word_length_set)
    gImage_t                                 0x08005760   Data          24  bsp_gui.o(.constdata)
    gImage_1                                 0x08005778   Data         176  bsp_gui.o(.constdata)
    gImage_2                                 0x08005828   Data          24  bsp_gui.o(.constdata)
    gImage_3                                 0x08005840   Data         448  bsp_gui.o(.constdata)
    gImage_4                                 0x08005a00   Data         128  bsp_gui.o(.constdata)
    gImage_a                                 0x08005a80   Data        6432  bsp_gui.o(.constdata)
    gImage_b                                 0x080073a0   Data        7638  bsp_gui.o(.constdata)
    gImage_c                                 0x08009176   Data       153600  bsp_gui.o(.constdata)
    asc2_1206                                0x0802e976   Data        1140  bsp_gui.o(.constdata)
    asc2_1608                                0x0802edea   Data        1520  bsp_gui.o(.constdata)
    asc2_2412                                0x0802f3da   Data        3420  bsp_gui.o(.constdata)
    wav_data                                 0x08030136   Data         500  bsp_dac.o(.constdata)
    armBitRevTable                           0x0803032a   Data        2048  arm_common_tables.o(.constdata)
    twiddleCoef_4096                         0x08030b2c   Data       32768  arm_common_tables.o(.constdata)
    Region$$Table$$Base                      0x08038bc4   Number         0  anon$$obj.o(Region$$Table)
    Region$$Table$$Limit                     0x08038be4   Number         0  anon$$obj.o(Region$$Table)
    adc_tmp                                  0x20000004   Data           4  main.o(.data)
    max_fft                                  0x20000008   Data           4  main.o(.data)
    fft_number                               0x2000000c   Data           2  main.o(.data)
    Lase_Trigger_number                      0x2000000e   Data           2  main.o(.data)
    show_updata                              0x20000010   Data           1  main.o(.data)
    data_tmp                                 0x20000012   Data           2  main.o(.data)
    keya_set                                 0x20000014   Data           1  main.o(.data)
    keya_number                              0x20000015   Data           1  main.o(.data)
    keyb_set                                 0x20000016   Data           1  main.o(.data)
    keyb_number                              0x20000017   Data           1  main.o(.data)
    SystemCoreClock                          0x20000018   Data           4  system_gd32f4xx.o(.data)
    LCD_SHOW_RAM                             0x2000001c   Data           4  bsp_lcd.o(.data)
    Lcd_Show_Over                            0x20000020   Data           1  bsp_lcd.o(.data)
    Show_AB                                  0x20000024   Data           1  bsp_gui.o(.data)
    Show_Star                                0x20000025   Data           1  bsp_gui.o(.data)
    POINT_COLOR                              0x20000026   Data           2  bsp_gui.o(.data)
    BACK_COLOR                               0x20000028   Data           2  bsp_gui.o(.data)
    adc_power                                0x2000002a   Data           1  bsp_gui.o(.data)
    wav_trigger                              0x2000002b   Data           1  bsp_gui.o(.data)
    ac_dc                                    0x2000002c   Data           1  bsp_gui.o(.data)
    gather_rate                              0x2000002d   Data           1  bsp_gui.o(.data)
    adc_speed                                0x2000002e   Data           1  bsp_gui.o(.data)
    Level                                    0x2000002f   Data           1  bsp_gui.o(.data)
    Trigger                                  0x20000030   Data           1  bsp_gui.o(.data)
    last_Level                               0x20000031   Data           1  bsp_gui.o(.data)
    last_Trigger                             0x20000032   Data           1  bsp_gui.o(.data)
    Trigger_number                           0x20000034   Data           2  bsp_gui.o(.data)
    Trigger_data                             0x20000036   Data           2  bsp_gui.o(.data)
    wav_number                               0x20000038   Data           1  bsp_gui.o(.data)
    wav_Fps                                  0x2000003a   Data           2  bsp_gui.o(.data)
    fft_on                                   0x2000003c   Data           1  bsp_gui.o(.data)
    fft_n                                    0x2000003e   Data           2  bsp_gui.o(.data)
    fft_fps                                  0x20000040   Data           4  bsp_gui.o(.data)
    min_data                                 0x20000044   Data           2  bsp_gui.o(.data)
    max_data                                 0x20000046   Data           2  bsp_gui.o(.data)
    volt                                     0x20000048   Data           4  bsp_gui.o(.data)
    ui_show                                  0x2000004c   Data         120  bsp_gui.o(.data)
    adc_dma_AB                               0x200000c4   Data           1  bsp_adc.o(.data)
    adc_dma_ok                               0x200000c5   Data           1  bsp_adc.o(.data)
    __stdout                                 0x200000c8   Data           4  stdout.o(.data)
    fft_inputbuf                             0x200000cc   Data        8192  main.o(.bss)
    fft_outputbuf                            0x200020cc   Data        4096  main.o(.bss)
    scfft                                    0x200030cc   Data          20  main.o(.bss)
    key                                      0x200030e0   Data           9  bsp_key.o(.bss)
    Show_LinA                                0x200030ea   Data         640  bsp_gui.o(.bss)
    Show_LinB                                0x2000336a   Data         640  bsp_gui.o(.bss)
    convertarr                               0x200035ea   Data         100  bsp_dac.o(.bss)
    adc_value                                0x20003660   Data        8000  bsp_adc.o(.bss)
    adc_buff                                 0x200055a0   Data        4000  bsp_adc.o(.bss)
    __initial_sp                             0x20006940   Data           0  startup_gd32f450_470.o(STACK)
    Show_GramA                               0xc0000000   Data       153600  bsp_gui.o(.ARM.__AT_0xC0000000)
    Show_GramB                               0xc0025800   Data       153600  bsp_gui.o(.ARM.__AT_0xC0025800)



==============================================================================

Memory Map of the image

  Image Entry point : 0x080001ad

  Load Region LR_IROM1 (Base: 0x08000000, Size: 0x00038cb0, Max: 0x00100000, ABSOLUTE)

    Execution Region ER_IROM1 (Exec base: 0x08000000, Load base: 0x08000000, Size: 0x00038be4, Max: 0x00100000, ABSOLUTE)

    Exec Addr    Load Addr    Size         Type   Attr      Idx    E Section Name        Object

    0x08000000   0x08000000   0x000001ac   Data   RO          505    RESET               startup_gd32f450_470.o
    0x080001ac   0x080001ac   0x00000000   Code   RO         3983  * .ARM.Collect$$$$00000000  mc_w.l(entry.o)
    0x080001ac   0x080001ac   0x00000004   Code   RO         4246    .ARM.Collect$$$$00000001  mc_w.l(entry2.o)
    0x080001b0   0x080001b0   0x00000004   Code   RO         4249    .ARM.Collect$$$$00000004  mc_w.l(entry5.o)
    0x080001b4   0x080001b4   0x00000000   Code   RO         4251    .ARM.Collect$$$$00000008  mc_w.l(entry7b.o)
    0x080001b4   0x080001b4   0x00000000   Code   RO         4253    .ARM.Collect$$$$0000000A  mc_w.l(entry8b.o)
    0x080001b4   0x080001b4   0x00000008   Code   RO         4254    .ARM.Collect$$$$0000000B  mc_w.l(entry9a.o)
    0x080001bc   0x080001bc   0x00000004   Code   RO         4261    .ARM.Collect$$$$0000000E  mc_w.l(entry12b.o)
    0x080001c0   0x080001c0   0x00000000   Code   RO         4256    .ARM.Collect$$$$0000000F  mc_w.l(entry10a.o)
    0x080001c0   0x080001c0   0x00000000   Code   RO         4258    .ARM.Collect$$$$00000011  mc_w.l(entry11a.o)
    0x080001c0   0x080001c0   0x00000004   Code   RO         4247    .ARM.Collect$$$$00002712  mc_w.l(entry2.o)
    0x080001c4   0x080001c4   0x00000024   Code   RO          506    .text               startup_gd32f450_470.o
    0x080001e8   0x080001e8   0x000000fc   Code   RO         3773    .text               arm_cortexM4lf_math.lib(arm_cmplx_mag_f32.o)
    0x080002e4   0x080002e4   0x000006a0   Code   RO         3825    .text               arm_cortexM4lf_math.lib(arm_cfft_radix4_f32.o)
    0x08000984   0x08000984   0x000000c0   Code   RO         3852    .text               arm_cortexM4lf_math.lib(arm_cfft_radix4_init_f32.o)
    0x08000a44   0x08000a44   0x000001d6   Code   RO         3880    .text               arm_cortexM4lf_math.lib(arm_bitreversal.o)
    0x08000c1a   0x08000c1a   0x00000002   PAD
    0x08000c1c   0x08000c1c   0x00000024   Code   RO         4278    .text               mc_w.l(init.o)
    0x08000c40   0x08000c40   0x00000004   Code   RO          368    i.BusFault_Handler  gd32f4xx_it.o
    0x08000c44   0x08000c44   0x00000098   Code   RO          744    i.DMA0_Channel5_IRQHandler  bsp_lcd.o
    0x08000cdc   0x08000cdc   0x00000048   Code   RO          164    i.DMA1_Channel0_IRQHandler  main.o
    0x08000d24   0x08000d24   0x00000034   Code   RO         1033    i.Dac_Show_Wav      bsp_dac.o
    0x08000d58   0x08000d58   0x00000060   Code   RO         1034    i.Dac_Time_Hz       bsp_dac.o
    0x08000db8   0x08000db8   0x00000002   Code   RO          369    i.DebugMon_Handler  gd32f4xx_it.o
    0x08000dba   0x08000dba   0x00000004   Code   RO          370    i.HardFault_Handler  gd32f4xx_it.o
    0x08000dbe   0x08000dbe   0x00000002   PAD
    0x08000dc0   0x08000dc0   0x00000dd0   Code   RO          924    i.Key_Make_Set      bsp_gui.o
    0x08001b90   0x08001b90   0x0000003a   Code   RO          745    i.LCD_Address_Set   bsp_lcd.o
    0x08001bca   0x08001bca   0x00000002   PAD
    0x08001bcc   0x08001bcc   0x0000005c   Code   RO          747    i.LCD_GPIO_Init     bsp_lcd.o
    0x08001c28   0x08001c28   0x000001b8   Code   RO          748    i.LCD_Init          bsp_lcd.o
    0x08001de0   0x08001de0   0x00000016   Code   RO          925    i.LCD_Pow           bsp_gui.o
    0x08001df6   0x08001df6   0x00000002   PAD
    0x08001df8   0x08001df8   0x00000128   Code   RO          926    i.LCD_ShowChar      bsp_gui.o
    0x08001f20   0x08001f20   0x00000094   Code   RO          927    i.LCD_ShowNum       bsp_gui.o
    0x08001fb4   0x08001fb4   0x0000006c   Code   RO          928    i.LCD_ShowString    bsp_gui.o
    0x08002020   0x08002020   0x00000060   Code   RO          749    i.LCD_Show_Gram     bsp_lcd.o
    0x08002080   0x08002080   0x00000012   Code   RO          750    i.LCD_WR_DATA       bsp_lcd.o
    0x08002092   0x08002092   0x0000000c   Code   RO          751    i.LCD_WR_DATA8      bsp_lcd.o
    0x0800209e   0x0800209e   0x00000002   PAD
    0x080020a0   0x080020a0   0x00000020   Code   RO          752    i.LCD_WR_REG        bsp_lcd.o
    0x080020c0   0x080020c0   0x00000020   Code   RO          753    i.LCD_Writ_Bus      bsp_lcd.o
    0x080020e0   0x080020e0   0x00000010   Code   RO          929    i.LTDC_Draw_Point   bsp_gui.o
    0x080020f0   0x080020f0   0x00000020   Code   RO          930    i.Lcd_Gram_Bmp      bsp_gui.o
    0x08002110   0x08002110   0x00000016   Code   RO          931    i.Lcd_Gram_Fill     bsp_gui.o
    0x08002126   0x08002126   0x00000002   PAD
    0x08002128   0x08002128   0x000000e0   Code   RO          932    i.Lcd_Show_Bmp      bsp_gui.o
    0x08002208   0x08002208   0x00000300   Code   RO          933    i.Lcd_Show_Data     bsp_gui.o
    0x08002508   0x08002508   0x0000005c   Code   RO          934    i.Lcd_Show_Lin      bsp_gui.o
    0x08002564   0x08002564   0x00000060   Code   RO          935    i.Lcd_Show_Time     bsp_gui.o
    0x080025c4   0x080025c4   0x00000404   Code   RO          936    i.Lcd_Show_Wav      bsp_gui.o
    0x080029c8   0x080029c8   0x00000004   Code   RO          371    i.MemManage_Handler  gd32f4xx_it.o
    0x080029cc   0x080029cc   0x00000002   Code   RO          372    i.NMI_Handler       gd32f4xx_it.o
    0x080029ce   0x080029ce   0x00000002   PAD
    0x080029d0   0x080029d0   0x00000028   Code   RO            3    i.NVIC_SetPriority  systick.o
    0x080029f8   0x080029f8   0x00000002   Code   RO          373    i.PendSV_Handler    gd32f4xx_it.o
    0x080029fa   0x080029fa   0x00000002   Code   RO          374    i.SVC_Handler       gd32f4xx_it.o
    0x080029fc   0x080029fc   0x00000070   Code   RO          824    i.Spi2_Dma_Init     bsp_spi.o
    0x08002a6c   0x08002a6c   0x0000007c   Code   RO          825    i.Spi2_Init         bsp_spi.o
    0x08002ae8   0x08002ae8   0x00000044   Code   RO          827    i.Spi2_ReadWriteByte  bsp_spi.o
    0x08002b2c   0x08002b2c   0x00000008   Code   RO          375    i.SysTick_Handler   gd32f4xx_it.o
    0x08002b34   0x08002b34   0x000000c8   Code   RO          464    i.SystemInit        system_gd32f4xx.o
    0x08002bfc   0x08002bfc   0x000001f0   Code   RO          165    i.TIMER3_IRQHandler  main.o
    0x08002dec   0x08002dec   0x0000003c   Code   RO          715    i.TIMER5_DAC_IRQHandler  bsp_basic_timer.o
    0x08002e28   0x08002e28   0x00000004   Code   RO          376    i.UsageFault_Handler  gd32f4xx_it.o
    0x08002e2c   0x08002e2c   0x00000010   Code   RO         3987    i.__0printf$bare    mc_w.l(printfb.o)
    0x08002e3c   0x08002e3c   0x0000000e   Code   RO         4290    i.__scatterload_copy  mc_w.l(handlers.o)
    0x08002e4a   0x08002e4a   0x00000002   Code   RO         4291    i.__scatterload_null  mc_w.l(handlers.o)
    0x08002e4c   0x08002e4c   0x0000000e   Code   RO         4292    i.__scatterload_zeroinit  mc_w.l(handlers.o)
    0x08002e5a   0x08002e5a   0x00000022   Code   RO         3994    i._printf_core      mc_w.l(printfb.o)
    0x08002e7c   0x08002e7c   0x0000002a   Code   RO         3482    i.adc_calibration_enable  gd32f4xx_adc.o
    0x08002ea6   0x08002ea6   0x00000052   Code   RO         3484    i.adc_channel_length_config  gd32f4xx_adc.o
    0x08002ef8   0x08002ef8   0x00000024   Code   RO         3485    i.adc_clock_config  gd32f4xx_adc.o
    0x08002f1c   0x08002f1c   0x00000190   Code   RO         1075    i.adc_config        bsp_adc.o
    0x080030ac   0x080030ac   0x00000016   Code   RO         3486    i.adc_data_alignment_config  gd32f4xx_adc.o
    0x080030c2   0x080030c2   0x0000000a   Code   RO         3491    i.adc_dma_mode_enable  gd32f4xx_adc.o
    0x080030cc   0x080030cc   0x0000000a   Code   RO         3493    i.adc_dma_request_after_last_enable  gd32f4xx_adc.o
    0x080030d6   0x080030d6   0x00000012   Code   RO         3494    i.adc_enable        gd32f4xx_adc.o
    0x080030e8   0x080030e8   0x00000034   Code   RO         3496    i.adc_external_trigger_config  gd32f4xx_adc.o
    0x0800311c   0x0800311c   0x00000030   Code   RO         3497    i.adc_external_trigger_source_config  gd32f4xx_adc.o
    0x0800314c   0x0800314c   0x0000001a   Code   RO         1076    i.adc_power_set     bsp_adc.o
    0x08003166   0x08003166   0x000000ac   Code   RO         3511    i.adc_regular_channel_config  gd32f4xx_adc.o
    0x08003212   0x08003212   0x00000010   Code   RO         3514    i.adc_resolution_config  gd32f4xx_adc.o
    0x08003222   0x08003222   0x00000002   PAD
    0x08003224   0x08003224   0x00000074   Code   RO         1077    i.adc_setio_init    bsp_adc.o
    0x08003298   0x08003298   0x0000000e   Code   RO         1078    i.adc_speed_set     bsp_adc.o
    0x080032a6   0x080032a6   0x00000002   PAD
    0x080032a8   0x080032a8   0x00000024   Code   RO         1079    i.alternating_direct_set  bsp_adc.o
    0x080032cc   0x080032cc   0x000000d4   Code   RO         1035    i.dac_config        bsp_dac.o
    0x080033a0   0x080033a0   0x00000014   Code   RO         3280    i.dac_deinit        gd32f4xx_dac.o
    0x080033b4   0x080033b4   0x00000024   Code   RO         3283    i.dac_dma_enable    gd32f4xx_dac.o
    0x080033d8   0x080033d8   0x00000024   Code   RO         3284    i.dac_enable        gd32f4xx_dac.o
    0x080033fc   0x080033fc   0x00000024   Code   RO         3293    i.dac_output_buffer_enable  gd32f4xx_dac.o
    0x08003420   0x08003420   0x00000024   Code   RO         3299    i.dac_trigger_enable  gd32f4xx_dac.o
    0x08003444   0x08003444   0x00000034   Code   RO         3300    i.dac_trigger_source_config  gd32f4xx_dac.o
    0x08003478   0x08003478   0x00000034   Code   RO         3302    i.dac_wave_mode_config  gd32f4xx_dac.o
    0x080034ac   0x080034ac   0x00000014   Code   RO            4    i.delay_1ms         systick.o
    0x080034c0   0x080034c0   0x00000018   Code   RO            5    i.delay_decrement   systick.o
    0x080034d8   0x080034d8   0x00000020   Code   RO         2775    i.dma_channel_enable  gd32f4xx_dma.o
    0x080034f8   0x080034f8   0x00000026   Code   RO         2776    i.dma_channel_subperipheral_select  gd32f4xx_dma.o
    0x0800351e   0x0800351e   0x00000020   Code   RO         2777    i.dma_circulation_disable  gd32f4xx_dma.o
    0x0800353e   0x0800353e   0x00000020   Code   RO         2778    i.dma_circulation_enable  gd32f4xx_dma.o
    0x0800355e   0x0800355e   0x000000a4   Code   RO         2779    i.dma_deinit        gd32f4xx_dma.o
    0x08003602   0x08003602   0x0000003e   Code   RO         2785    i.dma_interrupt_enable  gd32f4xx_dma.o
    0x08003640   0x08003640   0x0000003e   Code   RO         2786    i.dma_interrupt_flag_clear  gd32f4xx_dma.o
    0x0800367e   0x0800367e   0x00000204   Code   RO         2787    i.dma_interrupt_flag_get  gd32f4xx_dma.o
    0x08003882   0x08003882   0x00000002   PAD
    0x08003884   0x08003884   0x00000158   Code   RO         2799    i.dma_single_data_mode_init  gd32f4xx_dma.o
    0x080039dc   0x080039dc   0x00000034   Code   RO         2988    i.exmc_flag_get     gd32f4xx_exmc.o
    0x08003a10   0x08003a10   0x0000001c   Code   RO         3013    i.exmc_sdram_command_config  gd32f4xx_exmc.o
    0x08003a2c   0x08003a2c   0x00000118   Code   RO         3015    i.exmc_sdram_init   gd32f4xx_exmc.o
    0x08003b44   0x08003b44   0x00000024   Code   RO         3018    i.exmc_sdram_refresh_count_set  gd32f4xx_exmc.o
    0x08003b68   0x08003b68   0x00000264   Code   RO          871    i.exmc_synchronous_dynamic_ram_init  exmc_sdram.o
    0x08003dcc   0x08003dcc   0x00000010   Code   RO          535    i.fputc             bsp_usart.o
    0x08003ddc   0x08003ddc   0x00000058   Code   RO         1080    i.gather_rate_set   bsp_adc.o
    0x08003e34   0x08003e34   0x0000005e   Code   RO         1132    i.gpio_af_set       gd32f4xx_gpio.o
    0x08003e92   0x08003e92   0x00000004   Code   RO         1133    i.gpio_bit_reset    gd32f4xx_gpio.o
    0x08003e96   0x08003e96   0x00000004   Code   RO         1134    i.gpio_bit_set      gd32f4xx_gpio.o
    0x08003e9a   0x08003e9a   0x00000004   Code   RO         1135    i.gpio_bit_toggle   gd32f4xx_gpio.o
    0x08003e9e   0x08003e9e   0x00000010   Code   RO         1138    i.gpio_input_bit_get  gd32f4xx_gpio.o
    0x08003eae   0x08003eae   0x0000004e   Code   RO         1140    i.gpio_mode_set     gd32f4xx_gpio.o
    0x08003efc   0x08003efc   0x00000042   Code   RO         1142    i.gpio_output_options_set  gd32f4xx_gpio.o
    0x08003f3e   0x08003f3e   0x00000002   PAD
    0x08003f40   0x08003f40   0x00000068   Code   RO          576    i.key_gpio_config   bsp_key.o
    0x08003fa8   0x08003fa8   0x00000094   Code   RO          512    i.led_gpio_config   bsp_led.o
    0x0800403c   0x0800403c   0x00000a94   Code   RO          166    i.main              main.o
    0x08004ad0   0x08004ad0   0x000000c4   Code   RO         1877    i.nvic_irq_enable   gd32f4xx_misc.o
    0x08004b94   0x08004b94   0x00000014   Code   RO         1878    i.nvic_priority_group_set  gd32f4xx_misc.o
    0x08004ba8   0x08004ba8   0x00000124   Code   RO         1245    i.rcu_clock_freq_get  gd32f4xx_rcu.o
    0x08004ccc   0x08004ccc   0x00000024   Code   RO         1264    i.rcu_periph_clock_enable  gd32f4xx_rcu.o
    0x08004cf0   0x08004cf0   0x00000024   Code   RO         1267    i.rcu_periph_reset_disable  gd32f4xx_rcu.o
    0x08004d14   0x08004d14   0x00000024   Code   RO         1268    i.rcu_periph_reset_enable  gd32f4xx_rcu.o
    0x08004d38   0x08004d38   0x00000024   Code   RO         1280    i.rcu_timer_clock_prescaler_config  gd32f4xx_rcu.o
    0x08004d5c   0x08004d5c   0x00000016   Code   RO         2547    i.spi_dma_enable    gd32f4xx_spi.o
    0x08004d72   0x08004d72   0x0000000a   Code   RO         2548    i.spi_enable        gd32f4xx_spi.o
    0x08004d7c   0x08004d7c   0x00000008   Code   RO         2550    i.spi_i2s_data_receive  gd32f4xx_spi.o
    0x08004d84   0x08004d84   0x00000004   Code   RO         2551    i.spi_i2s_data_transmit  gd32f4xx_spi.o
    0x08004d88   0x08004d88   0x00000010   Code   RO         2553    i.spi_i2s_flag_get  gd32f4xx_spi.o
    0x08004d98   0x08004d98   0x00000032   Code   RO         2557    i.spi_init          gd32f4xx_spi.o
    0x08004dca   0x08004dca   0x00000002   PAD
    0x08004dcc   0x08004dcc   0x000000fc   Code   RO          465    i.system_clock_200m_25m_hxtal  system_gd32f4xx.o
    0x08004ec8   0x08004ec8   0x00000008   Code   RO          466    i.system_clock_config  system_gd32f4xx.o
    0x08004ed0   0x08004ed0   0x00000050   Code   RO            6    i.systick_config    systick.o
    0x08004f20   0x08004f20   0x00000004   Code   RO         2084    i.timer_autoreload_value_config  gd32f4xx_timer.o
    0x08004f24   0x08004f24   0x000001ec   Code   RO         2098    i.timer_channel_output_config  gd32f4xx_timer.o
    0x08005110   0x08005110   0x0000005a   Code   RO         2100    i.timer_channel_output_mode_config  gd32f4xx_timer.o
    0x0800516a   0x0800516a   0x00000026   Code   RO         2102    i.timer_channel_output_pulse_value_config  gd32f4xx_timer.o
    0x08005190   0x08005190   0x0000005a   Code   RO         2103    i.timer_channel_output_shadow_config  gd32f4xx_timer.o
    0x080051ea   0x080051ea   0x00000002   PAD
    0x080051ec   0x080051ec   0x00000184   Code   RO         2112    i.timer_deinit      gd32f4xx_timer.o
    0x08005370   0x08005370   0x0000000a   Code   RO         2113    i.timer_disable     gd32f4xx_timer.o
    0x0800537a   0x0800537a   0x0000000a   Code   RO         2117    i.timer_enable      gd32f4xx_timer.o
    0x08005384   0x08005384   0x00000098   Code   RO         2127    i.timer_init        gd32f4xx_timer.o
    0x0800541c   0x0800541c   0x00000008   Code   RO         2134    i.timer_interrupt_enable  gd32f4xx_timer.o
    0x08005424   0x08005424   0x00000006   Code   RO         2135    i.timer_interrupt_flag_clear  gd32f4xx_timer.o
    0x0800542a   0x0800542a   0x00000018   Code   RO         2136    i.timer_interrupt_flag_get  gd32f4xx_timer.o
    0x08005442   0x08005442   0x00000010   Code   RO         2137    i.timer_master_output_trigger_source_select  gd32f4xx_timer.o
    0x08005452   0x08005452   0x0000000e   Code   RO         2140    i.timer_prescaler_config  gd32f4xx_timer.o
    0x08005460   0x08005460   0x000000e8   Code   RO         1533    i.usart_baudrate_set  gd32f4xx_usart.o
    0x08005548   0x08005548   0x00000008   Code   RO         1538    i.usart_data_transmit  gd32f4xx_usart.o
    0x08005550   0x08005550   0x000000dc   Code   RO         1539    i.usart_deinit      gd32f4xx_usart.o
    0x0800562c   0x0800562c   0x0000000a   Code   RO         1543    i.usart_enable      gd32f4xx_usart.o
    0x08005636   0x08005636   0x0000001e   Code   RO         1545    i.usart_flag_get    gd32f4xx_usart.o
    0x08005654   0x08005654   0x000000ac   Code   RO          536    i.usart_gpio_config  bsp_usart.o
    0x08005700   0x08005700   0x00000010   Code   RO         1568    i.usart_parity_config  gd32f4xx_usart.o
    0x08005710   0x08005710   0x00000020   Code   RO          537    i.usart_send_data   bsp_usart.o
    0x08005730   0x08005730   0x00000010   Code   RO         1581    i.usart_stop_bit_set  gd32f4xx_usart.o
    0x08005740   0x08005740   0x00000010   Code   RO         1585    i.usart_transmit_config  gd32f4xx_usart.o
    0x08005750   0x08005750   0x00000010   Code   RO         1586    i.usart_word_length_set  gd32f4xx_usart.o
    0x08005760   0x08005760   0x0002a9d6   Data   RO          940    .constdata          bsp_gui.o
    0x08030136   0x08030136   0x000001f4   Data   RO         1037    .constdata          bsp_dac.o
    0x0803032a   0x0803032a   0x00000800   Data   RO         3904    .constdata          arm_cortexM4lf_math.lib(arm_common_tables.o)
    0x08030b2a   0x08030b2a   0x00000002   PAD
    0x08030b2c   0x08030b2c   0x00008000   Data   RO         3913    .constdata          arm_cortexM4lf_math.lib(arm_common_tables.o)
    0x08038b2c   0x08038b2c   0x00000097   Data   RO          941    .conststring        bsp_gui.o
    0x08038bc3   0x08038bc3   0x00000001   PAD
    0x08038bc4   0x08038bc4   0x00000020   Data   RO         4288    Region$$Table       anon$$obj.o


    Execution Region RW_IRAM1 (Exec base: 0x20000000, Load base: 0x08038be4, Size: 0x00006940, Max: 0x00030000, ABSOLUTE)

    Exec Addr    Load Addr    Size         Type   Attr      Idx    E Section Name        Object

    0x20000000   0x08038be4   0x00000004   Data   RW            7    .data               systick.o
    0x20000004   0x08038be8   0x00000014   Data   RW          168    .data               main.o
    0x20000018   0x08038bfc   0x00000004   Data   RW          467    .data               system_gd32f4xx.o
    0x2000001c   0x08038c00   0x00000006   Data   RW          754    .data               bsp_lcd.o
    0x20000022   0x08038c06   0x00000002   PAD
    0x20000024   0x08038c08   0x000000a0   Data   RW          942    .data               bsp_gui.o
    0x200000c4   0x08038ca8   0x00000002   Data   RW         1082    .data               bsp_adc.o
    0x200000c6   0x08038caa   0x00000002   PAD
    0x200000c8   0x08038cac   0x00000004   Data   RW         4262    .data               mc_w.l(stdout.o)
    0x200000cc        -       0x00003014   Zero   RW          167    .bss                main.o
    0x200030e0        -       0x00000009   Zero   RW          577    .bss                bsp_key.o
    0x200030e9   0x08038cb0   0x00000001   PAD
    0x200030ea        -       0x00000500   Zero   RW          939    .bss                bsp_gui.o
    0x200035ea        -       0x00000064   Zero   RW         1036    .bss                bsp_dac.o
    0x2000364e   0x08038cb0   0x00000012   PAD
    0x20003660        -       0x00002ee0   Zero   RW         1081    .bss                bsp_adc.o
    0x20006540        -       0x00000400   Zero   RW          503    STACK               startup_gd32f450_470.o



  Load Region LR$$.ARM.__AT_0xC0000000 (Base: 0xc0000000, Size: 0x00000000, Max: 0x00025800, ABSOLUTE)

    Execution Region ER$$.ARM.__AT_0xC0000000 (Exec base: 0xc0000000, Load base: 0xc0000000, Size: 0x00025800, Max: 0x00025800, ABSOLUTE, UNINIT)

    Exec Addr    Load Addr    Size         Type   Attr      Idx    E Section Name        Object

    0xc0000000        -       0x00025800   Zero   RW          937    .ARM.__AT_0xC0000000  bsp_gui.o



  Load Region LR$$.ARM.__AT_0xC0025800 (Base: 0xc0025800, Size: 0x00000000, Max: 0x00025800, ABSOLUTE)

    Execution Region ER$$.ARM.__AT_0xC0025800 (Exec base: 0xc0025800, Load base: 0xc0025800, Size: 0x00025800, Max: 0x00025800, ABSOLUTE, UNINIT)

    Exec Addr    Load Addr    Size         Type   Attr      Idx    E Section Name        Object

    0xc0025800        -       0x00025800   Zero   RW          938    .ARM.__AT_0xC0025800  bsp_gui.o


==============================================================================

Image component sizes


      Code (inc. data)   RO Data    RW Data    ZI Data      Debug   Object Name

       680         38          0          2      12000       4492   bsp_adc.o
        60         30          0          0          0        564   bsp_basic_timer.o
       360         44        500          0        100       2768   bsp_dac.o
      6388        442     174701        160     308480      14039   bsp_gui.o
       104         16          0          0          9       1104   bsp_key.o
       932         64          0          6          0       6246   bsp_lcd.o
       148         16          0          0          0        570   bsp_led.o
       304         20          0          0          0       1885   bsp_spi.o
       220         14          0          0          0       1874   bsp_usart.o
       612         22          0          0          0       1372   exmc_sdram.o
       508          8          0          0          0       7815   gd32f4xx_adc.o
       268         32          0          0          0       4478   gd32f4xx_dac.o
      1282          4          0          0          0       7495   gd32f4xx_dma.o
       396         26          0          0          0       5925   gd32f4xx_exmc.o
       266          0          0          0          0       5291   gd32f4xx_gpio.o
        32          0          0          0          0       4446   gd32f4xx_it.o
       216         20          0          0          0       1572   gd32f4xx_misc.o
       436         44          0          0          0       4455   gd32f4xx_rcu.o
       110          0          0          0          0       4659   gd32f4xx_spi.o
      1342         52          0          0          0      10849   gd32f4xx_timer.o
       564         18          0          0          0       6465   gd32f4xx_usart.o
      3276        316          0         20      12308      44499   main.o
        36          8        428          0       1024        908   startup_gd32f450_470.o
       460         28          0          4          0       2931   system_gd32f4xx.o
       164         24          0          4          0     121478   systick.o

    ----------------------------------------------------------------------
     19188       1286     175662        200     333940     268180   Object Totals
         0          0         32          0          0          0   (incl. Generated)
        24          0          1          4         19          0   (incl. Padding)

    ----------------------------------------------------------------------

      Code (inc. data)   RO Data    RW Data    ZI Data      Debug   Library Member Name

       470          0          0          0          0       2962   arm_bitreversal.o
      1696          0          0          0          0      18660   arm_cfft_radix4_f32.o
       192         46          0          0          0        911   arm_cfft_radix4_init_f32.o
       252          6          0          0          0      17504   arm_cmplx_mag_f32.o
         0          0      34816          0          0       4636   arm_common_tables.o
         0          0          0          0          0          0   entry.o
         0          0          0          0          0          0   entry10a.o
         0          0          0          0          0          0   entry11a.o
         4          0          0          0          0          0   entry12b.o
         8          4          0          0          0          0   entry2.o
         4          0          0          0          0          0   entry5.o
         0          0          0          0          0          0   entry7b.o
         0          0          0          0          0          0   entry8b.o
         8          4          0          0          0          0   entry9a.o
        30          0          0          0          0          0   handlers.o
        36          8          0          0          0         68   init.o
        50          8          0          0          0        152   printfb.o
         0          0          0          4          0          0   stdout.o

    ----------------------------------------------------------------------
      2752         76      34818          4          0      44893   Library Totals
         2          0          2          0          0          0   (incl. Padding)

    ----------------------------------------------------------------------

      Code (inc. data)   RO Data    RW Data    ZI Data      Debug   Library Name

      2610         52      34816          0          0      44673   arm_cortexM4lf_math.lib
       140         24          0          4          0        220   mc_w.l

    ----------------------------------------------------------------------
      2752         76      34818          4          0      44893   Library Totals

    ----------------------------------------------------------------------

==============================================================================


      Code (inc. data)   RO Data    RW Data    ZI Data      Debug   

     21940       1362     210480        204     333940     300025   Grand Totals
     21940       1362     210480        204     333940     300025   ELF Image Totals
     21940       1362     210480        204          0          0   ROM Totals

==============================================================================

    Total RO  Size (Code + RO Data)               232420 ( 226.97kB)
    Total RW  Size (RW Data + ZI Data)            334144 ( 326.31kB)
    Total ROM Size (Code + RO Data + RW Data)     232624 ( 227.17kB)

==============================================================================

