Component: ARM Compiler 5.06 update 7 (build 960) Tool: armlink [4d3601]

==============================================================================

Section Cross References

    systick.o(i.delay_1ms) refers to systick.o(.data) for delay
    systick.o(i.delay_decrement) refers to systick.o(.data) for delay
    systick.o(i.systick_config) refers to systick.o(i.NVIC_SetPriority) for NVIC_SetPriority
    systick.o(i.systick_config) refers to system_gd32f4xx.o(.data) for SystemCoreClock
    main.o(i.TIMER3_IRQHandler) refers to gd32f4xx_gpio.o(i.gpio_bit_toggle) for gpio_bit_toggle
    main.o(i.TIMER3_IRQHandler) refers to gd32f4xx_timer.o(i.timer_interrupt_flag_clear) for timer_interrupt_flag_clear
    main.o(i.TIMER3_IRQHandler) refers to bsp_lcd.o(i.LCD_Show_Gram) for LCD_Show_Gram
    main.o(i.TIMER3_IRQHandler) refers to bsp_gui.o(.data) for Show_Star
    main.o(i.TIMER3_IRQHandler) refers to bsp_gui.o(.ARM.__AT_0xC0000000) for Show_GramA
    main.o(i.TIMER3_IRQHandler) refers to bsp_gui.o(.ARM.__AT_0xC0025800) for Show_GramB
    main.o(i.main) refers to gd32f4xx_misc.o(i.nvic_priority_group_set) for nvic_priority_group_set
    main.o(i.main) refers to systick.o(i.systick_config) for systick_config
    main.o(i.main) refers to bsp_led.o(i.led_gpio_config) for led_gpio_config
    main.o(i.main) refers to bsp_key.o(i.key_gpio_config) for key_gpio_config
    main.o(i.main) refers to bsp_usart.o(i.usart_gpio_config) for usart_gpio_config
    main.o(i.main) refers to exmc_sdram.o(i.exmc_synchronous_dynamic_ram_init) for exmc_synchronous_dynamic_ram_init
    main.o(i.main) refers to bsp_lcd.o(i.LCD_Init) for LCD_Init
    main.o(i.main) refers to bsp_lcd.o(i.LCD_Fill) for LCD_Fill
==============================================================================

Removing Unused input sections from the image.

    Removing systick.o(.rev16_text), (4 bytes).
    Removing systick.o(.revsh_text), (4 bytes).
    Removing main.o(.rev16_text), (4 bytes).
    Removing main.o(.revsh_text), (4 bytes).
    Removing gd32f4xx_it.o(.rev16_text), (4 bytes).
    Removing gd32f4xx_it.o(.revsh_text), (4 bytes).
    Removing sys.o(.rev16_text), (4 bytes).
    Removing sys.o(.revsh_text), (4 bytes).
    Removing system_gd32f4xx.o(.rev16_text), (4 bytes).
    Removing system_gd32f4xx.o(.revsh_text), (4 bytes).
    Removing system_gd32f4xx.o(i.SystemCoreClockUpdate), (272 bytes).
    Removing startup_gd32f450_470.o(HEAP), (1024 bytes).
    Removing bsp_led.o(.rev16_text), (4 bytes).
    Removing bsp_led.o(.revsh_text), (4 bytes).
    Removing bsp_usart.o(.rev16_text), (4 bytes).
    Removing bsp_usart.o(.revsh_text), (4 bytes).
    Removing bsp_usart.o(i.usart_send_string), (24 bytes).
    Removing bsp_key.o(.rev16_text), (4 bytes).
==============================================================================

Image Symbol Table

    Local Symbols

    Symbol Name                              Value     Ov Type        Size  Object(Section)

    ../clib/microlib/division.c              0x00000000   Number         0  uidiv.o ABSOLUTE
    ../clib/microlib/division.c              0x00000000   Number         0  uldiv.o ABSOLUTE
    ../clib/microlib/init/entry.s            0x00000000   Number         0  entry.o ABSOLUTE
    ../clib/microlib/init/entry.s            0x00000000   Number         0  entry11a.o ABSOLUTE
    ../clib/microlib/init/entry.s            0x00000000   Number         0  entry11b.o ABSOLUTE
    ../clib/microlib/init/entry.s            0x00000000   Number         0  entry12a.o ABSOLUTE
    ../clib/microlib/init/entry.s            0x00000000   Number         0  entry8b.o ABSOLUTE
    ../clib/microlib/init/entry.s            0x00000000   Number         0  entry8a.o ABSOLUTE
    ../clib/microlib/init/entry.s            0x00000000   Number         0  entry7b.o ABSOLUTE
    ../clib/microlib/init/entry.s            0x00000000   Number         0  entry7a.o ABSOLUTE
    ../clib/microlib/init/entry.s            0x00000000   Number         0  entry2.o ABSOLUTE
    ../clib/microlib/init/entry.s            0x00000000   Number         0  entry12b.o ABSOLUTE
    ../clib/microlib/init/entry.s            0x00000000   Number         0  entry5.o ABSOLUTE
    ../clib/microlib/init/entry.s            0x00000000   Number         0  entry10b.o ABSOLUTE
    ../clib/microlib/init/entry.s            0x00000000   Number         0  entry10a.o ABSOLUTE
    ../clib/microlib/init/entry.s            0x00000000   Number         0  entry9b.o ABSOLUTE
    ../clib/microlib/init/entry.s            0x00000000   Number         0  entry9a.o ABSOLUTE
    ../clib/microlib/longlong.c              0x00000000   Number         0  llushr.o ABSOLUTE
    ../clib/microlib/longlong.c              0x00000000   Number         0  llsshr.o ABSOLUTE
    ../clib/microlib/longlong.c              0x00000000   Number         0  llshl.o ABSOLUTE
    ../clib/microlib/printf/printf.c         0x00000000   Number         0  printfa.o ABSOLUTE
    ../clib/microlib/printf/printf.c         0x00000000   Number         0  printf0.o ABSOLUTE
    ../clib/microlib/printf/printf.c         0x00000000   Number         0  printf1.o ABSOLUTE
    ../clib/microlib/printf/printf.c         0x00000000   Number         0  printf8.o ABSOLUTE
    ../clib/microlib/printf/printf.c         0x00000000   Number         0  printf3.o ABSOLUTE
    ../clib/microlib/printf/printf.c         0x00000000   Number         0  printf2.o ABSOLUTE
    ../clib/microlib/printf/printf.c         0x00000000   Number         0  printf7.o ABSOLUTE
    ../clib/microlib/printf/printf.c         0x00000000   Number         0  printf6.o ABSOLUTE
    ../clib/microlib/printf/printf.c         0x00000000   Number         0  printf5.o ABSOLUTE
    ../clib/microlib/printf/printf.c         0x00000000   Number         0  printf4.o ABSOLUTE
    ../clib/microlib/printf/printf.c         0x00000000   Number         0  printfb.o ABSOLUTE
    ../clib/microlib/stdio/streams.c         0x00000000   Number         0  stdout.o ABSOLUTE
    ../clib/microlib/stubs.s                 0x00000000   Number         0  iusefp.o ABSOLUTE
    ../fplib/microlib/fpadd.c                0x00000000   Number         0  dadd.o ABSOLUTE
    ../fplib/microlib/fpdiv.c                0x00000000   Number         0  ddiv.o ABSOLUTE
    ../fplib/microlib/fpepilogue.c           0x00000000   Number         0  depilogue.o ABSOLUTE
    ../fplib/microlib/fpfix.c                0x00000000   Number         0  dfixul.o ABSOLUTE
    ../fplib/microlib/fpmul.c                0x00000000   Number         0  dmul.o ABSOLUTE
    ..\Firmware\CMSIS\GD\GD32F4xx\Source\ARM\startup_gd32f450_470.s 0x00000000   Number         0  startup_gd32f450_470.o ABSOLUTE
    ..\Firmware\CMSIS\GD\GD32F4xx\Source\system_gd32f4xx.c 0x00000000   Number         0  system_gd32f4xx.o ABSOLUTE
    ..\Firmware\GD32F4xx_standard_peripheral\Source\gd32f4xx_dma.c 0x00000000   Number         0  gd32f4xx_dma.o ABSOLUTE
    ..\Firmware\GD32F4xx_standard_peripheral\Source\gd32f4xx_exmc.c 0x00000000   Number         0  gd32f4xx_exmc.o ABSOLUTE
    ..\Firmware\GD32F4xx_standard_peripheral\Source\gd32f4xx_exti.c 0x00000000   Number         0  gd32f4xx_exti.o ABSOLUTE
    ..\Firmware\GD32F4xx_standard_peripheral\Source\gd32f4xx_gpio.c 0x00000000   Number         0  gd32f4xx_gpio.o ABSOLUTE
    ..\Firmware\GD32F4xx_standard_peripheral\Source\gd32f4xx_misc.c 0x00000000   Number         0  gd32f4xx_misc.o ABSOLUTE
    ..\Firmware\GD32F4xx_standard_peripheral\Source\gd32f4xx_rcu.c 0x00000000   Number         0  gd32f4xx_rcu.o ABSOLUTE
    ..\Firmware\GD32F4xx_standard_peripheral\Source\gd32f4xx_spi.c 0x00000000   Number         0  gd32f4xx_spi.o ABSOLUTE
    ..\Firmware\GD32F4xx_standard_peripheral\Source\gd32f4xx_syscfg.c 0x00000000   Number         0  gd32f4xx_syscfg.o ABSOLUTE
    ..\Firmware\GD32F4xx_standard_peripheral\Source\gd32f4xx_timer.c 0x00000000   Number         0  gd32f4xx_timer.o ABSOLUTE
    ..\Firmware\GD32F4xx_standard_peripheral\Source\gd32f4xx_usart.c 0x00000000   Number         0  gd32f4xx_usart.o ABSOLUTE
    ..\Hardware\SDRAM\exmc_sdram.c           0x00000000   Number         0  exmc_sdram.o ABSOLUTE
    ..\Hardware\key\bsp_key.c                0x00000000   Number         0  bsp_key.o ABSOLUTE
    ..\Hardware\lcd\bsp_gui.c                0x00000000   Number         0  bsp_gui.o ABSOLUTE
    ..\Hardware\lcd\bsp_lcd.c                0x00000000   Number         0  bsp_lcd.o ABSOLUTE
    ..\Hardware\lcd\bsp_spi.c                0x00000000   Number         0  bsp_spi.o ABSOLUTE
    ..\Hardware\led\bsp_led.c                0x00000000   Number         0  bsp_led.o ABSOLUTE
    ..\Hardware\timer\bsp_basic_timer.c      0x00000000   Number         0  bsp_basic_timer.o ABSOLUTE
    ..\Hardware\usart\bsp_usart.c            0x00000000   Number         0  bsp_usart.o ABSOLUTE
    ..\User\gd32f4xx_it.c                    0x00000000   Number         0  gd32f4xx_it.o ABSOLUTE
    ..\User\main.c                           0x00000000   Number         0  main.o ABSOLUTE
    ..\User\sys.c                            0x00000000   Number         0  sys.o ABSOLUTE
    ..\User\systick.c                        0x00000000   Number         0  systick.o ABSOLUTE
    ..\\Firmware\\CMSIS\\GD\\GD32F4xx\\Source\\system_gd32f4xx.c 0x00000000   Number         0  system_gd32f4xx.o ABSOLUTE
    ..\\Firmware\\GD32F4xx_standard_peripheral\\Source\\gd32f4xx_dma.c 0x00000000   Number         0  gd32f4xx_dma.o ABSOLUTE
    ..\\Firmware\\GD32F4xx_standard_peripheral\\Source\\gd32f4xx_exmc.c 0x00000000   Number         0  gd32f4xx_exmc.o ABSOLUTE
    ..\\Firmware\\GD32F4xx_standard_peripheral\\Source\\gd32f4xx_exti.c 0x00000000   Number         0  gd32f4xx_exti.o ABSOLUTE
    ..\\Firmware\\GD32F4xx_standard_peripheral\\Source\\gd32f4xx_gpio.c 0x00000000   Number         0  gd32f4xx_gpio.o ABSOLUTE
    ..\\Firmware\\GD32F4xx_standard_peripheral\\Source\\gd32f4xx_misc.c 0x00000000   Number         0  gd32f4xx_misc.o ABSOLUTE
    ..\\Firmware\\GD32F4xx_standard_peripheral\\Source\\gd32f4xx_rcu.c 0x00000000   Number         0  gd32f4xx_rcu.o ABSOLUTE
    ..\\Firmware\\GD32F4xx_standard_peripheral\\Source\\gd32f4xx_spi.c 0x00000000   Number         0  gd32f4xx_spi.o ABSOLUTE
    ..\\Firmware\\GD32F4xx_standard_peripheral\\Source\\gd32f4xx_syscfg.c 0x00000000   Number         0  gd32f4xx_syscfg.o ABSOLUTE
    ..\\Firmware\\GD32F4xx_standard_peripheral\\Source\\gd32f4xx_timer.c 0x00000000   Number         0  gd32f4xx_timer.o ABSOLUTE
    ..\\Firmware\\GD32F4xx_standard_peripheral\\Source\\gd32f4xx_usart.c 0x00000000   Number         0  gd32f4xx_usart.o ABSOLUTE
    ..\\Hardware\\SDRAM\\exmc_sdram.c        0x00000000   Number         0  exmc_sdram.o ABSOLUTE
    ..\\Hardware\\key\\bsp_key.c             0x00000000   Number         0  bsp_key.o ABSOLUTE
    ..\\Hardware\\lcd\\bsp_gui.c             0x00000000   Number         0  bsp_gui.o ABSOLUTE
    ..\\Hardware\\lcd\\bsp_lcd.c             0x00000000   Number         0  bsp_lcd.o ABSOLUTE
    ..\\Hardware\\lcd\\bsp_spi.c             0x00000000   Number         0  bsp_spi.o ABSOLUTE
    ..\\Hardware\\led\\bsp_led.c             0x00000000   Number         0  bsp_led.o ABSOLUTE
    ..\\Hardware\\timer\\bsp_basic_timer.c   0x00000000   Number         0  bsp_basic_timer.o ABSOLUTE
    ..\\Hardware\\usart\\bsp_usart.c         0x00000000   Number         0  bsp_usart.o ABSOLUTE
    ..\\User\\gd32f4xx_it.c                  0x00000000   Number         0  gd32f4xx_it.o ABSOLUTE
    ..\\User\\main.c                         0x00000000   Number         0  main.o ABSOLUTE
    ..\\User\\sys.c                          0x00000000   Number         0  sys.o ABSOLUTE
    ..\\User\\systick.c                      0x00000000   Number         0  systick.o ABSOLUTE
    cdrcmple.s                               0x00000000   Number         0  cdrcmple.o ABSOLUTE
    dc.s                                     0x00000000   Number         0  dc.o ABSOLUTE
    handlers.s                               0x00000000   Number         0  handlers.o ABSOLUTE
    init.s                                   0x00000000   Number         0  init.o ABSOLUTE
    RESET                                    0x08000000   Section      428  startup_gd32f450_470.o(RESET)
    .ARM.Collect$$$$00000000                 0x080001ac   Section        0  entry.o(.ARM.Collect$$$$00000000)
    .ARM.Collect$$$$00000001                 0x080001ac   Section        4  entry2.o(.ARM.Collect$$$$00000001)
    .ARM.Collect$$$$00000004                 0x080001b0   Section        4  entry5.o(.ARM.Collect$$$$00000004)
    .ARM.Collect$$$$00000008                 0x080001b4   Section        0  entry7b.o(.ARM.Collect$$$$00000008)
    .ARM.Collect$$$$0000000A                 0x080001b4   Section        0  entry8b.o(.ARM.Collect$$$$0000000A)
    .ARM.Collect$$$$0000000B                 0x080001b4   Section        8  entry9a.o(.ARM.Collect$$$$0000000B)
    .ARM.Collect$$$$0000000E                 0x080001bc   Section        4  entry12b.o(.ARM.Collect$$$$0000000E)
    .ARM.Collect$$$$0000000F                 0x080001c0   Section        0  entry10a.o(.ARM.Collect$$$$0000000F)
    .ARM.Collect$$$$00000011                 0x080001c0   Section        0  entry11a.o(.ARM.Collect$$$$00000011)
    .ARM.Collect$$$$00002712                 0x080001c0   Section        4  entry2.o(.ARM.Collect$$$$00002712)
    __lit__00000000                          0x080001c0   Data           4  entry2.o(.ARM.Collect$$$$00002712)
    .text                                    0x080001c4   Section       36  startup_gd32f450_470.o(.text)
    $v0                                      0x080001c4   Number         0  startup_gd32f450_470.o(.text)
    .text                                    0x080001e8   Section       36  init.o(.text)
    i.BusFault_Handler                       0x0800020c   Section        0  gd32f4xx_it.o(i.BusFault_Handler)
    i.DMA0_Channel5_IRQHandler               0x08000210   Section        0  bsp_lcd.o(i.DMA0_Channel5_IRQHandler)
    i.DebugMon_Handler                       0x080002a8   Section        0  gd32f4xx_it.o(i.DebugMon_Handler)
    i.EXTI0_IRQHandler                       0x080002ac   Section        0  bsp_key.o(i.EXTI0_IRQHandler)
    i.HardFault_Handler                      0x08000300   Section        0  gd32f4xx_it.o(i.HardFault_Handler)
    i.LCD_Address_Set                        0x08000304   Section        0  bsp_lcd.o(i.LCD_Address_Set)
    i.LCD_Fill                               0x08000340   Section        0  bsp_lcd.o(i.LCD_Fill)
    i.LCD_GPIO_Init                          0x080003bc   Section        0  bsp_lcd.o(i.LCD_GPIO_Init)
    i.LCD_Init                               0x08000418   Section        0  bsp_lcd.o(i.LCD_Init)
    i.LCD_Show_Gram                          0x080005e8   Section        0  bsp_lcd.o(i.LCD_Show_Gram)
    i.LCD_WR_DATA                            0x08000648   Section        0  bsp_lcd.o(i.LCD_WR_DATA)
    i.LCD_WR_DATA8                           0x0800065a   Section        0  bsp_lcd.o(i.LCD_WR_DATA8)
    i.LCD_WR_REG                             0x08000668   Section        0  bsp_lcd.o(i.LCD_WR_REG)
    i.LCD_Writ_Bus                           0x08000688   Section        0  bsp_lcd.o(i.LCD_Writ_Bus)
    i.Lcd_Gram_Fill                          0x080006a8   Section        0  bsp_gui.o(i.Lcd_Gram_Fill)
    i.Lcd_Show_Time                          0x080006c0   Section        0  bsp_gui.o(i.Lcd_Show_Time)
    i.MemManage_Handler                      0x08000728   Section        0  gd32f4xx_it.o(i.MemManage_Handler)
    i.NMI_Handler                            0x0800072c   Section        0  gd32f4xx_it.o(i.NMI_Handler)
    i.NVIC_SetPriority                       0x08000730   Section        0  systick.o(i.NVIC_SetPriority)
    NVIC_SetPriority                         0x08000731   Thumb Code    32  systick.o(i.NVIC_SetPriority)
    i.PendSV_Handler                         0x08000758   Section        0  gd32f4xx_it.o(i.PendSV_Handler)
    i.SVC_Handler                            0x0800075a   Section        0  gd32f4xx_it.o(i.SVC_Handler)
    i.Spi2_Dma_Init                          0x0800075c   Section        0  bsp_spi.o(i.Spi2_Dma_Init)
    i.Spi2_Init                              0x080007cc   Section        0  bsp_spi.o(i.Spi2_Init)
    i.Spi2_ReadWriteByte                     0x08000848   Section        0  bsp_spi.o(i.Spi2_ReadWriteByte)
    i.Spi2_Write                             0x0800088c   Section        0  bsp_spi.o(i.Spi2_Write)
    i.SysTick_Handler                        0x080008ac   Section        0  gd32f4xx_it.o(i.SysTick_Handler)
    i.SystemInit                             0x080008b4   Section        0  system_gd32f4xx.o(i.SystemInit)
    i.TIMER3_IRQHandler                      0x0800097c   Section        0  main.o(i.TIMER3_IRQHandler)
    i.TIMER5_DAC_IRQHandler                  0x080009d8   Section        0  bsp_basic_timer.o(i.TIMER5_DAC_IRQHandler)
    i.UsageFault_Handler                     0x08000a14   Section        0  gd32f4xx_it.o(i.UsageFault_Handler)
    i.__0printf$bare                         0x08000a18   Section        0  printfb.o(i.__0printf$bare)
    i.__scatterload_copy                     0x08000a28   Section       14  handlers.o(i.__scatterload_copy)
    i.__scatterload_null                     0x08000a36   Section        2  handlers.o(i.__scatterload_null)
    i.__scatterload_zeroinit                 0x08000a38   Section       14  handlers.o(i.__scatterload_zeroinit)
    i._printf_core                           0x08000a46   Section        0  printfb.o(i._printf_core)
    _printf_core                             0x08000a47   Thumb Code    34  printfb.o(i._printf_core)
    i.delay_1ms                              0x08000a68   Section        0  systick.o(i.delay_1ms)
    i.delay_decrement                        0x08000a7c   Section        0  systick.o(i.delay_decrement)
    i.dma_channel_subperipheral_select       0x08000a94   Section        0  gd32f4xx_dma.o(i.dma_channel_subperipheral_select)
    i.dma_circulation_disable                0x08000aba   Section        0  gd32f4xx_dma.o(i.dma_circulation_disable)
    i.dma_deinit                             0x08000ada   Section        0  gd32f4xx_dma.o(i.dma_deinit)
    i.dma_interrupt_enable                   0x08000b7e   Section        0  gd32f4xx_dma.o(i.dma_interrupt_enable)
    i.dma_interrupt_flag_clear               0x08000bbc   Section        0  gd32f4xx_dma.o(i.dma_interrupt_flag_clear)
    i.dma_single_data_mode_init              0x08000bfc   Section        0  gd32f4xx_dma.o(i.dma_single_data_mode_init)
    i.exmc_flag_get                          0x08000d54   Section        0  gd32f4xx_exmc.o(i.exmc_flag_get)
    i.exmc_sdram_command_config              0x08000d88   Section        0  gd32f4xx_exmc.o(i.exmc_sdram_command_config)
    i.exmc_sdram_init                        0x08000da4   Section        0  gd32f4xx_exmc.o(i.exmc_sdram_init)
    i.exmc_sdram_refresh_count_set           0x08000ebc   Section        0  gd32f4xx_exmc.o(i.exmc_sdram_refresh_count_set)
    i.exmc_synchronous_dynamic_ram_init      0x08000ee0   Section        0  exmc_sdram.o(i.exmc_synchronous_dynamic_ram_init)
    i.exti_init                              0x08001144   Section        0  gd32f4xx_exti.o(i.exti_init)
    i.exti_interrupt_enable                  0x08001200   Section        0  gd32f4xx_exti.o(i.exti_interrupt_enable)
    i.exti_interrupt_flag_clear              0x08001210   Section        0  gd32f4xx_exti.o(i.exti_interrupt_flag_clear)
    i.exti_interrupt_flag_get                0x0800121c   Section        0  gd32f4xx_exti.o(i.exti_interrupt_flag_get)
    i.fputc                                  0x08001240   Section        0  bsp_usart.o(i.fputc)
    i.gpio_af_set                            0x08001250   Section        0  gd32f4xx_gpio.o(i.gpio_af_set)
    i.gpio_bit_reset                         0x080012ae   Section        0  gd32f4xx_gpio.o(i.gpio_bit_reset)
    i.gpio_bit_set                           0x080012b2   Section        0  gd32f4xx_gpio.o(i.gpio_bit_set)
    i.gpio_bit_toggle                        0x080012b6   Section        0  gd32f4xx_gpio.o(i.gpio_bit_toggle)
    i.gpio_input_bit_get                     0x080012ba   Section        0  gd32f4xx_gpio.o(i.gpio_input_bit_get)
    i.gpio_mode_set                          0x080012ca   Section        0  gd32f4xx_gpio.o(i.gpio_mode_set)
    i.gpio_output_options_set                0x08001318   Section        0  gd32f4xx_gpio.o(i.gpio_output_options_set)
    i.key_gpio_config                        0x0800135c   Section        0  bsp_key.o(i.key_gpio_config)
    i.led_gpio_config                        0x080013a8   Section        0  bsp_led.o(i.led_gpio_config)
    i.main                                   0x0800143c   Section        0  main.o(i.main)
    i.nvic_irq_enable                        0x080014d8   Section        0  gd32f4xx_misc.o(i.nvic_irq_enable)
    i.nvic_priority_group_set                0x0800159c   Section        0  gd32f4xx_misc.o(i.nvic_priority_group_set)
    i.rcu_clock_freq_get                     0x080015b0   Section        0  gd32f4xx_rcu.o(i.rcu_clock_freq_get)
    i.rcu_periph_clock_enable                0x080016d4   Section        0  gd32f4xx_rcu.o(i.rcu_periph_clock_enable)
    i.rcu_periph_reset_disable               0x080016f8   Section        0  gd32f4xx_rcu.o(i.rcu_periph_reset_disable)
    i.rcu_periph_reset_enable                0x0800171c   Section        0  gd32f4xx_rcu.o(i.rcu_periph_reset_enable)
    i.rcu_timer_clock_prescaler_config       0x08001740   Section        0  gd32f4xx_rcu.o(i.rcu_timer_clock_prescaler_config)
    i.spi_dma_enable                         0x08001764   Section        0  gd32f4xx_spi.o(i.spi_dma_enable)
    i.spi_enable                             0x0800177a   Section        0  gd32f4xx_spi.o(i.spi_enable)
    i.spi_i2s_data_receive                   0x08001784   Section        0  gd32f4xx_spi.o(i.spi_i2s_data_receive)
    i.spi_i2s_data_transmit                  0x0800178c   Section        0  gd32f4xx_spi.o(i.spi_i2s_data_transmit)
    i.spi_i2s_flag_get                       0x08001790   Section        0  gd32f4xx_spi.o(i.spi_i2s_flag_get)
    i.spi_init                               0x080017a0   Section        0  gd32f4xx_spi.o(i.spi_init)
    i.syscfg_exti_line_config                0x080017d4   Section        0  gd32f4xx_syscfg.o(i.syscfg_exti_line_config)
    i.system_clock_200m_25m_hxtal            0x08001880   Section        0  system_gd32f4xx.o(i.system_clock_200m_25m_hxtal)
    system_clock_200m_25m_hxtal              0x08001881   Thumb Code   240  system_gd32f4xx.o(i.system_clock_200m_25m_hxtal)
    i.system_clock_config                    0x0800197c   Section        0  system_gd32f4xx.o(i.system_clock_config)
    system_clock_config                      0x0800197d   Thumb Code     8  system_gd32f4xx.o(i.system_clock_config)
    i.systick_config                         0x08001984   Section        0  systick.o(i.systick_config)
    i.timer_deinit                           0x080019d4   Section        0  gd32f4xx_timer.o(i.timer_deinit)
    i.timer_enable                           0x08001b58   Section        0  gd32f4xx_timer.o(i.timer_enable)
    i.timer_init                             0x08001b64   Section        0  gd32f4xx_timer.o(i.timer_init)
    i.timer_interrupt_enable                 0x08001bfc   Section        0  gd32f4xx_timer.o(i.timer_interrupt_enable)
    i.timer_interrupt_flag_clear             0x08001c04   Section        0  gd32f4xx_timer.o(i.timer_interrupt_flag_clear)
    i.timer_interrupt_flag_get               0x08001c0a   Section        0  gd32f4xx_timer.o(i.timer_interrupt_flag_get)
    i.timer_master_output_trigger_source_select 0x08001c22   Section        0  gd32f4xx_timer.o(i.timer_master_output_trigger_source_select)
    i.usart_baudrate_set                     0x08001c34   Section        0  gd32f4xx_usart.o(i.usart_baudrate_set)
    i.usart_data_transmit                    0x08001d1c   Section        0  gd32f4xx_usart.o(i.usart_data_transmit)
    i.usart_deinit                           0x08001d24   Section        0  gd32f4xx_usart.o(i.usart_deinit)
    i.usart_enable                           0x08001e00   Section        0  gd32f4xx_usart.o(i.usart_enable)
    i.usart_flag_get                         0x08001e0a   Section        0  gd32f4xx_usart.o(i.usart_flag_get)
    i.usart_gpio_config                      0x08001e28   Section        0  bsp_usart.o(i.usart_gpio_config)
    i.usart_parity_config                    0x08001ed4   Section        0  gd32f4xx_usart.o(i.usart_parity_config)
    i.usart_send_data                        0x08001ee4   Section        0  bsp_usart.o(i.usart_send_data)
    i.usart_stop_bit_set                     0x08001f04   Section        0  gd32f4xx_usart.o(i.usart_stop_bit_set)
    i.usart_transmit_config                  0x08001f14   Section        0  gd32f4xx_usart.o(i.usart_transmit_config)
    i.usart_word_length_set                  0x08001f24   Section        0  gd32f4xx_usart.o(i.usart_word_length_set)
    .data                                    0x20000000   Section        4  systick.o(.data)
    delay                                    0x20000000   Data           4  systick.o(.data)
    .data                                    0x20000004   Section        4  system_gd32f4xx.o(.data)
    .data                                    0x20000008   Section        6  bsp_lcd.o(.data)
    Show_Number                              0x2000000d   Data           1  bsp_lcd.o(.data)
    .data                                    0x2000000e   Section        2  bsp_gui.o(.data)
    .data                                    0x20000010   Section        4  stdout.o(.data)
    STACK                                    0x20000018   Section     1024  startup_gd32f450_470.o(STACK)
    .ARM.__AT_0xC0000000                     0xc0000000   Section    153600  bsp_gui.o(.ARM.__AT_0xC0000000)
    .ARM.__AT_0xC0025800                     0xc0025800   Section    153600  bsp_gui.o(.ARM.__AT_0xC0025800)

    Global Symbols

    Symbol Name                              Value     Ov Type        Size  Object(Section)

    BuildAttributes$$THM_ISAv4$E$P$D$K$B$S$7EM$VFPi3$EXTD16$VFPS$VFMA$PE$A:L22UL41UL21$X:L11$S22US41US21$IEEE1$IW$USESV6$~STKCKD$USESV7$~SHL$OSPACE$ROPI$EBA8$MICROLIB$REQ8$PRES8$EABIv2 0x00000000   Number         0  anon$$obj.o ABSOLUTE
    __ARM_use_no_argv                        0x00000000   Number         0  main.o ABSOLUTE
    __arm_fini_                               - Undefined Weak Reference
    __cpp_initialize__aeabi_                  - Undefined Weak Reference
    __cxa_finalize                            - Undefined Weak Reference
    __decompress                              - Undefined Weak Reference
    _clock_init                               - Undefined Weak Reference
    _microlib_exit                            - Undefined Weak Reference
    __Vectors_Size                           0x000001ac   Number         0  startup_gd32f450_470.o ABSOLUTE
    __Vectors                                0x08000000   Data           4  startup_gd32f450_470.o(RESET)
    __Vectors_End                            0x080001ac   Data           0  startup_gd32f450_470.o(RESET)
    __main                                   0x080001ad   Thumb Code     0  entry.o(.ARM.Collect$$$$00000000)
    _main_stk                                0x080001ad   Thumb Code     0  entry2.o(.ARM.Collect$$$$00000001)
    _main_scatterload                        0x080001b1   Thumb Code     0  entry5.o(.ARM.Collect$$$$00000004)
    __main_after_scatterload                 0x080001b5   Thumb Code     0  entry5.o(.ARM.Collect$$$$00000004)
    _main_clock                              0x080001b5   Thumb Code     0  entry7b.o(.ARM.Collect$$$$00000008)
    _main_cpp_init                           0x080001b5   Thumb Code     0  entry8b.o(.ARM.Collect$$$$0000000A)
    _main_init                               0x080001b5   Thumb Code     0  entry9a.o(.ARM.Collect$$$$0000000B)
    __rt_lib_shutdown_fini                   0x080001bd   Thumb Code     0  entry12b.o(.ARM.Collect$$$$0000000E)
    __rt_final_cpp                           0x080001c1   Thumb Code     0  entry10a.o(.ARM.Collect$$$$0000000F)
    __rt_final_exit                          0x080001c1   Thumb Code     0  entry11a.o(.ARM.Collect$$$$00000011)
    Reset_Handler                            0x080001c5   Thumb Code     8  startup_gd32f450_470.o(.text)
    ADC_IRQHandler                           0x080001df   Thumb Code     0  startup_gd32f450_470.o(.text)
    CAN0_EWMC_IRQHandler                     0x080001df   Thumb Code     0  startup_gd32f450_470.o(.text)
    CAN0_RX0_IRQHandler                      0x080001df   Thumb Code     0  startup_gd32f450_470.o(.text)
    CAN0_RX1_IRQHandler                      0x080001df   Thumb Code     0  startup_gd32f450_470.o(.text)
    CAN0_TX_IRQHandler                       0x080001df   Thumb Code     0  startup_gd32f450_470.o(.text)
    CAN1_EWMC_IRQHandler                     0x080001df   Thumb Code     0  startup_gd32f450_470.o(.text)
    CAN1_RX0_IRQHandler                      0x080001df   Thumb Code     0  startup_gd32f450_470.o(.text)
    CAN1_RX1_IRQHandler                      0x080001df   Thumb Code     0  startup_gd32f450_470.o(.text)
    CAN1_TX_IRQHandler                       0x080001df   Thumb Code     0  startup_gd32f450_470.o(.text)
    DCI_IRQHandler                           0x080001df   Thumb Code     0  startup_gd32f450_470.o(.text)
    DMA0_Channel0_IRQHandler                 0x080001df   Thumb Code     0  startup_gd32f450_470.o(.text)
    DMA0_Channel1_IRQHandler                 0x080001df   Thumb Code     0  startup_gd32f450_470.o(.text)
    DMA0_Channel2_IRQHandler                 0x080001df   Thumb Code     0  startup_gd32f450_470.o(.text)
    DMA0_Channel3_IRQHandler                 0x080001df   Thumb Code     0  startup_gd32f450_470.o(.text)
    DMA0_Channel4_IRQHandler                 0x080001df   Thumb Code     0  startup_gd32f450_470.o(.text)
    DMA0_Channel6_IRQHandler                 0x080001df   Thumb Code     0  startup_gd32f450_470.o(.text)
    DMA0_Channel7_IRQHandler                 0x080001df   Thumb Code     0  startup_gd32f450_470.o(.text)
    DMA1_Channel0_IRQHandler                 0x080001df   Thumb Code     0  startup_gd32f450_470.o(.text)
    DMA1_Channel1_IRQHandler                 0x080001df   Thumb Code     0  startup_gd32f450_470.o(.text)
    DMA1_Channel2_IRQHandler                 0x080001df   Thumb Code     0  startup_gd32f450_470.o(.text)
    DMA1_Channel3_IRQHandler                 0x080001df   Thumb Code     0  startup_gd32f450_470.o(.text)
    DMA1_Channel4_IRQHandler                 0x080001df   Thumb Code     0  startup_gd32f450_470.o(.text)
    DMA1_Channel5_IRQHandler                 0x080001df   Thumb Code     0  startup_gd32f450_470.o(.text)
    DMA1_Channel6_IRQHandler                 0x080001df   Thumb Code     0  startup_gd32f450_470.o(.text)
    DMA1_Channel7_IRQHandler                 0x080001df   Thumb Code     0  startup_gd32f450_470.o(.text)
    ENET_IRQHandler                          0x080001df   Thumb Code     0  startup_gd32f450_470.o(.text)
    ENET_WKUP_IRQHandler                     0x080001df   Thumb Code     0  startup_gd32f450_470.o(.text)
    EXMC_IRQHandler                          0x080001df   Thumb Code     0  startup_gd32f450_470.o(.text)
    EXTI10_15_IRQHandler                     0x080001df   Thumb Code     0  startup_gd32f450_470.o(.text)
    EXTI1_IRQHandler                         0x080001df   Thumb Code     0  startup_gd32f450_470.o(.text)
    EXTI2_IRQHandler                         0x080001df   Thumb Code     0  startup_gd32f450_470.o(.text)
    EXTI3_IRQHandler                         0x080001df   Thumb Code     0  startup_gd32f450_470.o(.text)
    EXTI4_IRQHandler                         0x080001df   Thumb Code     0  startup_gd32f450_470.o(.text)
    EXTI5_9_IRQHandler                       0x080001df   Thumb Code     0  startup_gd32f450_470.o(.text)
    FMC_IRQHandler                           0x080001df   Thumb Code     0  startup_gd32f450_470.o(.text)
    FPU_IRQHandler                           0x080001df   Thumb Code     0  startup_gd32f450_470.o(.text)
    I2C0_ER_IRQHandler                       0x080001df   Thumb Code     0  startup_gd32f450_470.o(.text)
    I2C0_EV_IRQHandler                       0x080001df   Thumb Code     0  startup_gd32f450_470.o(.text)
    I2C1_ER_IRQHandler                       0x080001df   Thumb Code     0  startup_gd32f450_470.o(.text)
    I2C1_EV_IRQHandler                       0x080001df   Thumb Code     0  startup_gd32f450_470.o(.text)
    I2C2_ER_IRQHandler                       0x080001df   Thumb Code     0  startup_gd32f450_470.o(.text)
    I2C2_EV_IRQHandler                       0x080001df   Thumb Code     0  startup_gd32f450_470.o(.text)
    IPA_IRQHandler                           0x080001df   Thumb Code     0  startup_gd32f450_470.o(.text)
    LVD_IRQHandler                           0x080001df   Thumb Code     0  startup_gd32f450_470.o(.text)
    RCU_CTC_IRQHandler                       0x080001df   Thumb Code     0  startup_gd32f450_470.o(.text)
    RTC_Alarm_IRQHandler                     0x080001df   Thumb Code     0  startup_gd32f450_470.o(.text)
    RTC_WKUP_IRQHandler                      0x080001df   Thumb Code     0  startup_gd32f450_470.o(.text)
    SDIO_IRQHandler                          0x080001df   Thumb Code     0  startup_gd32f450_470.o(.text)
    SPI0_IRQHandler                          0x080001df   Thumb Code     0  startup_gd32f450_470.o(.text)
    SPI1_IRQHandler                          0x080001df   Thumb Code     0  startup_gd32f450_470.o(.text)
    SPI2_IRQHandler                          0x080001df   Thumb Code     0  startup_gd32f450_470.o(.text)
    SPI3_IRQHandler                          0x080001df   Thumb Code     0  startup_gd32f450_470.o(.text)
    SPI4_IRQHandler                          0x080001df   Thumb Code     0  startup_gd32f450_470.o(.text)
    SPI5_IRQHandler                          0x080001df   Thumb Code     0  startup_gd32f450_470.o(.text)
    TAMPER_STAMP_IRQHandler                  0x080001df   Thumb Code     0  startup_gd32f450_470.o(.text)
    TIMER0_BRK_TIMER8_IRQHandler             0x080001df   Thumb Code     0  startup_gd32f450_470.o(.text)
    TIMER0_Channel_IRQHandler                0x080001df   Thumb Code     0  startup_gd32f450_470.o(.text)
    TIMER0_TRG_CMT_TIMER10_IRQHandler        0x080001df   Thumb Code     0  startup_gd32f450_470.o(.text)
    TIMER0_UP_TIMER9_IRQHandler              0x080001df   Thumb Code     0  startup_gd32f450_470.o(.text)
    TIMER1_IRQHandler                        0x080001df   Thumb Code     0  startup_gd32f450_470.o(.text)
    TIMER2_IRQHandler                        0x080001df   Thumb Code     0  startup_gd32f450_470.o(.text)
    TIMER4_IRQHandler                        0x080001df   Thumb Code     0  startup_gd32f450_470.o(.text)
    TIMER6_IRQHandler                        0x080001df   Thumb Code     0  startup_gd32f450_470.o(.text)
    TIMER7_BRK_TIMER11_IRQHandler            0x080001df   Thumb Code     0  startup_gd32f450_470.o(.text)
    TIMER7_Channel_IRQHandler                0x080001df   Thumb Code     0  startup_gd32f450_470.o(.text)
    TIMER7_TRG_CMT_TIMER13_IRQHandler        0x080001df   Thumb Code     0  startup_gd32f450_470.o(.text)
    TIMER7_UP_TIMER12_IRQHandler             0x080001df   Thumb Code     0  startup_gd32f450_470.o(.text)
    TLI_ER_IRQHandler                        0x080001df   Thumb Code     0  startup_gd32f450_470.o(.text)
    TLI_IRQHandler                           0x080001df   Thumb Code     0  startup_gd32f450_470.o(.text)
    TRNG_IRQHandler                          0x080001df   Thumb Code     0  startup_gd32f450_470.o(.text)
    UART3_IRQHandler                         0x080001df   Thumb Code     0  startup_gd32f450_470.o(.text)
    UART4_IRQHandler                         0x080001df   Thumb Code     0  startup_gd32f450_470.o(.text)
    UART6_IRQHandler                         0x080001df   Thumb Code     0  startup_gd32f450_470.o(.text)
    UART7_IRQHandler                         0x080001df   Thumb Code     0  startup_gd32f450_470.o(.text)
    USART0_IRQHandler                        0x080001df   Thumb Code     0  startup_gd32f450_470.o(.text)
    USART1_IRQHandler                        0x080001df   Thumb Code     0  startup_gd32f450_470.o(.text)
    USART2_IRQHandler                        0x080001df   Thumb Code     0  startup_gd32f450_470.o(.text)
    USART5_IRQHandler                        0x080001df   Thumb Code     0  startup_gd32f450_470.o(.text)
    USBFS_IRQHandler                         0x080001df   Thumb Code     0  startup_gd32f450_470.o(.text)
    USBFS_WKUP_IRQHandler                    0x080001df   Thumb Code     0  startup_gd32f450_470.o(.text)
    USBHS_EP1_In_IRQHandler                  0x080001df   Thumb Code     0  startup_gd32f450_470.o(.text)
    USBHS_EP1_Out_IRQHandler                 0x080001df   Thumb Code     0  startup_gd32f450_470.o(.text)
    USBHS_IRQHandler                         0x080001df   Thumb Code     0  startup_gd32f450_470.o(.text)
    USBHS_WKUP_IRQHandler                    0x080001df   Thumb Code     0  startup_gd32f450_470.o(.text)
    WWDGT_IRQHandler                         0x080001df   Thumb Code     0  startup_gd32f450_470.o(.text)
    __scatterload                            0x080001e9   Thumb Code    28  init.o(.text)
    __scatterload_rt2                        0x080001e9   Thumb Code     0  init.o(.text)
    BusFault_Handler                         0x0800020d   Thumb Code     4  gd32f4xx_it.o(i.BusFault_Handler)
    DMA0_Channel5_IRQHandler                 0x08000211   Thumb Code   126  bsp_lcd.o(i.DMA0_Channel5_IRQHandler)
    DebugMon_Handler                         0x080002a9   Thumb Code     2  gd32f4xx_it.o(i.DebugMon_Handler)
    EXTI0_IRQHandler                         0x080002ad   Thumb Code    46  bsp_key.o(i.EXTI0_IRQHandler)
    HardFault_Handler                        0x08000301   Thumb Code     4  gd32f4xx_it.o(i.HardFault_Handler)
    LCD_Address_Set                          0x08000305   Thumb Code    58  bsp_lcd.o(i.LCD_Address_Set)
    LCD_Fill                                 0x08000341   Thumb Code   114  bsp_lcd.o(i.LCD_Fill)
    LCD_GPIO_Init                            0x080003bd   Thumb Code    82  bsp_lcd.o(i.LCD_GPIO_Init)
    LCD_Init                                 0x08000419   Thumb Code   454  bsp_lcd.o(i.LCD_Init)
    LCD_Show_Gram                            0x080005e9   Thumb Code    80  bsp_lcd.o(i.LCD_Show_Gram)
    LCD_WR_DATA                              0x08000649   Thumb Code    18  bsp_lcd.o(i.LCD_WR_DATA)
    LCD_WR_DATA8                             0x0800065b   Thumb Code    12  bsp_lcd.o(i.LCD_WR_DATA8)
    LCD_WR_REG                               0x08000669   Thumb Code    28  bsp_lcd.o(i.LCD_WR_REG)
    LCD_Writ_Bus                             0x08000689   Thumb Code    28  bsp_lcd.o(i.LCD_Writ_Bus)
    Lcd_Gram_Fill                            0x080006a9   Thumb Code    22  bsp_gui.o(i.Lcd_Gram_Fill)
    Lcd_Show_Time                            0x080006c1   Thumb Code    98  bsp_gui.o(i.Lcd_Show_Time)
    MemManage_Handler                        0x08000729   Thumb Code     4  gd32f4xx_it.o(i.MemManage_Handler)
    NMI_Handler                              0x0800072d   Thumb Code     2  gd32f4xx_it.o(i.NMI_Handler)
    PendSV_Handler                           0x08000759   Thumb Code     2  gd32f4xx_it.o(i.PendSV_Handler)
    SVC_Handler                              0x0800075b   Thumb Code     2  gd32f4xx_it.o(i.SVC_Handler)
    Spi2_Dma_Init                            0x0800075d   Thumb Code   104  bsp_spi.o(i.Spi2_Dma_Init)
    Spi2_Init                                0x080007cd   Thumb Code   116  bsp_spi.o(i.Spi2_Init)
    Spi2_ReadWriteByte                       0x08000849   Thumb Code    64  bsp_spi.o(i.Spi2_ReadWriteByte)
    Spi2_Write                               0x0800088d   Thumb Code    28  bsp_spi.o(i.Spi2_Write)
    SysTick_Handler                          0x080008ad   Thumb Code     8  gd32f4xx_it.o(i.SysTick_Handler)
    SystemInit                               0x080008b5   Thumb Code   184  system_gd32f4xx.o(i.SystemInit)
    TIMER3_IRQHandler                        0x0800097d   Thumb Code    68  main.o(i.TIMER3_IRQHandler)
    TIMER5_DAC_IRQHandler                    0x080009d9   Thumb Code    30  bsp_basic_timer.o(i.TIMER5_DAC_IRQHandler)
    UsageFault_Handler                       0x08000a15   Thumb Code     4  gd32f4xx_it.o(i.UsageFault_Handler)
    __0printf$bare                           0x08000a19   Thumb Code     8  printfb.o(i.__0printf$bare)
    __1printf$bare                           0x08000a19   Thumb Code     0  printfb.o(i.__0printf$bare)
    __2printf                                0x08000a19   Thumb Code     0  printfb.o(i.__0printf$bare)
    __scatterload_copy                       0x08000a29   Thumb Code    14  handlers.o(i.__scatterload_copy)
    __scatterload_null                       0x08000a37   Thumb Code     2  handlers.o(i.__scatterload_null)
    __scatterload_zeroinit                   0x08000a39   Thumb Code    14  handlers.o(i.__scatterload_zeroinit)
    delay_1ms                                0x08000a69   Thumb Code    16  systick.o(i.delay_1ms)
    delay_decrement                          0x08000a7d   Thumb Code    18  systick.o(i.delay_decrement)
    dma_channel_subperipheral_select         0x08000a95   Thumb Code    38  gd32f4xx_dma.o(i.dma_channel_subperipheral_select)
    dma_circulation_disable                  0x08000abb   Thumb Code    32  gd32f4xx_dma.o(i.dma_circulation_disable)
    dma_deinit                               0x08000adb   Thumb Code   164  gd32f4xx_dma.o(i.dma_deinit)
    dma_interrupt_enable                     0x08000b7f   Thumb Code    62  gd32f4xx_dma.o(i.dma_interrupt_enable)
    dma_interrupt_flag_clear                 0x08000bbd   Thumb Code    62  gd32f4xx_dma.o(i.dma_interrupt_flag_clear)
    dma_single_data_mode_init                0x08000bfd   Thumb Code   340  gd32f4xx_dma.o(i.dma_single_data_mode_init)
    exmc_flag_get                            0x08000d55   Thumb Code    46  gd32f4xx_exmc.o(i.exmc_flag_get)
    exmc_sdram_command_config                0x08000d89   Thumb Code    22  gd32f4xx_exmc.o(i.exmc_sdram_command_config)
    exmc_sdram_init                          0x08000da5   Thumb Code   272  gd32f4xx_exmc.o(i.exmc_sdram_init)
    exmc_sdram_refresh_count_set             0x08000ebd   Thumb Code    30  gd32f4xx_exmc.o(i.exmc_sdram_refresh_count_set)
    exmc_synchronous_dynamic_ram_init        0x08000ee1   Thumb Code   590  exmc_sdram.o(i.exmc_synchronous_dynamic_ram_init)
    exti_init                                0x08001145   Thumb Code   184  gd32f4xx_exti.o(i.exti_init)
    exti_interrupt_enable                    0x08001201   Thumb Code    12  gd32f4xx_exti.o(i.exti_interrupt_enable)
    exti_interrupt_flag_clear                0x08001211   Thumb Code     6  gd32f4xx_exti.o(i.exti_interrupt_flag_clear)
    exti_interrupt_flag_get                  0x0800121d   Thumb Code    32  gd32f4xx_exti.o(i.exti_interrupt_flag_get)
    fputc                                    0x08001241   Thumb Code    16  bsp_usart.o(i.fputc)
    gpio_af_set                              0x08001251   Thumb Code    94  gd32f4xx_gpio.o(i.gpio_af_set)
    gpio_bit_reset                           0x080012af   Thumb Code     4  gd32f4xx_gpio.o(i.gpio_bit_reset)
    gpio_bit_set                             0x080012b3   Thumb Code     4  gd32f4xx_gpio.o(i.gpio_bit_set)
    gpio_bit_toggle                          0x080012b7   Thumb Code     4  gd32f4xx_gpio.o(i.gpio_bit_toggle)
    gpio_input_bit_get                       0x080012bb   Thumb Code    16  gd32f4xx_gpio.o(i.gpio_input_bit_get)
    gpio_mode_set                            0x080012cb   Thumb Code    78  gd32f4xx_gpio.o(i.gpio_mode_set)
    gpio_output_options_set                  0x08001319   Thumb Code    66  gd32f4xx_gpio.o(i.gpio_output_options_set)
    key_gpio_config                          0x0800135d   Thumb Code    72  bsp_key.o(i.key_gpio_config)
    led_gpio_config                          0x080013a9   Thumb Code   132  bsp_led.o(i.led_gpio_config)
    main                                     0x0800143d   Thumb Code   138  main.o(i.main)
    nvic_irq_enable                          0x080014d9   Thumb Code   186  gd32f4xx_misc.o(i.nvic_irq_enable)
    nvic_priority_group_set                  0x0800159d   Thumb Code    10  gd32f4xx_misc.o(i.nvic_priority_group_set)
    rcu_clock_freq_get                       0x080015b1   Thumb Code   264  gd32f4xx_rcu.o(i.rcu_clock_freq_get)
    rcu_periph_clock_enable                  0x080016d5   Thumb Code    32  gd32f4xx_rcu.o(i.rcu_periph_clock_enable)
    rcu_periph_reset_disable                 0x080016f9   Thumb Code    32  gd32f4xx_rcu.o(i.rcu_periph_reset_disable)
    rcu_periph_reset_enable                  0x0800171d   Thumb Code    32  gd32f4xx_rcu.o(i.rcu_periph_reset_enable)
    rcu_timer_clock_prescaler_config         0x08001741   Thumb Code    32  gd32f4xx_rcu.o(i.rcu_timer_clock_prescaler_config)
    spi_dma_enable                           0x08001765   Thumb Code    22  gd32f4xx_spi.o(i.spi_dma_enable)
    spi_enable                               0x0800177b   Thumb Code    10  gd32f4xx_spi.o(i.spi_enable)
    spi_i2s_data_receive                     0x08001785   Thumb Code     8  gd32f4xx_spi.o(i.spi_i2s_data_receive)
    spi_i2s_data_transmit                    0x0800178d   Thumb Code     4  gd32f4xx_spi.o(i.spi_i2s_data_transmit)
    spi_i2s_flag_get                         0x08001791   Thumb Code    16  gd32f4xx_spi.o(i.spi_i2s_flag_get)
    spi_init                                 0x080017a1   Thumb Code    50  gd32f4xx_spi.o(i.spi_init)
    syscfg_exti_line_config                  0x080017d5   Thumb Code   166  gd32f4xx_syscfg.o(i.syscfg_exti_line_config)
    systick_config                           0x08001985   Thumb Code    74  systick.o(i.systick_config)
    timer_deinit                             0x080019d5   Thumb Code   374  gd32f4xx_timer.o(i.timer_deinit)
    timer_enable                             0x08001b59   Thumb Code    10  gd32f4xx_timer.o(i.timer_enable)
    timer_init                               0x08001b65   Thumb Code   122  gd32f4xx_timer.o(i.timer_init)
    timer_interrupt_enable                   0x08001bfd   Thumb Code     8  gd32f4xx_timer.o(i.timer_interrupt_enable)
    timer_interrupt_flag_clear               0x08001c05   Thumb Code     6  gd32f4xx_timer.o(i.timer_interrupt_flag_clear)
    timer_interrupt_flag_get                 0x08001c0b   Thumb Code    24  gd32f4xx_timer.o(i.timer_interrupt_flag_get)
    timer_master_output_trigger_source_select 0x08001c23   Thumb Code    16  gd32f4xx_timer.o(i.timer_master_output_trigger_source_select)
    usart_baudrate_set                       0x08001c35   Thumb Code   224  gd32f4xx_usart.o(i.usart_baudrate_set)
    usart_data_transmit                      0x08001d1d   Thumb Code     8  gd32f4xx_usart.o(i.usart_data_transmit)
    usart_deinit                             0x08001d25   Thumb Code   210  gd32f4xx_usart.o(i.usart_deinit)
    usart_enable                             0x08001e01   Thumb Code    10  gd32f4xx_usart.o(i.usart_enable)
    usart_flag_get                           0x08001e0b   Thumb Code    30  gd32f4xx_usart.o(i.usart_flag_get)
    usart_gpio_config                        0x08001e29   Thumb Code   162  bsp_usart.o(i.usart_gpio_config)
    usart_parity_config                      0x08001ed5   Thumb Code    16  gd32f4xx_usart.o(i.usart_parity_config)
    usart_send_data                          0x08001ee5   Thumb Code    28  bsp_usart.o(i.usart_send_data)
    usart_stop_bit_set                       0x08001f05   Thumb Code    16  gd32f4xx_usart.o(i.usart_stop_bit_set)
    usart_transmit_config                    0x08001f15   Thumb Code    16  gd32f4xx_usart.o(i.usart_transmit_config)
    usart_word_length_set                    0x08001f25   Thumb Code    16  gd32f4xx_usart.o(i.usart_word_length_set)
    Region$$Table$$Base                      0x08001f34   Number         0  anon$$obj.o(Region$$Table)
    Region$$Table$$Limit                     0x08001f54   Number         0  anon$$obj.o(Region$$Table)
    SystemCoreClock                          0x20000004   Data           4  system_gd32f4xx.o(.data)
    LCD_SHOW_RAM                             0x20000008   Data           4  bsp_lcd.o(.data)
    Lcd_Show_Over                            0x2000000c   Data           1  bsp_lcd.o(.data)
    Show_AB                                  0x2000000e   Data           1  bsp_gui.o(.data)
    Show_Star                                0x2000000f   Data           1  bsp_gui.o(.data)
    __stdout                                 0x20000010   Data           4  stdout.o(.data)
    __initial_sp                             0x20000418   Data           0  startup_gd32f450_470.o(STACK)
    Show_GramA                               0xc0000000   Data       153600  bsp_gui.o(.ARM.__AT_0xC0000000)
    Show_GramB                               0xc0025800   Data       153600  bsp_gui.o(.ARM.__AT_0xC0025800)



==============================================================================

Memory Map of the image

  Image Entry point : 0x080001ad

  Load Region LR_IROM1 (Base: 0x08000000, Size: 0x00001f68, Max: 0x00100000, ABSOLUTE)

    Execution Region ER_IROM1 (Exec base: 0x08000000, Load base: 0x08000000, Size: 0x00001f54, Max: 0x00100000, ABSOLUTE)

    Exec Addr    Load Addr    Size         Type   Attr      Idx    E Section Name        Object

    0x08000000   0x08000000   0x000001ac   Data   RO          476    RESET               startup_gd32f450_470.o
    0x080001ac   0x080001ac   0x00000000   Code   RO         2961  * .ARM.Collect$$$$00000000  mc_w.l(entry.o)
    0x080001ac   0x080001ac   0x00000004   Code   RO         3224    .ARM.Collect$$$$00000001  mc_w.l(entry2.o)
    0x080001b0   0x080001b0   0x00000004   Code   RO         3227    .ARM.Collect$$$$00000004  mc_w.l(entry5.o)
    0x080001b4   0x080001b4   0x00000000   Code   RO         3229    .ARM.Collect$$$$00000008  mc_w.l(entry7b.o)
    0x080001b4   0x080001b4   0x00000000   Code   RO         3231    .ARM.Collect$$$$0000000A  mc_w.l(entry8b.o)
    0x080001b4   0x080001b4   0x00000008   Code   RO         3232    .ARM.Collect$$$$0000000B  mc_w.l(entry9a.o)
    0x080001bc   0x080001bc   0x00000004   Code   RO         3239    .ARM.Collect$$$$0000000E  mc_w.l(entry12b.o)
    0x080001c0   0x080001c0   0x00000000   Code   RO         3234    .ARM.Collect$$$$0000000F  mc_w.l(entry10a.o)
    0x080001c0   0x080001c0   0x00000000   Code   RO         3236    .ARM.Collect$$$$00000011  mc_w.l(entry11a.o)
    0x080001c0   0x080001c0   0x00000004   Code   RO         3225    .ARM.Collect$$$$00002712  mc_w.l(entry2.o)
    0x080001c4   0x080001c4   0x00000024   Code   RO          477    .text               startup_gd32f450_470.o
    0x080001e8   0x080001e8   0x00000024   Code   RO         3256    .text               mc_w.l(init.o)
    0x0800020c   0x0800020c   0x00000004   Code   RO          339    i.BusFault_Handler  gd32f4xx_it.o
    0x08000210   0x08000210   0x00000098   Code   RO          611    i.DMA0_Channel5_IRQHandler  bsp_lcd.o
    0x080002a8   0x080002a8   0x00000002   Code   RO          340    i.DebugMon_Handler  gd32f4xx_it.o
    0x080002aa   0x080002aa   0x00000002   PAD
    0x080002ac   0x080002ac   0x00000054   Code   RO          547    i.EXTI0_IRQHandler  bsp_key.o
    0x08000300   0x08000300   0x00000004   Code   RO          341    i.HardFault_Handler  gd32f4xx_it.o
    0x08000304   0x08000304   0x0000003a   Code   RO          612    i.LCD_Address_Set   bsp_lcd.o
    0x0800033e   0x0800033e   0x00000002   PAD
    0x08000340   0x08000340   0x0000007c   Code   RO          613    i.LCD_Fill          bsp_lcd.o
    0x080003bc   0x080003bc   0x0000005c   Code   RO          614    i.LCD_GPIO_Init     bsp_lcd.o
    0x08000418   0x08000418   0x000001d0   Code   RO          615    i.LCD_Init          bsp_lcd.o
    0x080005e8   0x080005e8   0x00000060   Code   RO          616    i.LCD_Show_Gram     bsp_lcd.o
    0x08000648   0x08000648   0x00000012   Code   RO          617    i.LCD_WR_DATA       bsp_lcd.o
    0x0800065a   0x0800065a   0x0000000c   Code   RO          618    i.LCD_WR_DATA8      bsp_lcd.o
    0x08000666   0x08000666   0x00000002   PAD
    0x08000668   0x08000668   0x00000020   Code   RO          619    i.LCD_WR_REG        bsp_lcd.o
    0x08000688   0x08000688   0x00000020   Code   RO          620    i.LCD_Writ_Bus      bsp_lcd.o
    0x080006a8   0x080006a8   0x00000016   Code   RO          791    i.Lcd_Gram_Fill     bsp_gui.o
    0x080006be   0x080006be   0x00000002   PAD
    0x080006c0   0x080006c0   0x00000068   Code   RO          792    i.Lcd_Show_Time     bsp_gui.o
    0x08000728   0x08000728   0x00000004   Code   RO          342    i.MemManage_Handler  gd32f4xx_it.o
    0x0800072c   0x0800072c   0x00000002   Code   RO          343    i.NMI_Handler       gd32f4xx_it.o
    0x0800072e   0x0800072e   0x00000002   PAD
    0x08000730   0x08000730   0x00000028   Code   RO            3    i.NVIC_SetPriority  systick.o
    0x08000758   0x08000758   0x00000002   Code   RO          344    i.PendSV_Handler    gd32f4xx_it.o
    0x0800075a   0x0800075a   0x00000002   Code   RO          345    i.SVC_Handler       gd32f4xx_it.o
    0x0800075c   0x0800075c   0x00000070   Code   RO          691    i.Spi2_Dma_Init     bsp_spi.o
    0x080007cc   0x080007cc   0x0000007c   Code   RO          692    i.Spi2_Init         bsp_spi.o
    0x08000848   0x08000848   0x00000044   Code   RO          694    i.Spi2_ReadWriteByte  bsp_spi.o
    0x0800088c   0x0800088c   0x00000020   Code   RO          695    i.Spi2_Write        bsp_spi.o
    0x080008ac   0x080008ac   0x00000008   Code   RO          346    i.SysTick_Handler   gd32f4xx_it.o
    0x080008b4   0x080008b4   0x000000c8   Code   RO          435    i.SystemInit        system_gd32f4xx.o
    0x0800097c   0x0800097c   0x0000005c   Code   RO          164    i.TIMER3_IRQHandler  main.o
    0x080009d8   0x080009d8   0x0000003c   Code   RO          582    i.TIMER5_DAC_IRQHandler  bsp_basic_timer.o
    0x08000a14   0x08000a14   0x00000004   Code   RO          347    i.UsageFault_Handler  gd32f4xx_it.o
    0x08000a18   0x08000a18   0x00000010   Code   RO         2965    i.__0printf$bare    mc_w.l(printfb.o)
    0x08000a28   0x08000a28   0x0000000e   Code   RO         3268    i.__scatterload_copy  mc_w.l(handlers.o)
    0x08000a36   0x08000a36   0x00000002   Code   RO         3269    i.__scatterload_null  mc_w.l(handlers.o)
    0x08000a38   0x08000a38   0x0000000e   Code   RO         3270    i.__scatterload_zeroinit  mc_w.l(handlers.o)
    0x08000a46   0x08000a46   0x00000022   Code   RO         2972    i._printf_core      mc_w.l(printfb.o)
    0x08000a68   0x08000a68   0x00000014   Code   RO            4    i.delay_1ms         systick.o
    0x08000a7c   0x08000a7c   0x00000018   Code   RO            5    i.delay_decrement   systick.o
    0x08000a94   0x08000a94   0x00000026   Code   RO         2469    i.dma_channel_subperipheral_select  gd32f4xx_dma.o
    0x08000aba   0x08000aba   0x00000020   Code   RO         2470    i.dma_circulation_disable  gd32f4xx_dma.o
    0x08000ada   0x08000ada   0x000000a4   Code   RO         2472    i.dma_deinit        gd32f4xx_dma.o
    0x08000b7e   0x08000b7e   0x0000003e   Code   RO         2478    i.dma_interrupt_enable  gd32f4xx_dma.o
    0x08000bbc   0x08000bbc   0x0000003e   Code   RO         2479    i.dma_interrupt_flag_clear  gd32f4xx_dma.o
    0x08000bfa   0x08000bfa   0x00000002   PAD
    0x08000bfc   0x08000bfc   0x00000158   Code   RO         2492    i.dma_single_data_mode_init  gd32f4xx_dma.o
    0x08000d54   0x08000d54   0x00000034   Code   RO         2681    i.exmc_flag_get     gd32f4xx_exmc.o
    0x08000d88   0x08000d88   0x0000001c   Code   RO         2706    i.exmc_sdram_command_config  gd32f4xx_exmc.o
    0x08000da4   0x08000da4   0x00000118   Code   RO         2708    i.exmc_sdram_init   gd32f4xx_exmc.o
    0x08000ebc   0x08000ebc   0x00000024   Code   RO         2711    i.exmc_sdram_refresh_count_set  gd32f4xx_exmc.o
    0x08000ee0   0x08000ee0   0x00000264   Code   RO          738    i.exmc_synchronous_dynamic_ram_init  exmc_sdram.o
    0x08001144   0x08001144   0x000000bc   Code   RO         1692    i.exti_init         gd32f4xx_exti.o
    0x08001200   0x08001200   0x00000010   Code   RO         1694    i.exti_interrupt_enable  gd32f4xx_exti.o
    0x08001210   0x08001210   0x0000000c   Code   RO         1695    i.exti_interrupt_flag_clear  gd32f4xx_exti.o
    0x0800121c   0x0800121c   0x00000024   Code   RO         1696    i.exti_interrupt_flag_get  gd32f4xx_exti.o
    0x08001240   0x08001240   0x00000010   Code   RO          506    i.fputc             bsp_usart.o
    0x08001250   0x08001250   0x0000005e   Code   RO          825    i.gpio_af_set       gd32f4xx_gpio.o
    0x080012ae   0x080012ae   0x00000004   Code   RO          826    i.gpio_bit_reset    gd32f4xx_gpio.o
    0x080012b2   0x080012b2   0x00000004   Code   RO          827    i.gpio_bit_set      gd32f4xx_gpio.o
    0x080012b6   0x080012b6   0x00000004   Code   RO          828    i.gpio_bit_toggle   gd32f4xx_gpio.o
    0x080012ba   0x080012ba   0x00000010   Code   RO          831    i.gpio_input_bit_get  gd32f4xx_gpio.o
    0x080012ca   0x080012ca   0x0000004e   Code   RO          833    i.gpio_mode_set     gd32f4xx_gpio.o
    0x08001318   0x08001318   0x00000042   Code   RO          835    i.gpio_output_options_set  gd32f4xx_gpio.o
    0x0800135a   0x0800135a   0x00000002   PAD
    0x0800135c   0x0800135c   0x0000004c   Code   RO          548    i.key_gpio_config   bsp_key.o
    0x080013a8   0x080013a8   0x00000094   Code   RO          483    i.led_gpio_config   bsp_led.o
    0x0800143c   0x0800143c   0x0000009c   Code   RO          165    i.main              main.o
    0x080014d8   0x080014d8   0x000000c4   Code   RO         1570    i.nvic_irq_enable   gd32f4xx_misc.o
    0x0800159c   0x0800159c   0x00000014   Code   RO         1571    i.nvic_priority_group_set  gd32f4xx_misc.o
    0x080015b0   0x080015b0   0x00000124   Code   RO          938    i.rcu_clock_freq_get  gd32f4xx_rcu.o
    0x080016d4   0x080016d4   0x00000024   Code   RO          957    i.rcu_periph_clock_enable  gd32f4xx_rcu.o
    0x080016f8   0x080016f8   0x00000024   Code   RO          960    i.rcu_periph_reset_disable  gd32f4xx_rcu.o
    0x0800171c   0x0800171c   0x00000024   Code   RO          961    i.rcu_periph_reset_enable  gd32f4xx_rcu.o
    0x08001740   0x08001740   0x00000024   Code   RO          973    i.rcu_timer_clock_prescaler_config  gd32f4xx_rcu.o
    0x08001764   0x08001764   0x00000016   Code   RO         2240    i.spi_dma_enable    gd32f4xx_spi.o
    0x0800177a   0x0800177a   0x0000000a   Code   RO         2241    i.spi_enable        gd32f4xx_spi.o
    0x08001784   0x08001784   0x00000008   Code   RO         2243    i.spi_i2s_data_receive  gd32f4xx_spi.o
    0x0800178c   0x0800178c   0x00000004   Code   RO         2244    i.spi_i2s_data_transmit  gd32f4xx_spi.o
    0x08001790   0x08001790   0x00000010   Code   RO         2246    i.spi_i2s_flag_get  gd32f4xx_spi.o
    0x080017a0   0x080017a0   0x00000032   Code   RO         2250    i.spi_init          gd32f4xx_spi.o
    0x080017d2   0x080017d2   0x00000002   PAD
    0x080017d4   0x080017d4   0x000000ac   Code   RO         1630    i.syscfg_exti_line_config  gd32f4xx_syscfg.o
    0x08001880   0x08001880   0x000000fc   Code   RO          436    i.system_clock_200m_25m_hxtal  system_gd32f4xx.o
    0x0800197c   0x0800197c   0x00000008   Code   RO          437    i.system_clock_config  system_gd32f4xx.o
    0x08001984   0x08001984   0x00000050   Code   RO            6    i.systick_config    systick.o
    0x080019d4   0x080019d4   0x00000184   Code   RO         1805    i.timer_deinit      gd32f4xx_timer.o
    0x08001b58   0x08001b58   0x0000000a   Code   RO         1810    i.timer_enable      gd32f4xx_timer.o
    0x08001b62   0x08001b62   0x00000002   PAD
    0x08001b64   0x08001b64   0x00000098   Code   RO         1820    i.timer_init        gd32f4xx_timer.o
    0x08001bfc   0x08001bfc   0x00000008   Code   RO         1827    i.timer_interrupt_enable  gd32f4xx_timer.o
    0x08001c04   0x08001c04   0x00000006   Code   RO         1828    i.timer_interrupt_flag_clear  gd32f4xx_timer.o
    0x08001c0a   0x08001c0a   0x00000018   Code   RO         1829    i.timer_interrupt_flag_get  gd32f4xx_timer.o
    0x08001c22   0x08001c22   0x00000010   Code   RO         1830    i.timer_master_output_trigger_source_select  gd32f4xx_timer.o
    0x08001c32   0x08001c32   0x00000002   PAD
    0x08001c34   0x08001c34   0x000000e8   Code   RO         1226    i.usart_baudrate_set  gd32f4xx_usart.o
    0x08001d1c   0x08001d1c   0x00000008   Code   RO         1231    i.usart_data_transmit  gd32f4xx_usart.o
    0x08001d24   0x08001d24   0x000000dc   Code   RO         1232    i.usart_deinit      gd32f4xx_usart.o
    0x08001e00   0x08001e00   0x0000000a   Code   RO         1236    i.usart_enable      gd32f4xx_usart.o
    0x08001e0a   0x08001e0a   0x0000001e   Code   RO         1238    i.usart_flag_get    gd32f4xx_usart.o
    0x08001e28   0x08001e28   0x000000ac   Code   RO          507    i.usart_gpio_config  bsp_usart.o
    0x08001ed4   0x08001ed4   0x00000010   Code   RO         1261    i.usart_parity_config  gd32f4xx_usart.o
    0x08001ee4   0x08001ee4   0x00000020   Code   RO          508    i.usart_send_data   bsp_usart.o
    0x08001f04   0x08001f04   0x00000010   Code   RO         1274    i.usart_stop_bit_set  gd32f4xx_usart.o
    0x08001f14   0x08001f14   0x00000010   Code   RO         1278    i.usart_transmit_config  gd32f4xx_usart.o
    0x08001f24   0x08001f24   0x00000010   Code   RO         1279    i.usart_word_length_set  gd32f4xx_usart.o
    0x08001f34   0x08001f34   0x00000020   Data   RO         3266    Region$$Table       anon$$obj.o


    Execution Region RW_IRAM1 (Exec base: 0x20000000, Load base: 0x08001f54, Size: 0x00000418, Max: 0x00030000, ABSOLUTE)

    Exec Addr    Load Addr    Size         Type   Attr      Idx    E Section Name        Object

    0x20000000   0x08001f54   0x00000004   Data   RW            7    .data               systick.o
    0x20000004   0x08001f58   0x00000004   Data   RW          438    .data               system_gd32f4xx.o
    0x20000008   0x08001f5c   0x00000006   Data   RW          621    .data               bsp_lcd.o
    0x2000000e   0x08001f62   0x00000002   Data   RW          795    .data               bsp_gui.o
    0x20000010   0x08001f64   0x00000004   Data   RW         3240    .data               mc_w.l(stdout.o)
    0x20000014   0x08001f68   0x00000004   PAD
    0x20000018        -       0x00000400   Zero   RW          474    STACK               startup_gd32f450_470.o



  Load Region LR$$.ARM.__AT_0xC0000000 (Base: 0xc0000000, Size: 0x00000000, Max: 0x00025800, ABSOLUTE)

    Execution Region ER$$.ARM.__AT_0xC0000000 (Exec base: 0xc0000000, Load base: 0xc0000000, Size: 0x00025800, Max: 0x00025800, ABSOLUTE, UNINIT)

    Exec Addr    Load Addr    Size         Type   Attr      Idx    E Section Name        Object

    0xc0000000        -       0x00025800   Zero   RW          793    .ARM.__AT_0xC0000000  bsp_gui.o



  Load Region LR$$.ARM.__AT_0xC0025800 (Base: 0xc0025800, Size: 0x00000000, Max: 0x00025800, ABSOLUTE)

    Execution Region ER$$.ARM.__AT_0xC0025800 (Exec base: 0xc0025800, Load base: 0xc0025800, Size: 0x00025800, Max: 0x00025800, ABSOLUTE, UNINIT)

    Exec Addr    Load Addr    Size         Type   Attr      Idx    E Section Name        Object

    0xc0025800        -       0x00025800   Zero   RW          794    .ARM.__AT_0xC0025800  bsp_gui.o


==============================================================================

Image component sizes


      Code (inc. data)   RO Data    RW Data    ZI Data      Debug   Object Name

        60         30          0          0          0        564   bsp_basic_timer.o
       126          6          0          2     307200       1974   bsp_gui.o
       160         42          0          0          0       1097   bsp_key.o
      1080         80          0          6          0       7085   bsp_lcd.o
       148         16          0          0          0        570   bsp_led.o
       336         24          0          0          0       2458   bsp_spi.o
       220         14          0          0          0       1878   bsp_usart.o
       612         22          0          0          0       1372   exmc_sdram.o
       702          4          0          0          0       5032   gd32f4xx_dma.o
       396         26          0          0          0       5941   gd32f4xx_exmc.o
       252         18          0          0          0       2830   gd32f4xx_exti.o
       266          0          0          0          0       5295   gd32f4xx_gpio.o
        32          0          0          0          0       4454   gd32f4xx_it.o
       216         20          0          0          0       1576   gd32f4xx_misc.o
       436         44          0          0          0       4463   gd32f4xx_rcu.o
       110          0          0          0          0       4667   gd32f4xx_spi.o
       172          6          0          0          0        830   gd32f4xx_syscfg.o
       604         44          0          0          0       5504   gd32f4xx_timer.o
       564         18          0          0          0       6473   gd32f4xx_usart.o
       248         42          0          0          0      18667   main.o
        36          8        428          0       1024        904   startup_gd32f450_470.o
       460         28          0          4          0       2943   system_gd32f4xx.o
       164         24          0          4          0     126290   systick.o

    ----------------------------------------------------------------------
      7420        516        460         16     308224     212867   Object Totals
         0          0         32          0          0          0   (incl. Generated)
        20          0          0          0          0          0   (incl. Padding)

    ----------------------------------------------------------------------

      Code (inc. data)   RO Data    RW Data    ZI Data      Debug   Library Member Name

         0          0          0          0          0          0   entry.o
         0          0          0          0          0          0   entry10a.o
         0          0          0          0          0          0   entry11a.o
         4          0          0          0          0          0   entry12b.o
         8          4          0          0          0          0   entry2.o
         4          0          0          0          0          0   entry5.o
         0          0          0          0          0          0   entry7b.o
         0          0          0          0          0          0   entry8b.o
         8          4          0          0          0          0   entry9a.o
        30          0          0          0          0          0   handlers.o
        36          8          0          0          0         68   init.o
        50          8          0          0          0        152   printfb.o
         0          0          0          4          0          0   stdout.o

    ----------------------------------------------------------------------
       140         24          0          4          4        220   Library Totals
         0          0          0          0          4          0   (incl. Padding)

    ----------------------------------------------------------------------

      Code (inc. data)   RO Data    RW Data    ZI Data      Debug   Library Name

       140         24          0          4          0        220   mc_w.l

    ----------------------------------------------------------------------
       140         24          0          4          4        220   Library Totals

    ----------------------------------------------------------------------

==============================================================================


      Code (inc. data)   RO Data    RW Data    ZI Data      Debug   

      7560        540        460         20     308228     204439   Grand Totals
      7560        540        460         20     308228     204439   ELF Image Totals
      7560        540        460         20          0          0   ROM Totals

==============================================================================

    Total RO  Size (Code + RO Data)                 8020 (   7.83kB)
    Total RW  Size (RW Data + ZI Data)            308248 ( 301.02kB)
    Total ROM Size (Code + RO Data + RW Data)       8040 (   7.85kB)

==============================================================================

